:100D65007374617274202E2E2E0A00120100010088
:100D7500000008891190880001010203010501099D
:100D850006A101050719E029E71500250195087554
:100D950001810295017508810395067508150025E1
:100DA500FF050719002965810025019505750105D0
:100DB50008190129059102950175039103C00501E3
:100DC5000900A101150025FF1901290895087508D5
:100DD50081020902150025FF750895409106C00995
:100DE500024200020100A0320904000001030101D2
:100DF50000092100012101224100070581030800A6
:100E05000A09040100020300000009210001000194
:100E15002221000705820308000A070502030800CE
:100E25000A0E036B006500790035003500390004B2
:100E35000309040E037700630068002E0063006E4B
:0D0E4500000C034300480035003500390063
:100003004900D0FFFFFFFFFFFFFFFF004900DCFFB8
:10001300FFFFFFFFFFFFFF004900E5FFFFFFFFFFBB
:0F002300FFFFFF004800F0000000000000000099
:1000330075A15575A1AA53B3E043B30675A1FF2279
:0E119B00EF4E600905A1EF1F70F61E80F322D3
:10113200AD07AC06ED4C600E7FE87E0312119BED0D
:071142001D70F11C80EE227C
:0D11A90043C60143C40843C50C43CE1022C9
:100EF000C29FD29EC29DC2CDC2CC438780900121A9
:100F0000120A9B00000082E47B0AFAF9F8900121A2
:100F1000E0FCA3E0FDA3E0FEA3E0FF1209FD9001C9
:100F200025EBF0900121E0FCA3E0FDA3E0FEA3E0AF
:100F3000FFE47B0AFAF9F81209FD900121120A8FE9
:100F4000900125E0C39405401F900121E0FCA3E03F
:100F5000FDA3E0FEA3E02401FFE43EFEE43DFDE44A
:100F60003CFC900121120A8FE589540F4420F58939
:100F700043C9A0900121A3A3A3E0F404F58DD28E70
:040F8000D299D29C94
:010F8400224A
:0811B6003098FDC298AF9922A8
:0811BE008F993099FDD29922AE
:1011010075A15575A1AAED42B175A1FF8FFFEDD370
:0911110094004004D2EFD2AF2299
:10111A00E4F5E243E229F5E353E4BF43E24043E462
:08112A000443E43043E4012218
:10118A0043E10443E10243E10143D81FD2EAD2AF6B
:01119A002232
:10106E0090244A7400F0A37408F0902446E04440A3
:10107E00F0E0547FF0E054EFF075D21290244C74EF
:10108E0000F0A37450F0902447E04404F0E04408CC
:10109E00F0E054FEF075D412A37400F0A37400F0C7
:0B10AE00902446E054F3F075DC0222B1
:1011760078087C007D017E007F0812095875D30827
:0411860053D2FC2222
:0300430002004672
:0D004600C0E0C0F0C083C082C0D075D008FB
:1000530020D9030204E3E5D9543F70030204D524F5
:10006300FE604124E2700302046424FE602824F24B
:100073007003020139240F60030204E175D300E524
:10008300D254FC4402F5D29000DBE020E0030204EA
:10009300E104F00204E175D500E5D454FC4402F513
:1000A300D40204E120DE0302013343D40890011F8C
:1000B300E5D1F0900050E0B4012178D07C007D01BF
:1000C3007B017A0079507E007F0812095878F87C0A
:1000D300007D017B017A0079D0804E900050E0B41E
:1000E300022178DC7C007D017B017A0079507E005F
:1000F3007F0812095878017C017D017B017A007920
:10010300DC8026900050E0B4032678E57C007D0176
:100113007B017A0079507E007F08120958780A7CA7
:10012300017D017B017A0079E57E007F0812095881
:1001330053D4F70204E190011FE5D1F0E0640860B5
:1001430003020438900006E09000EEF0900007E010
:1001530070099000EEE0D3947F40069000EE747F28
:10016300F090011FE4F0900001E09000EFF09000A8
:1001730000E05460603D9000EFE024FE7003020451
:100183003E14700302043E24FA601F147003020439
:100193003E14700302043E240A701590011F74017B
:1001A300F090000074AAF002043E90011E0203586E
:1001B3000204389000EFE0B40B00400302043690D1
:1001C30001C9F828287302041902036902043602DC
:1001D30003A30204360203360201EA0204360203D1
:1001E3004102035E02043E900003E024FE602814F3
:1001F300603C24E17003020296242160030202D9C9
:1002030090011B74FFF0A3740DF0A37470F09001C0
:100213001F7412F00202DF90011B74FFF0A3740D30
:10022300F0A374E4F090011F7442F00202DF900027
:1002330002E0603324FE601914604224026003026A
:1002430002D990011B74FFF0A3740EF0A3743880DD
:100253003990011B74FFF0A3740EF0A37446F09061
:10026300011F740CF0807590011B74FFF0A3740ED2
:10027300F0A37434F090011F7404F0805F90011BAD
:1002830074FFF0A3740EF0A37426F090011F740E94
:10029300F08049900004E0FF701690011B74FFF09A
:1002A300A3740DF0A37482F090011F7441F08026B3
:1002B300EFB4011C90011B74FFF0A3740DF0A37441
:1002C300C3F090011F7421F090011E7401F08006A9
:1002D30090011F74FFF090011F74FFF090011FE065
:1002E300FF9000EEE0D39F4002EFF09000EEE0FFBE
:1002F300C3940840047F08800090011FEFF07E0044
:1003030078007C007D0190011BE0FBA3E0FAA3E0F1
:10031300F91209589000EEE0FF90011FE0FEC3EFD1
:100323009E9000EEF0EEFF90011CE48FF01209ABFB
:1003330002043E900002E09000EEF002043E9000C2
:10034300D9E0900000F09000EEE0C3940150030266
:10035300043E90011F7401F002043E900002E090FD
:1003630000D9F002043E900000E0541F6402702D97
:10037300900004E014601D2480600E14701CE5D40A
:1003830054BC4402F5D402043EE5D254BC4402F505
:10039300D202043E53D27302043E020438020438EC
:1003A300900000E0541FFD701B900003E0FE9000DE
:1003B30002E0FBEB64014E7009900DEB9320E57BAB
:1003C30080738071ED6402704B900003E0FE900037
:1003D30002E0FDED4E703B900005E0FE900004E06E
:1003E300FDEDFFEE702AEF24FE60112481601714E7
:1003F300701EE5D454BF4403F5D4803FE5D4547F45
:10040300440CF5D48035E5D254BF4403F5D2802B98
:1004130080238021801F900000E4F0A3F09000EE81
:10042300E0FFC3940290011F40057402F0800CEFBB
:10043300F08008800090011F74FFF090011FE0FF1F
:10044300B4FF0C9000EF74FFF075DCCF0204E1EF12
:10045300D3940850048FDD800375DD0075DCC08004
:100463007D9000EFE024FB605314705E9000EEE09B
:10047300FFC3940840047F08800090011FEFF07EC3
:100483000078007C007D0190011BE0FBA3E0FAA350
:10049300E0F91209589000EEE0FF90011FE0FEC35F
:1004A300EF9E9000EEF0EEFF90011CE48FF0120936
:1004B300AB90011FE0F5DD63DC408022E5E354806F
:1004C300FF9000EEE04FF5E3800375DD0075DC027D
:1004D300800C90011FE5D1F075DD0075DC00C2D9F9
:1004E30030D80975E300C2DAC2D9C2D830DA23C2E0
:1004F300DAE5DA30E21FE5A220E7FB75A15575A125
:10050300AA75EB8143870275A15575A1AA75EB0006
:05051300800375D80013
:0B051800D0D0D082D083D0F0D0E032F1
:101011007F027E0012113220B4159000D0E0F460FE
:101021000E9000DB7411F07B017A0079D18032E5FA
:10103100C120E6159000DCE0F4600E9000DB742125
:10104100F07B017A0079DD8018E5C120E716900078
:10105100E5E0F4600F9000DB7431F07B017A0079F8
:0D106100E6021176E5D254FC4402F5D222DD
:100B69007D01E4FF1211017E007F1B1D7B017A00CC
:100B790079F8120ACC90F002E493704790F0009350
:100B890064AA703F900120F0900120E0FF2400FD4D
:100B9900E434F08D82F583E493FE74D02FF582E47A
:100BA9003400F583EEF0900120E004F0E0B409D8B8
:100BB90078F87C007D017B017A0079D07E007F097D
:100BC90012095890F00BE493704790F0099364AAC6
:100BD900703F900120F0900120E0FF2409FDE434EA
:100BE900F08D82F583E493FE74DC2FF582E4340002
:100BF900F583EEF0900120E004F0E0B409D8780123
:100C09007C017D017B017A0079DC7E007F09120974
:100C19005890F014E493704790F0129364AA703FCF
:100C2900900120F0900120E0FF2412FDE434F08DC2
:100C390082F583E493FE74E52FF582E43400F583AD
:100C4900EEF0900120E004F0E0B409D8780A7C01C4
:100C59007D017B017A0079E57E007F0912095843FD
:100C6900C3C0120EF07BFF7A0D796512058E121141
:100C79001A12106E12118AE4F5D3F5D59000DBF043
:100C890090011EF090011EE0B401169000DBE070A7
:100C99001030B40AE5C130E605E5C120E7031210BA
:100CA900119000DBE0FFB4120320B413EFB4220566
:100CB900E5C120E60AEF64327026E5C130E721E498
:100CC9009000DBF07F01FE12113220B40AE5C12049
:100CD900E605E5C130E7097B017A0079F012117662
:100CE9009000D0E0FF640160109000DCE0640260D5
:100CF900089000E5E06403705DEFB401069000D050
:100D090074AAF09000F874AAF09000DCE0B4020331
:100D190074AAF090010174AAF09000E5E0B403030D
:100D290074AAF090010A74AAF09001207403F0905B
:100D39000120E0FF14F0EF601D7F007EF0121160CA
:100D4900EF70EC7B017A0079F8900126741BF07F33
:0C0D5900007EF0120E52E4F5FF020C8D3B
:101149008E858F84E58630E60B7586A6E586644034
:07115900547FFF227F4022BA
:1010E0008E858F84CEECCECFEDCF8E8F8F8EE58622
:1010F00030E60B75869AE5866440547FFF227F4078
:0111000022CC
:1011600075A15575A1AA43B10412114975A1557510
:05117000A1AA53B1FB30
:011175002257
:100E5200900121EEF0A3EFF0A3EBF0A3EAF0A3E9F7
:010E6200F09F
:100E630075A15575A1AA43B104E4900127F090013F
:100E730026E0FFA3E0C39F506AE0FD2401FFE433B3
:100E8300FE900123E0FBA3E0FAA3E0F98F828E83B7
:100E930012097EFF900128E4F0A3EFF0E0F8E4F0FC
:100EA300E8900128F08D8275830012097EFF90017E
:100EB30028E0FEA3E04FFF900128EEF0FCA3EFF043
:100EC300FDCCEECC900121E0FEA3E0FF1210E0E0A8
:100ED3002402F0900121E03400F0900127E0240285
:0C0EE300F0808B75A15575A1AA53B1FBDE
:010EEF0022E0
:03000000020F8567
:0C0F8500787FE4F6D8FD758121020FCCC6
:10088800E709F608DFFA8046E709F208DFFA803E52
:1008980088828C83E709F0A3DFFA8032E309F6083F
:1008A800DFFA8078E309F208DFFA807088828C83A7
:1008B800E309F0A3DFFA806489828A83E0A3F6085B
:1008C800DFFA805889828A83E0A3F208DFFA804C35
:1008D80080D280FA80C680D4806980F2803380100C
:1008E80080A680EA809A80A880DA80E280CA803375
:1008F80089828A83ECFAE493A3C8C582C8CCC583ED
:10090800CCF0A3C8C582C8CCC583CCDFE9DEE780BC
:100918000D89828A83E493A3F608DFF9ECFAA9F03B
:10092800EDFB2289828A83ECFAE0A3C8C582C8CC91
:10093800C583CCF0A3C8C582C8CCC583CCDFEADEAA
:10094800E880DB89828A83E493A3F208DFF980CC0C
:1009580088F0EF60010E4E60C388F0ED2402B40405
:100968000050B9F582EB2402B4040050AF232345AC
:0609780082239008D873F1
:10097E00BB010CE58229F582E5833AF583E022502E
:10098E0006E92582F8E622BBFE06E92582F8E22278
:0D099E00E58229F582E5833AF583E4932292
:1009AB00C5F0F8A3E028F0C5F0F8E58215827002D7
:0609BB001583E038F02274
:1009C10075F008758200EF2FFFEE33FECD33CDCCED
:1009D10033CCC58233C5829BED9AEC99E582984070
:1009E1000CF582EE9BFEED9AFDEC99FC0FD5F0D64D
:1009F100E4CEFBE4CDFAE4CCF9A88222B800C1B977
:100A01000059BA002DEC8BF084CFCECDFCE5F0CBB4
:100A1100F97818EF2FFFEE33FEED33FDEC33FCEBED
:100A210033FB10D703994004EB99FB0FD8E5E4F9A8
:100A3100FA227818EF2FFFEE33FEED33FDEC33FC95
:100A4100C933C910D7059BE99A4007EC9BFCE99A89
:100A5100F90FD8E0E4C9FAE4CCFB2275F010EF2FCE
:100A6100FFEE33FEED33FDCC33CCC833C810D707CE
:100A71009BEC9AE899400AED9BFDEC9AFCE899F809
:0E0A81000FD5F0DAE4CDFBE4CCFAE4C8F9229C
:0C0A8F00ECF0A3EDF0A3EEF0A3EFF022DA
:100A9B00A8828583F0D083D082120AB2120AB212D6
:100AAB000AB2120AB2E473E493A3C583C5F0C583FB
:100ABB00C8C582C8F0A3C583C5F0C583C8C582C8A5
:010ACB002208
:10052300E5102424F582E43401F583E005102290DC
:100533000121300703900124E475F001120B23021B
:100543000AF82000E97F2ED2008018EF540F249080
:10055300D43440D4FF30040BEF24BFB41A0050034B
:100563002461FFE511600215110514E514700205FD
:100573001330070E900121E475F001120B23EF02F3
:100583000B110210B97403D2078003E4C207F510FC
:10059300900121120B3AE4F511F513F514E51160FE
:1005A300077F2012056680F57512FFC201C200C2E3
:1005B30002C203C205C206C208120532FF700D3023
:1005C30007057F00120577AF14AE1322B4255FC26F
:1005D300D5C204120532FF24D0B40A00501A75F0B4
:1005E3000A781130D50508B6FF0106C6A426F62001
:1005F300D5047002D20380D924CFB41A00EF50047B
:10060300C2E5D204020778D20180C6D20080C0D2EC
:100613000280BCD2D580BAD20580B47F2012056691
:100623002002077401B5110040F1120523FF1205E2
:10063300660205A0D208D2068095120523FB120597
:1006430023FA120523F94A4B700679497A087BFF8E
:1006530020022EE511602A7E008E82758300120926
:100663007E60060EEE651270F0C2D5EBC0E0EAC004
:10067300E0E9C0E0EE1207BFD0E0F9D0E0FAD0E045
:10068300FB120AF8FF60AAEBC0E0EAC0E0E9C0E0B1
:10069300120566D0E02401F9D0E03400FAD0E0FB83
:1006A300E5120460DCD512D980877BFF7A0779BB1A
:1006B300D202809C791080027908C206C2088008A1
:1006C300D2D5790A8004790AC2D5E512047002F5FD
:1006D30012E4FAFDFEFF120523FC7B08200113122E
:1006E3000523FD7B1030000A120523FE120523FFAC
:1006F3007B20EC3382D592D55013C3E43000069FA0
:10070300FFE49EFEE42001039DFDE49CFCE4CBF8A2
:10071300C201EC700CCFCECDCCE824F8F870F38096
:1007230017C3EF33FFEE33FEED33FDEC33FCEB3356
:10073300FB994002FB0FD8E9EB300105F8D0E0C488
:1007430048B201C0E00AEC4D4E4F78207B0070C2E6
:10075300EAB5120040BCC0E01207C1D0F0D0E020DF
:100763000104C4C0E0C4B201C0F012054FD0F0D5FB
:10077300F0EB0205A0120B43063D5306B758060ED5
:100783004C060A4206BB4F06C34406C3490623432D
:0807930006C95506AD4606AD8E
:10079B004506AD4708695006122D06162E06392B55
:1007AB00061A2306372008522A05D24800000631C4
:1007BB003F3F3F00790AA2D5200314300509B91039
:1007CB00020404B9080104A2D5200602500104203A
:1007DB0002689202B511005034C0E07F203003193B
:1007EB007F30A20272067205500F120818C202C2A5
:1007FB0006C205C2087F30800F300503E9C0E01246
:10080B000566300503D0E0F9D0E0B511CC30051703
:10081B007F30B9100C1205667F583004077F788043
:10082B0003B908031205663002057F2D0205667FAA
:10083B00202008F87F2B2006F322920280CF286E0F
:10084B00756C6C2900D2011205233001F8C20178B6
:10085B001130D50108F60205D22D50434958120527
:10086B00232403B405004001E49008649312055758
:0D087B00743A120557D2037511040206B736
:100ACC00EF4E6012EF60010EEDBB010B89828A8341
:100ADC00F0A3DFFCDEFA2289F05007F709DFFCA94E
:0C0AEC00F022BBFEFCF309DFFCA9F022A5
:100F9100020B69E493A3F8E493A34003F68001F202
:100FA10008DFF48029E493A3F85407240CC8C33361
:100FB100C4540F4420C8834004F456800146F6DF30
:100FC100E4800B0102040810204080900003E47EBD
:100FD100019360BCA3FF543F30E509541FFEE49325
:100FE100A360010ECF54C025E060A840B8E493A3EC
:100FF100FAE493A3F8E493A3C8C582C8CAC583CA17
:10100100F0A3C8C582C8CAC583CADFE9DEE780BECE
:0100320000CD
:100AF800BB010689828A83E0225002E722BBFE02FC
:090B0800E32289828A83E493222E
:100B1100BB010689828A83F0225002F722BBFE01C3
:020B2100F322BD
:100B2300F8E0FBA3A3E0F925F0F0E582158270025B
:070B33001583E0FA38F022FF
:090B3A00EBF0A3EAF0A3E9F022BC
:100B4300D083D082F8E4937012740193700DA3A341
:100B530093F8740193F5828883E473740293686055
:060B6300EFA3A3A380DF55
:1010B900EFB40A07740D1210C4740A309811A89974
:1010C900B8130CC2983098FDA899C298B811F63097
:0710D90099FDC299F599226F
:00000001FF
