:10064A007374617274202E2E2E0A002530325820BF
:02065A0020007E
:0A068F0075A15575A1AA75A1FF22FF
:0E065C00EF4E600905A1EF1F70F61E80F3221D
:10063300AD07AC06ED4C600E7FE87E0312065CED61
:070643001D70F11C80EE2286
:0D066A0043C60143C40843C50C43CE102213
:10051100C29FD29EC29DC2CDC2CC4387809000CAE9
:1005210012044200000082E47B0AFAF9F89000CA42
:10053100E0FCA3E0FDA3E0FEA3E0FF1203A4900012
:10054100CEEBF09000CAE0FCA3E0FDA3E0FEA3E047
:10055100FFE47B0AFAF9F81203A49000CA120436E8
:100561009000CEE0C39405401F9000CAE0FCA3E0D8
:10057100FDA3E0FEA3E02401FFE43EFEE43DFDE433
:100581003CFC9000CA120436E589540F4420F589D9
:1005910043C9A09000CAA3A3A3E0F404F58DD28EB1
:0405A100D299D29C7D
:0105A5002233
:080699003098FDC298AF9922D0
:0806A1008F993099FDC29922E6
:0C06770043FC1043FA0175F8FFD2E822A2
:1006140075FB5953C6FD53BA0F53BB0F43FC8053AC
:0F062400FCF753FA9F43FA8053FAE353FAFD228F
:1005A6007F1E7E0012063343C20143BE02120511AE
:1005B6007BFF7A06794A12006E120614120677E459
:1005C6009000C9F030FCFD9000C9E5F9F0C2FCE0EE
:1005D60004F07BFF7A067955E0FF9000CDE4F0A3A6
:0705E600EFF012006E80DD52
:0300000002068372
:0C068300787FE4F6D8FD7581210205A601
:1003680075F008758200EF2FFFEE33FECD33CDCC4C
:1003780033CCC58233C5829BED9AEC99E5829840CF
:100388000CF582EE9BFEED9AFDEC99FC0FD5F0D6AC
:10039800E4CEFBE4CDFAE4CCF9A88222B800C1B9D6
:1003A8000059BA002DEC8BF084CFCECDFCE5F0CB14
:1003B800F97818EF2FFFEE33FEED33FDEC33FCEB4D
:1003C80033FB10D703994004EB99FB0FD8E5E4F908
:1003D800FA227818EF2FFFEE33FEED33FDEC33FCF5
:1003E800C933C910D7059BE99A4007EC9BFCE99AE9
:1003F800F90FD8E0E4C9FAE4CCFB2275F010EF2F2E
:10040800FFEE33FEED33FDCC33CCC833C810D7072D
:100418009BEC9AE899400AED9BFDEC9AFCE899F868
:0E0428000FD5F0DAE4CDFBE4CCFAE4C8F922FB
:0C043600ECF0A3EDF0A3EEF0A3EFF02239
:10044200A8828583F0D083D08212045912045912F3
:100452000459120459E473E493A3C583C5F0C58318
:10046200C8C582C8F0A3C583C5F0C583C8C582C804
:010472002267
:10000300E50824CDF582E43400F583E00508229069
:1000130000CA3007039000CDE475F0011204CB024F
:1000230004732000E97F2ED2008018EF540F249030
:10003300D43440D4FF30040BEF24BFB41A00500370
:100043002461FFE50960021509050CE50C70020542
:100053000B30070E9000CAE475F0011204CBEF02D7
:1000630004B90205ED7403D2078003E4C207F5085F
:100073009000CA1204E2E4F509F50BF50CE50960FA
:10008300077F2012004680F5750AFFC201C200C235
:1000930002C203C205C206C208120012FF700D306D
:1000A30007057F00120057AF0CAE0B22B4255FC2C9
:1000B300D5C204120012FF24D0B40A00501A75F0FE
:1000C3000A780930D50508B6FF0106C6A426F6202E
:1000D300D5047002D20380D924CFB41A00EF5004A0
:1000E300C2E5D204020258D20180C6D20080C0D237
:1000F3000280BCD2D580BAD20580B47F20120046DC
:100103002002077401B5090040F1120003FF120039
:1001130046020080D208D2068095120003FB12002B
:1001230003FA120003F94A4B700679297A037BFF1D
:1001330020022EE509602A7E008E82758300120458
:100143008C60060EEE650A70F0C2D5EBC0E0EAC023
:10015300E0E9C0E0EE12029FD0E0F9D0E0FAD0E08F
:10016300FB120473FF60AAEBC0E0EAC0E0E9C0E061
:10017300120046D0E02401F9D0E03400FAD0E0FBCD
:10018300E50A0460DCD50AD980877BFF7A02799B74
:10019300D202809C791080027908C206C2088008C6
:1001A300D2D5790A8004790AC2D5E50A047002F52A
:1001B3000AE4FAFDFEFF120003FC7B082001131280
:1001C3000003FD7B1030000A120003FE120003FF40
:1001D3007B20EC3382D592D55013C3E43000069FC5
:1001E300FFE49EFEE42001039DFDE49CFCE4CBF8C8
:1001F300C201EC700CCFCECDCCE824F8F870F380BC
:1002030017C3EF33FFEE33FEED33FDEC33FCEB337B
:10021300FB994002FB0FD8E9EB300105F8D0E0C4AD
:1002230048B201C0E00AEC4D4E4F78207B0070C20B
:10023300EAB50A0040BCC0E01202A1D0F0D0E02031
:100243000104C4C0E0C4B201C0F012002FD0F0D545
:10025300F0EB0200801204EB011D5301975800EEEE
:100263004C00EA42019B4F01A34401A3490103430C
:0802730001A955018D46018D22
:10027B0045018D4703495000F22D00F62E01192B35
:10028B0000FA2301172003322A00B24800000111A3
:10029B003F3F3F00790AA2D5200314300509B9105E
:1002AB00020404B9080104A2D5200602500104205F
:1002BB0002689202B509005034C0E07F2030031968
:1002CB007F30A20272067205500F1202F8C202C2F0
:1002DB0006C205C2087F30800F300503E9C0E0126B
:1002EB000046300503D0E0F9D0E0B509CC30051756
:1002FB007F30B9100C1200467F583004077F78808E
:10030B0003B908031200463002057F2D0200467F19
:10031B00202008F87F2B2006F322920280CF286E34
:10032B00756C6C2900D2011200033001F8C2017800
:10033B000930D50108F60200B22D5043495812007E
:10034B00032403B405004001E490034493120037E7
:0D035B00743A120037D203750904020197AD
:10047300BB010689828A83E0225002E722BBFE0287
:09048300E32289828A83E49322BA
:10048C00BB010CE58229F582E5833AF583E0225025
:10049C0006E92582F8E622BBFE06E92582F8E2226F
:0D04AC00E58229F582E5833AF583E4932289
:1004B900BB010689828A83F0225002F722BBFE0122
:0204C900F3221C
:1004CB00F8E0FBA3A3E0F925F0F0E58215827002BA
:0704DB001583E0FA38F0225E
:0904E200EBF0A3EAF0A3E9F0221B
:1004EB00D083D082F8E4937012740193700DA3A3A0
:1004FB0093F8740193F5828883E4737402936860B4
:06050B00EFA3A3A380DFB3
:1005ED00EFB40A07740D1205F8740A309811A89922
:1005FD00B8130CC2983098FDA899C298B811F6306E
:07060D0099FDC299F5992245
:00000001FF
