:03000000020006F5
:03005F0002000399
:0300030002007F79
:100062007CC07DD47E017F00001CBCFF091DBDFF4A
:10007200051EBEFF011FEC4D4E4F70EC2275C62DC2
:1000820075BAF0759000C294D295C296D2977CC090
:100092007DD47E017F00001CBCFF091DBDFF051E33
:1000A200BEFF011FEC4D4E4F70ECB294B2957CC076
:1000B2007DD47E017F00001CBCFF091DBDFF051E13
:1000C200BEFF011FEC4D4E4F70ECB294B295B2964A
:0400D200B29780BAA7
:06003500E478FFF6D8FD9F
:100013007900E94400601B7A009000DA780075A04B
:1000230006E493F2A308B8000205A0D9F4DAF27546
:02003300A0FF2C
:10003B007800E84400600A790075A006E4F309D85B
:10004B00FC7800E84400600C7900900600E4F0A313
:04005B00D8FCD9FAFA
:0D0006007581071200D6E582600302000339
:0400D600758200220D
:00000001FF
