:102A4E004572726F723A20253032580A002F434F6A
:102A5E004D4D414E442E545854004D6973732046CB
:102A6E00696C652C506C6561736520436865636B9A
:102A7E00207468652066696C65206E616D652E2E0A
:102A8E002E0A002530325820200A002530325820D8
:102A9E0020005374617274204C454420636F6E7431
:102AAE006F6C2E2E2E2E0A005265616420436F6DC0
:102ABE006D616E642046696C652E2E2E2E0A0046C0
:102ACE00696E6973682052656164696E6720466934
:102ADE006C650A00555F4469736B206E6F742072CB
:102AEE006561647920455252203D253032580A00E6
:102AFE00555F4469736B20496E6974204661696C39
:102B0E0065642C506C6561736520726574727920F2
:102B1E00616761696E0A0080060001000012008084
:102B2E000600020000040000050200000000000084
:0F2B3E000900000000000002010000000000007C
:0A3ECD0075A15575A1AA75A1FF2289
:043E2B007FC87E00CE
:0E3E2F00EF4E600905A1EF1F70F61E80F32212
:103DD300AD07AC06ED4C600E7FE87E03123E2FED7F
:073DE3001D70F11C80EE22AF
:0D3E9B0043C60143C40843C50C43CE1022AA
:10320700C29FD29EC29DC2CDC2CC43878090084F39
:103217001218E100000082E47B0AFAF9F890084FDF
:10322700E0FCA3E0FDA3E0FEA3E0FF12178B9008EC
:1032370053EBF090084FE0FCA3E0FDA3E0FEA3E012
:10324700FFE47B0AFAF9F812178B90084F1218BCA3
:10325700900853E0C3940574809480401F90084FF2
:10326700E0FCA3E0FDA3E0FEA3E02401FFE43EFEB3
:10327700E43DFDE43CFC90084F1218BCE589540F6F
:103287004420F58943C9A090084FA3A3A3E0F40401
:08329700F58DD28ED299D29C74
:01329F00220C
:083EF4003098FDC298AF99223D
:083EFC008F993099FDC2992253
:0B2F7100900853EFF0A3ECF0A3EDF08C
:102F7C00E4A3F0900856E0C394037480948040035B
:102F8C00023020900048E4F0E51224F8FF9008533A
:102F9C00E0FEC8EFC8088002C333D8FC900049F0AB
:102FAC00A3E4F0A3F0A37480F090082EE090004D01
:102FBC00F0A3740AF0A37428F0A3E4F090080DE0D9
:102FCC00900051F090080EE0900052F090080FE045
:102FDC00900053F0900810E0900054F0A3E4F0A39C
:102FEC00F0A3EEF0A3E4F0900854E0FEA3E0FF128F
:102FFC002007AF0DEF7002FF22900856E0FF123948
:10300C00B88F0DAF0DEF6003AF0D22900856E004A2
:09301C00F0022F7F750D1F7F1FCC
:013025002288
:0B074300900853EFF0A3ECF0A3EDF0E2
:10074E00E4A3F0900856E0C39403748094804003B1
:10075E000207F7900048E4F0E51224F8FF900853E2
:10076E00E0FEC8EFC8088002C333D8FC900049F001
:10077E00A3E4F0A3F0A3F090082EE090004DF0A3B8
:10078E00740AF0A3742AF0A3E4F090080DE0900030
:10079E0051F090080EE0900052F090080FE090009B
:1007AE0053F0900810E0900054F0A3E4F0A3F0A3EF
:1007BE00EEF0A3E4F0900854E0FEA3E0FF12200751
:1007CE00AF0DEF70097FC8FE123E2F7F00229008FA
:1007DE0056E0FF1239B88F0DAF0DEF6003AF0D224B
:0E07EE00900856E004F0020751750D1F7F1FA2
:0107FC0022DA
:103A550053E37FAFE3EF64026007AFE3EF64037006
:103A65002CAFE3EF64027004AFE48002AFE5EF3002
:103A7500E0037F0022AFE3EF640270047F08800259
:103A85007F80E5DB5F6006750A027F0022750A010B
:023A95007F169A
:013A9700220C
:011FFF0022BF
:103B1A001207FDC3EF94137480948050037FFF2231
:103B2A007E007F808E0B8F0C900806EEF0A3EFF0DC
:103B3A00E4F50A7512099008007402F0900833122D
:093B4A0018E1000000007F0022D8
:073F0400750A01E4F5E42257
:103B8700E4FFE5DB30E316AE0AEE64016006E5E428
:103B97005401701D123F04750A027F1522AE0AEE0A
:103BA700C39402748094804008123F04EF70027F30
:013BB70016F7
:013BB80022EA
:0C3EB500EF547FFFE5E354804FF5E3225B
:103BEA009008837408F0E4FF123EB5E5E454FB4400
:103BFA0002F5E47F0F7E00123DD353E4FD7FFA7E87
:073C0A0000123E2FC2D82278
:103CE300AF0AC3EF9402748094805003750A02E50F
:0D3CF300DB30E30643E4017F00227F162250
:103D70007FC87E0020D909EF1F70011EEF4E70F43E
:083D800030D9037F00227FFE11
:013D88002218
:032DE600C9EFC969
:102DE900CFEDCF8FD68FD4E4F5DD89D5C2D97FC891
:102DF9007E0020D909EF1F70011EEF4E70F4E4F533
:102E0900D520D9037FFE2230D823C2D8123B87EFC1
:102E190064157002D20DAF0AEF640170037F1622A8
:102E2900AF0AEF640270037F1522123E2B30D95985
:102E390030DE037F0022E5D9540FFF640E70028053
:102E490009EF640A7019EB4A7003EF8035C3EB94FC
:102E5900FFEA94FF5005EB1B70011A15DD802DE97F
:102E6900C4540F24F7600D24FC6004240C7017EF80
:102E7900601A800EEFFD64037005ED640B600DEFC1
:102E8900600A4420FF227FFE2275D8FF7F0F7E0053
:102E9900123E2F05DDAFDDC3EF940374809480509B
:062EA90003022DF37F205F
:012EAF002200
:062474007E007F407D1395
:10247A00900858EEF0A3EFF0CFEDCFA3EFF0123EA5
:10248A002BE0FF6005C8EFC8E4F675D7087B107A21
:10249A0027E4FD7FD0122DE6CBEFCBEB6003CFCF45
:1024AA002275D6D075D4D075D701900047E0600464
:1024BA007FFF8005900046E0FF900857EFF0700319
:1024CA000225EAA3E0FEA3E04E70030225EA90008B
:1024DA0040E020E70302256F900857E070030225C9
:1024EA0069123E2B7B107A27ADD47F90122DE6CB52
:1024FA00EFCBEB6003CFCF22900857E0FFE5D1C3C3
:10250A009F5007AED1CFEECF8000900857E0C39F0F
:10251A00F090085AE0FE6006C8EEC8EF26F6E4FE20
:10252A00EE6F602A74002EF582E43400F583E0FD34
:10253A00900858E0F8A3E0F5828883EDF0900859F6
:10254A00E004F07006900858E004F00E80D2AFD193
:10255A00EF600C900883E01455D170030224E2E482
:10256A00F5D70225EA900857E06075123E2B9008CD
:10257A0083E0FF900857E0FEC39F40028003CFEE3E
:10258A00CF8FD7E4FFEF65D7602A900858E0FCA305
:10259A00E0F5828C83E0FE74402FF582E43400F586
:1025AA0083EEF0900859E004F07006900858E004B1
:1025BA00F00F80D17B107A27ADD67F10122DE6CB93
:1025CA00EFCBEB6003CFCF22900857E0C395D7F04B
:1025DA0090085AE0FF608EC8EFC8E5D726F68085D6
:1025EA00123E2BE5D760047F9080027F107B107A21
:1025FA00277DC0122DE6CBEFCBEB6003CFCF22AF06
:0F260A00D7EF7002FF22AFD1EF7002FF227F17D0
:01261900229E
:103C5D00E4FDED6408601B8F828E83E493FC744059
:103C6D002DF582E43400F583ECF00FBF00010E0D4D
:023C7D0080E0E5
:013C7F002222
:103B53009008837408F07E2B7F25123C5D7E007FE6
:103B6300407D1312247AEF600122900047E0900811
:103B730083F0902B2BE493FFE513C39F50037F1730
:033B8300227F009E
:013B8600221C
:103703007E2B7F2D123C5D122474EF600122902BDF
:1037130033E493FEE513C39E50037F1722900042C8
:10372300E0F513E513D394407480948040037F172E
:10373300227E2B7F2D123C5D900046E513F0122470
:1037430074EF600122902B33E493FFE513C39F4092
:103753000A900042E0FFE5139F50037F17227F008A
:013763002243
:053BB900900852EFF03E
:103BBE007E2B7F35123C5D900852E0900042F0E47F
:103BCE00FDFFFE12247AEF600122900852E0FF12F0
:0B3BDE003EB57F0A7E00123DD37F0041
:013BE90022B9
:103D8900CBEFCB7E2B7F3D123C5DCFEBCF9000423A
:093D9900EFF0E4FDFFFE02247AC4
:103DA200CBEFCB7E2B7F45123C5DCFEBCF90004417
:093DB200EFF0E4FDFFFE02247AAB
:1036A100E4F9FC8F828E83A3A3E0FBECC39B504E15
:1036B100EF2CF582E43EF583A3E064057025EF2C41
:1036C100F582E43EF583A3A3A3E0540364037013DE
:1036D100EF2CF582E43EF583A3A3E030E705540F18
:1036E100F9801BEF2CF582E43EF583E0FBCDEBCDB9
:1036F100D39410748094805005ED2CFC80A5CFE903
:01370100CFF8
:0137020022A4
:102EB000123BEAE490084FF0FB90084FE0C39464A3
:102EC0007480948050217F017E00123DD3123CE338
:102ED000EF700CF00BEBD3946474809480500890E6
:102EE000084FE004F080D290084FE06006123F04E3
:102EF0007F1622123B53CBEFCBEB706E90084FF056
:102F0000902B2BE493FF90084FE0C39F5005E00403
:102F1000F080ED900044E0900851F0902B37E4935E
:102F2000FF123BB9CBEFCBEB7040123703CBEFCBAB
:102F3000EB7037900045E0900850F0E490084FF0B7
:102F4000900042E0FF90084FE0C39F5005E004F07E
:102F500080EE90004EE0FF900851E0700AEF6408A8
:102F60007005750A04FF227FFB22750A02CFEBCFA2
:012F7000223E
:103A9800C2EA75E280E4F5E39024477448F0CE74F6
:103AA80000CECF7400CF90244CEEF0A3EFF0CE748C
:103AB80000CECF7440CF90244EEEF0A3EFF0E4F5A3
:103AC800D4F5D675E28975D24075D8FF123F0475D2
:033AD800E10322E5
:053D3A0090084FEFF0BE
:103D3F00EF60137BFF7A2A794E900856E4F0A3EFD9
:073D4F00F0120D0680FE22B8
:103E4E0053FC7775FA6043BAB453BABF75FB0222BE
:063F12008FF930FBFD22D7
:093EEB0075F9FF30FBFDAFF9226F
:103DBB00E490085EF0C29475F90530FBFD75F9FFD0
:073DCB0030FBFDD294AFF9BB
:013DD20022CE
:0D3EA800123DBBEF30E005123DBB80F4225F
:103E1800CEEFCEC2947F01123F12CFEECF123F12E7
:033E2800D294220F
:0A3ED700C2947F06123F12D294221B
:0D3E8D00123DBBEF540264026003123ED7E9
:013E9A002205
:0F3E7E00123E8DC2947F60123F12D294023EA872
:1033CA009008531218BC900857EBF0A3EAF0A3E94F
:0133DA00F002
:1033DB00C29475F90330FBFD900853A3E0FDA3E005
:1033EB00FEA3E0FFE4FC781012183C8FF930FBFDD4
:1033FB00900853A3A3E0FEA3E0FFE4FDFC780812C2
:10340B00183C8FF930FBFD900853A3A3A3E0FF8F6B
:10341B00F930FBFDE4FFEFC3948074809480501E61
:10342B0075F9FF30FBFD900857E0FBA3E0FAA3E032
:10343B00F98F82758300E5F912172D0F80D8D2947E
:01344B00225E
:10390B009008591218BC123ED7C2947F02123F1274
:10391B00900859A3E0FDA3E0FEA3E0FFE4FC7810C0
:10392B0012183C123F12900859A3A3E0FEA3E0FF2C
:10393B00E4FDFC780812183C123F12900859E0FC89
:10394B00A3E0FDA3E0FEA3E0FF123F12A3E0FF12F2
:07395B003F12D294023EA8C6
:0E1FA000900853EEF0A3EFF0A3ECF0A3EDF0E9
:101FAE00E4A3F0A3F0900853E0FEA3E0FFC3900873
:101FBE0058E09F900857E09E5036E0FAA3E0FB9061
:101FCE000856E02BFF900855E03AFEE4FCFD740045
:101FDE002BF58274043AF583E090085DF012390B0C
:101FEE00900858E004F070BD900857E004F080B5FA
:011FFE0022C0
:103D560075BCFF75BEFF43C6C0D2A4C2A59028811C
:0A3D66007409F09028837406F0221F
:1030D000EFB41000400302316B9030E0F828287301
:1030E00002311002311402311802311C0231200267
:1030F000312402312802312C0231300231360231C2
:103100003C02314202314802315102315A023163EC
:10311000C2A3801EC2A38020C2A38022C2A3802497
:10312000C2A38026C2A3802BC2A38030C2A3803555
:10313000D2A3C2A28016D2A3C2A28019D2A3C2A2D5
:10314000801CD2A3C2A2801FD2A3D2A2C2A1C2A0BD
:1031500022D2A3D2A2C2A1D2A022D2A3D2A2D2A111
:0C316000C2A022D2A3D2A2D2A1D2A022EF
:10261A00123ED7E4FF123E18123E7EC87422C8CC7E
:10262A007400CCCDE4CD7BFF7A2A795B1219DE12D5
:10263A00080090084FEFF064B36005EF6442700C35
:10264A007BFF7A2A7968120D060227697822121806
:10265A00C80000025A123634123D3AE4900850F08B
:10266A00900850E0C39402748094804003022702C9
:10267A0078227604087600087404F6087400F612C4
:10268A001D26123D3A7BFF7A2A7991900850E0FF85
:10269A00900856E4F0A3EFF0120D06E4900851F00A
:1026AA00A3F0900851E0FEA3E0FFC3EE9404502D7E
:1026BA007BFF7A2A799974002FF58274043EF58398
:1026CA00E0FF900856E4F0A3EFF0120D06900852CE
:1026DA00E004F07006900851E004F080C5900850BC
:1026EA00E07D0025E025E0FC7F007E04121FA0901B
:1026FA000850E004F002266AE47822F608F6087424
:10270A0004F6087400F6121D26123D3AE4900851A8
:10271A00F0A3F0900851E0FEA3E0FFC3EE9400504E
:10272A002D7BFF7A2A799974002FF58274043EF57D
:10273A0083E0FF900856E4F0A3EFF0120D0690082C
:10274A0052E004F07006900851E004F080C5900849
:10275A0050E07D0025E025E0FCE4FFFE121FA0E426
:0E276A007822F61235BE90084FEFF0023D3F88
:0532A000900850EFF062
:1032A5009008527440F0E4900851F0EF54017038E2
:1032B500CE7404CECF7400CF902884EEF0A3EFF047
:1032C500900852E0902886F0902881E04410F09014
:1032D5000850E004540F75F080A4FFAEF0E4FCFD47
:1032E5007B017A0079008036CE7400CECF7400CF92
:1032F500902884EEF0A3EFF0900852E0902886F035
:10330500902881E04410F0900850E004540F75F0C7
:1033150080A4FFAEF0E4FCFD7B017A047900123352
:10332500CA902882E070FA902880E030E6F3A3E0A6
:0333350054EFF062
:013338002272
:1037C200E490084FF090084FE0C394107480948006
:1037D200502BD2A57F027E00123E2FC2A5E0FF121F
:1037E20032A0C2A490084FE0FF1230D07FF47E01D5
:0D37F200123E2FD2A490084FE004F080C8D2
:0137FF0022A7
:102D18007F1E7E00123DD31232077BFF7A2A79A0EC
:102D2800120D06123A98123D56123E4E123B1AC226
:102D38000DC2D87B017A0479007F007E007D007C7B
:102D4800001233CA20D803022DE0C2D8123B879064
:102D5800084DEFF07E0064157002D20D200D06EFCD
:102D680064154E7073C20D7FC87E00123DD3122EBB
:102D7800B090084DEFF07057750A04A3F090084E14
:102D8800E0640A601712376490084DEFF0600D7F19
:102D9800327E00123DD3A3E004F080E1AF0AC3EF16
:102DA8009405748094807BFF40127A2A79B6120DBC
:102DB8000612261A7BFF7A2A79CD80197A2A79E2B7
:102DC80090084DE0FF900856E4F0A3EFF080067BF2
:0E2DD800FF7A2A79FE120D061237C2022D4C28
:103E5E0021FF000000000000A1FE00000000010094
:0633390090080D1218BC03
:10333F00900825E0FF900810E06F7024900822E0BD
:10334F00FF90080DE06F7018900823E0FF90080EB3
:10335F00E06F700C900824E0FF90080FE06F60584A
:10336F0090080DE0FCA3E0FDA3E0FEA3E0FF9008B2
:10337F00221218BC900806E0FEA3E0FBCAEECA6555
:10338F000C7003EA650B701490080DE0FCA3E0FDD0
:10339F00A3E0FEA3E0FF9008261218BCCEEACECF22
:1033AF00EBCFCDEFCDCCEECC7F01122F718F0DEF88
:0B33BF006003123E01AF0D227F0022D0
:10316C00900840E0FCA3E0FDA3E0FEA3E0FF900884
:04317C000D1218BC5C
:10318000900829E0FF900810E06F7024900826E076
:10319000FF90080DE06F7018900827E0FF90080E70
:1031A000E06F700C900828E0FF90080FE06F60540B
:1031B00090080DE0FCA3E0FDA3E0FEA3E0FF900873
:1031C000261218BCAB0CAA0B900806E06A7003A389
:1031D000E06B701490080DE0FCA3E0FDA3E0FEA3FB
:1031E000E0FF9008221218BCCEEACECFEBCFCDEF95
:1031F000CDCCEECC7F01122F718F0DEF6003123E0C
:0732000001AF0D227F002247
:10385B0090080DE0FCA3E0FDA3E0FEA3E0FF9008C1
:10386B00221218BC900806E0FEA3E0FBCAEECA6564
:10387B000C7003EA650B701490080DE0FCA3E0FDDF
:10388B00A3E0FEA3E0FF9008261218BCCEEACECF31
:10389B00EBCFCDEFCDCCEECC7F011207438F0DEFED
:0838AB006003123E01AF0D2283
:10344C008F118E108D0F8C0EE509241AF582E43540
:10345C0008F583E50EF0A3E50FF0E5092414F582D9
:0C346C00E43508F583E510F0A3E511F04D
:1034780090080DE0FCA3E0FDA3E0FEA3E0FF9008A8
:10348800261218BCAB0CAA0B900806E06A7003A3BE
:10349800E06B701490080DE0FCA3E0FDA3E0FEA330
:1034A800E0FF9008221218BCCEEACECFEBCFCDEFCA
:1034B800CDCCEECC7F011207438F0DEF6003123E97
:0434C80001AF0D2221
:1013AD00900811E0FCA3E0FDA3E0FEA3E0FF900890
:0613BD00021218BCE4FF5F
:1013C3008FD3900839E0FBB40212900802E0FCA32B
:1013D300E0FDA3E0FEA3E0FF78018014EBB4031566
:1013E300900802E0FCA3E0FDA3E0FEA3E0FF780287
:1013F30012184F803EC200900805E030E002D20090
:10140300900802E0F8A3E0F9A3E0FAA3E0FBE8C048
:10141300E0900802E0FCA3E0FDA3E0FEA3E0FF7878
:101423000112183CD0E0F8EB2FFFEA3EFEE93DFD48
:10143300E83CFC9008021218BC900800E024FFFF6F
:10144300EFFE900804E0FCA3E0FDEE5CFEEDFF90F0
:101453000807E02FF509900806E03EF5089008021A
:10146300E0FCA3E0FDA3E0FEA3E0123D0090083AF8
:10147300E0F8A3E0F9A3E0FAA3E02FFFEA3EFEE9D8
:101483003DFDE83CFC9008021218BC900825E0FFE3
:10149300900805E06F7024900822E0FF900802E0B6
:1014A3006F7018900823E0FF900803E06F700C90B2
:1014B3000824E0FF900804E06F601F300B07123030
:1014C30026EF600122900802E0FCA3E0FDA3E0FE0A
:1014D300A3E0FF123339EF600122E5D36044E5D383
:1014E300B4040C9008021218E1FFFFFFFF8031E5FE
:1014F300D3B4010C9008021218E100000000802010
:1015030090082DE0900802F090082CE0900803F07A
:1015130090082BE0900804F090082AE0900805F06A
:10152300D20BC20C900839E0FB6402704685098235
:10153300850883E0F50FA3E0F510850F11E4F50EA0
:10154300F50FC3E51194F7E51094FF4002D20CE5C3
:10155300D36014900802E0FFA3E085098285088325
:10156300CFF0A3EFF0E12A300C02E12AAE10AF1165
:10157300E4E122EB64037071AF09AE08123E6E8F93
:10158300118E108D0F8C0EE50E54F0FF900805E0C0
:10159300540F4FF0530E0FE50ED3940F5016E50E74
:1015A300B40F13E50FB4FF0EE510B4FF09E511C343
:1015B30094F74002D20CE5D36016900802E0FCA336
:1015C300E0FDA3E0FEA3E0FF850982850883E12710
:1015D300300C02E12A90082AE50EF0A3E50FF0A3F0
:1015E300E510F0A3E511F0E12A850982850883E07F
:1015F300F511900802E0FFC454F0FEE511540F4EBC
:10160300F50EA3E0C454F0FEEFC4540F4EF50F9053
:101613000800E024FFFFEFFE900807E024FFFF909F
:101623000806E03EFEEF65097003EE65086043853A
:101633000982850883A3E0F510E5D37002C1EB307E
:10164300000F850982850883E50EF0A3E50FF0C13D
:10165300EB900802E0850982850883F0900803E097
:10166300540FFFE51054F04F850982850883A3F0DA
:101673008076E5D36014300004AF0E800590080235
:10168300E0FF850982850883EFF0A20BE43345D39D
:101693006007123026EF600122900822E0FCA3E0ED
:1016A300FDA3E0FEA3E02401FFE43EFEE43DFDE4F0
:1016B3003CFC123339EF600122900806E0FEA3E000
:1016C300FFF5828E83E0F510E5D3601C300004AD96
:1016D3000F800D900803E0540FFDE51054F04DFD0D
:1016E3008F828E83EDF0D20BE4F50EF50F300014EC
:1016F300E510C4F854F0C868F510E511C4540F4858
:10170300F511800353100FC3E51194F7E510940FFF
:101713004002D20CE5D3700F200C0CAE10AF11FCBD
:0A172300FD90082A1218BC7F002276
:10225200900808E0FCA3E0FDA3E0FEA3E0FF9008E5
:102262002AE0F8A3E0F9A3E0FAA3E0FBD312182BCB
:1022720040037FB12290082AE0FCA3E0FDA3E0FE28
:10228200A3E02401FFE43EFEE43DFDE43CFC9008B3
:102292007B1218BC1213BBCBEFCB90087BE0FCA3E4
:1022A200E0FDA3E0FEA3E0FF90082A1218BCEB6059
:1022B20002FF22E511700AE50E450F4510700281FA
:1022C2005A90080AE0FF90087DE06F701A900808A3
:1022D200E0FF90087BE06F700E900809E0FF900825
:1022E2007CE06F70024152900839E0FF6401700295
:1022F2004152900806E0FCA3E08C08F509EF640265
:10230200703E900800E075F080A424FFFFE5F034F1
:10231200FFF50E8F0FF5108F1174022509F509E4F0
:102322003508F508850982F583E07004A3E060773B
:10233200E50F150F7002150E14AE0E4E70DB8136CE
:10234200900800E075F040A424FFFFE5F034FFF5AB
:102352000E8F0FF5108F1174042509F509E4350865
:10236200F508850982F583E060028126A3E0600218
:102372008126850982850883A3A3E06002812685E0
:102382000982850883A3A3A3E0540F6002812685F6
:102392000982850883A3A374FFF0850982850883D7
:1023A200A3A3A3E0440FF085098285088374FFF09C
:1023B200A3F0AE10AF1190082AE0F8A3E0F9A3E071
:1023C200FAA3E04FFFEA4EFEE9FDE8FCEEC0E0EFC3
:1023D200C0E0E50F24FFFFE50E34FFCBEFCBFAD0D0
:1023E200E0FFD0E0FEC3EF9BFFEE9AFEED9400FD0E
:1023F200EC9400FC90082A1218BC900808E0FCA398
:10240200E0FDA3E0FEA3E0FF90082AE0F8A3E0F9D4
:10241200A3E0FAA3E0FBD312182B40037FB122D230
:102422000B7F0022E50F150F7002150E14AE0E4E33
:102432006002615990082AE0F8A3E0F9A3E0FAA348
:10244200E0FBAE10AF11EB4FFFEA4EFEE9FDE8FCF8
:1024520090082A1218BC415290087BE0FCA3E0FDD0
:10246200A3E0FEA3E0FF9008021218BC7F0412133F
:02247200C32283
:103DEA00122252EF64B160012290082A1218E100EF
:073DFA00000000122252221A
:10080000E50AC394105007120003EF600122123C66
:1008100080EF600122C2097822E6FF7002FF22EF1A
:10082000645C6004EFB42F089008447423F08017D0
:100830007823E6643A600201FBEFC394435002015F
:10084000FB9008447425F0900839E0FBB403109045
:100850000845E0FCA3E0FDA3E0FEA3E0FF8005E483
:10086000FFFEFDFC9008111218BC900844E0F8E669
:100870006002210190082F1218E1FFFFFFFFEB64D7
:1008800003604F9008147402F0900848E09008014B
:10089000F090081AE0FCA3E0FDA3E0FEA3E0FFEF68
:1008A000C0E0900801E0FBD0E0FFC3EF9BFFEE94B7
:1008B00000FEED9400FDEC9400FC90081A1218BCA8
:1008C000900801E0FFE4FCFDFE123D1D90082F1290
:1008D00018BC900811E0FCA3E0FDA3E0FEA3E0FF3C
:1008E00090082A1218BC9008491218E10000000074
:1008F000E4900815F0750A127F4122900844742292
:10090000F0900811E0700CA3E07008A3E07004A35D
:10091000E06046900801E0900815F0900811E0FCB6
:10092000A3E0FDA3E0FEA3E024FEFFEE34FFFEED16
:1009300034FFFDEC34FFFC90080CE0F9F812184F7E
:1009400090081AE0F8A3E0F9A3E0FAA3E02FFFEA89
:100950003EFEE93DFDE83C8024900848E090081503
:10096000F0FB90081AE0FCA3E0FDA3E0FEA3E0C3C7
:100970009BFFEE9400FEED9400FDEC9400FC9008CB
:10098000401218BC900815E07002814812316CEFDB
:10099000600122E4900818F0A3F0900800E0FE90B7
:1009A0000818E0FCA3E0FDC39400EC9E4002812106
:1009B000ED250CF509EC350BF508850982F583E08A
:1009C000FF70028178EF64E570028111EFB40502D7
:1009D0007FE5900844E0F8E6FE6F6007EE642A6069
:1009E000028111EF6E70047F0180027F008F10AFD3
:1009F00010EFC3940B5059AE10900844E02EF8E667
:100A0000FEE5092FF582E43508F583E0FD6E603BD5
:100A1000EE6009645C6005EE642F701FED64207069
:100A20002FEFC394085010E5092408F582E4350837
:100A3000F583E0642070197F0B8015EEB42E11E56C
:100A40001064086004EDB420077F070F051080A133
:100A5000AE10900844E02EF8E6F511EFC3940B5069
:100A6000026151E509240BF582E43508F583E03095
:100A7000E3026151C20CE509241AFFE43508FE12B5
:100A80003EE1E4FCFD9008111218BC900839E0B476
:100A90000314E5092414FFE43508FE123EE1900832
:100AA00011EEF0A3EFF0E5116005200C0261459016
:100AB0000811E0FCA3E0FDA3E0FEA3E0FF90082AFC
:100AC0001218BC9008491218E100000000E49008D8
:100AD00015F0E509240BF582E43508F583E030E4F0
:100AE0001E90082F1218E1FFFFFFFF7D137F1012E9
:100AF0003C84EF600122300C037F43227F4122E5DA
:100B000009241CFFE43508FE123E6E90082F1218CF
:100B1000BC900811E0701AA3E07016A3E07012A355
:100B2000E0700EA374FFF090082F1218E10000008F
:100B3000007D147F10123C84EF600122300C037F93
:100B400043227F0022E51004FF900844E02FF021AB
:100B500001E511642A60028111E509240BF582E4A4
:100B60003508F583E030E3028111E5A164596003A3
:100B70007F112290082FE0FCA3E0FDA3E0FEA3E09C
:100B8000FFEC4D4E4F602E90082FE030E703121F10
:100B9000FF90082FE0FCA3E0FDA3E0FEA3E024FF0C
:100BA000FFEE34FFFEED34FFFDEC34FFFC90082F28
:100BB0001218BC805CE4FFF50EE5092FF582E435E0
:100BC00008F583E064206036EFB4080CAE0E9008A0
:100BD00044E02EF8762E050EE5092FF582E435085F
:100BE000F583E0FEAD0E900844E0FC2DF8EEF6E54E
:100BF0000E7009C8ECC8E6B4050276E5050E0FEFE5
:100C0000B40BB6AF0E900844E02FF8E4F6D20C41D6
:100C100076900819E02420F0900818E03400F021C4
:100C20009A900840E0FCA3E0FDA3E0FEA3E02401CD
:100C3000FFE43EFEE43DFDE43CFC9008401218BC9D
:100C4000900815E014F02184900811E0700CA3E0E6
:100C50007008A3E07004A3E0601E1213ADEF600102
:100C600022200C14900811E50EF0A3E50FF0A3E587
:100C700010F0A3E511F02101E4FF900844E0CEEF6D
:100C8000CE0F2EF8E6FE6010642A600CEE645C6005
:0B0C900004EEB42FE57FB3227F422268
:1038B30090082AE0FCA3E0FDA3E0FEA3E024FEFFC2
:1038C300EE34FFFEED34FFFDEC34FFFC90080CE01A
:1038D300F9F812184F90081AE0F8A3E0F9A3E0FAF8
:1038E300A3E02FFBEA3EFAE93DF9E83CF89008151E
:1038F300E0FFE4FCFDFEEB2FFFEE3AFEED39FDECBD
:0839030038FC90080D0218BC0D
:102B4D00900811E0700EA3E0700AA3E07006A3E0F8
:102B5D007002812E7826121862123D00EFC0E090AF
:102B6D000815E0FBD0E0FFC3EF9BF511EE9400F5E7
:102B7D0010ED9400F50FEC9400F50EAF11AE10AD05
:102B8D000FAC0E782212186EC312182B4017782234
:102B9D00121862C3EF9511FFEE9510FEED950FFD26
:102BAD00EC950E8054900811E0FCA3E0FDA3E0FE2F
:102BBD00A3E0FF90082A1218BC900801E0FFE4FC86
:102BCD00FDFE782212186EC312182B403490082A7D
:102BDD001213B0EF600122200C477822121862EF19
:102BED00C0E0900801E0FBD0E0FFC3EF9BFFEE9447
:102BFD0000FEED9400FDEC9400FC78221218B080DC
:102C0D00B87825E6900815F01238B390080DE0FC61
:102C1D00A3E0FDA3E0FEA3E0FF78221218B07F0031
:102C2D002290081574FFF078221218C8FFFFFFFFDD
:032C3D007F0022F3
:0307FD007F132245
:103E01009008261218E1FFFFFFFF9008221218E127
:073E1100FFFFFFFFC20B22BF
:043C80007D107F1024
:103C8400AE0AEEC39F4005CEEDCE8D0AEE6D7002F6
:0F3C9400FF22750A01123A55EF6001227F832249
:103C3800AB0DEBB41611750A019008331218E100A8
:103C4800000000CFEBCF22EBB41507750A02CFEBCB
:053C5800CF227F0022D5
:103800007F027E00123DD390083FE50DF0123A553D
:10381000EF600122E50AC3940450037F83227E3EB9
:103820007F5E123C5D90083EE0900044F0E4FDFFB6
:10383000FE12247A8F0DEFB4160122900838E0545E
:103840000FFF123DA2900837E0540F4480FF123D55
:0B385000A290083FE0FFF50DE4F0221D
:103ADB00900048EDF0A3E4F0A3F0A3F0ED60047EBA
:103AEB008080027E0090004CEEF090082EE090005B
:103AFB004DF0A37406F0A3EFF0A3E4F0A3F0A3F052
:0F3B0B00A3EDF0A3E4F0A3F0A3F0A3F0A3F02246
:07200000123ADB7E007F6253
:102007008E158F169000407455F0A37453F0A37487
:1020170042F0A304F075D71F900838E0FF90083FFF
:10202700E0FD7BE87AFD122DE68F0DEFB416012255
:10203700EF60397E007F627C007D407B1B7A001257
:102047003CA31238007E007F407C007D627B1B7AB8
:1020570000123CA3900838E0FF90083FE0FD7BE8C2
:102067007AFD122DE68F0DEF6002414C90083FE09C
:102077006440F0900048E0FDA3E0FF4D700241117D
:10208700EFF513EDF51490004CE020E702215BD249
:1020970001E51445137002214FE5137007E514C3DA
:1020A7009440400C90244CE515F0A3E516F0800C05
:1020B700C20190244C7400F0A37400F0900837E03C
:1020C700FF90083FE0FD7BE87AFD122DE68F0DEFCC
:1020D700601E90244C7400F0A37400F0EF642E602F
:1020E7000122900837E0540F4480FF123DA2805828
:1020F70090083FE06480F030011FE5D164407048EC
:1021070074C02514F51474FF3513F51374402516A0
:10211700F516E43515F5150198AFD1AE14EEC39F4A
:102127005003CFEECFE4FEEE6F601D74002EF582F4
:10213700E43400F583E0851682851583F00516E5FE
:1021470016700205150E80DF90244C7400F0A374FE
:1021570000F04111E514451370024107E5137008BB
:10216700AF14EFC39440402690244EE515F0A3E545
:1021770016F074C02514F51474FF3513F513744065
:102187002516F516E43515F51575D74080379024D3
:102197004E7400F0A37440F08FD7E4FFE5146F602E
:1021A7001F851682851583E0FE74402FF582E4347F
:1021B70000F583EEF00516E516700205150F80DCB5
:1021C700E4F513F514900838E0FF90083FE0FD7B35
:1021D700E87AFD122DE68F0DEF601C90244E7400F7
:1021E700F0A37440F0EF642E600122900838E054A9
:1021F7000FFF123DA2800990083FE06440F0215B89
:1022070090244E7400F0A37440F0900837E0FF90DC
:10221700083FE0FD7BE87AFD122DE68F0DEF6001A8
:102227002290083FE06480F0750D1FE5D1640D60D2
:1022370003AF0D2290000CE0FE7004F50DFF22EEB7
:0B224700C394024003023800AF0D22D8
:103CC4007F0A7E00123DD37D127F031220007F0500
:0F3CD4007E00123DD3E50D7002FF22123C382214
:10277800751209750E0F7D087F25123ADB90004E01
:10278800740AF0900053E4F0122003AF0DEF7020AC
:10279800900068E0FEB4040575120A8040EEB408A3
:1027A8000575120B8037EE6410703275120C802D8F
:1027B800EF64166028EF64156023EF6413601E8FC2
:1027C8000F123CC4850F0DE50E7E0030E3047F40F8
:1027D80080027FC8123DD3150EE50E7099E51224CC
:1027E800F8FF7401C8EFC8088002C333D8FC90080A
:0527F80000F0AF0F220C
:10280000123A55EF600122E50AC3940450037F8316
:1028100022750A041237038F0DEF60012290004EDB
:10282000E06408705FC20AA3E0B40602D20A900016
:102830004BE090083EF0E4F50EE50E600790005B7B
:10284000E0FF8005900054E0FF8F0FE50E600790D9
:10285000005DE0FF8005900056E0FFEF64407024CB
:10286000E50F30E70CE50F540F4490900837F080E7
:102870000AE50F540F4410900838F0050EE50EB429
:1028800002B78006750D1FAF0D22900045E0FF12C4
:102890003D898F0DEF600122E4F50E7E3E7F6612CA
:1028A0003C5D90083EE0900044F07D0FAF0CAE0B15
:1028B00012247A8F0DEF7010E50FB4011A850C8287
:1028C000850B83E0F50E800FE50DB42E07E4FF12B3
:1028D0003DA28003AF0D227F057E00123DD3123E44
:1028E00001E490083FF090082EF07D247F12123A08
:1028F000DBAF0CAE0B122007E50D7023E50E601860
:1029000090082EE07012850C82850B83E0B40508D8
:1029100090082E7401F080D27D057F04023C84E58E
:102920000E600E90082EE0C394035005E004F08082
:0C293000B9E490082EF07F011239B822A3
:1037640078221218C800000000123A55EF600122B6
:10377400E50AC394055030122800EF600E7F407EA6
:1037840000123DD3122800EF600122122778EF6067
:1037940003AF0D22900062E0FCA3E0FDA3E0FEA3D2
:1037A400E0FF78221218B0E4FDFF122000E50D704E
:0E37B40002FF22850D0E123CC4AF0E8F0D22B7
:1039B800E4FDFCE4F5A10DBD00010CBC01F5BDF46E
:1039C800F2EFC394024014AE0AEEB41205750A056C
:1039D8008009EED394104003750A10AE0DEF601401
:1039E800EE6416600FEE6415600A123CC4CEEFCE8A
:0F39F800EE7001227F027E00123DD3123C382276
:10000300E50AC39405500A122800EF600122122763
:1000130078123E01900833E0FCA3E0FDA3E0FEA3C9
:10002300E054F0FFEC7B707A5679347812C31218DF
:100033002B700A900836E0540FF5098003E4F509A4
:10004300E4900801F0900815F090082F1218E100D1
:1000530000000090080D1218E1000000001231802A
:10006300EF600D123800122778123180EF60012201
:10007300E509700F850C82850B83E054FD64E970FC
:100083000221B6E50C24FEF582E50B3401F583E08D
:10009300FEA3E064AA7003EE645560037F9122908F
:1000A3000801E0F508E5086440700221A2E50C248C
:1000B300BEFFE50B3401FE7C00EF2508FFEC3ECFCD
:1000C3002408CF3400FE123E6E90080D1218BCE5D2
:1000D3000C24BEFFE50B3401FE7C00EF2508FFEC8A
:1000E3003EF583EF2404F582E43583F583E0F50ED2
:1000F300E50E64056005E50EB40F5190080DE0FCB4
:10010300A3E0FDA3E0FEA3E0FF90082FE0F8A3E047
:10011300F9A3E0FAA3E0FBEF2BFFEE3AFEED39FD86
:10012300EC38FC90080D1218BC900815E060020131
:1001330060E5082410F090080DE0FCA3E0FDA3E0C7
:10014300FEA3E0FF90082F1218BC0160E50E30E714
:1001530003530E3FE50E603FE50EC3940F5038E5A1
:10016300099401503090080DE0FCA3E0FDA3E0FEEC
:10017300A3E0FF900826E0F8A3E0F9A3E0FAA3E0E8
:10018300FBEF2BFFEE3AFEED39FDEC38FC90080D4A
:100193001218BC801E150974102508F50801A890D3
:1001A3000815E0FF600A900801E07004EFF0014CCD
:1001B3007F922290080DE0FCA3E0FDA3E0FEA3E004
:1001C300FF9008331218BC123180EF600122850CB6
:1001D30082850B83E054FD64E960037FA122E50C73
:1001E30024FEF582E50B3401F583E0FEA3E064AA67
:1001F3007003EE645560037FA122E50C240DF582A4
:10020300E4350BF583E0FF900801F090080C7407C8
:10021300F0EF20E713EF25E0FF90080CE014F0E087
:1002230070EF9008017401F0E50C2416FFE4350B20
:10023300FE123EE1E4FCFD90081E1218BC9008205B
:10024300E0FEA3E04E7012E50C2424FFE4350BFE20
:10025300123E6E90081E1218BCE50C2413FFE43501
:100263000BFE123EE1E4FCFD9008491218BC900815
:100273004BE0FEA3E04E7012E50C2420FFE4350BA7
:10028300FE123E6E9008491218BCE50C2411FFE4DF
:10029300350BFE123EE1900800E033333354F8147B
:1002A3007C002FFFEC3EFEE51224FBFDEFC8EDC8FA
:1002B300088005CEC313CE13D8F9FFE4FCFD9008E4
:1002C300451218BCE50C240EFFE4350BFE123EE18B
:1002D300E4FCFD90083A1218BC900848E0FF7E0049
:1002E30090083CE0FCA3E02FFFEE3CFEE4FCFD9015
:1002F300081EE0F8A3E0F9A3E0FAA3E02FF511EA62
:100303003EF510ED39F50FEC38F50EE50C2410F53C
:1003130082E4350BF583E090081EB4021FE0FCA3D2
:10032300E0FDA3E0FEA3E02511F511EE3510F51075
:10033300ED350FF50FEC350EF50E80071218E100C1
:1003430000000090080DE0FCA3E0FDA3E0FEA3E0A5
:100353002511FFEE3510FEED350FFDEC350EFC904B
:10036300081A1218BC900849E0FCA3E0FDA3E0FEC4
:10037300A3E0C39511FFEE9510FEED950FFDEC95EF
:100383000EFC90080CE0F9F812183C9008081218BB
:10039300BCE47FF57EFFFDFC900808E0F8A3E0F9DC
:1003A300A3E0FAA3E0FBC312182B5023E490081632
:1003B300F0A3F090080AE0FEA3E0C394F5EE940FD7
:1003C30090083950057401F080317402F0802CE5F7
:1003D3000C2430FFE4350BFE123EE1900816EEF0DC
:1003E300A3EFF0E50C242CFFE4350BFE123E6E90D8
:1003F30008451218BC9008397403F090083CE0FEDD
:10040300A3E04E6057900845E0FCA3E0FDA3E0FEA7
:10041300A3E0FFEC4D4E4F6043E50C2410F582E45E
:10042300350BF583E06401601490081EE0FCA3E043
:10043300FDA3E0FEA3E0FFEC4D4E4F601FE50C244F
:100443000BF582E4350BF583E07011E50C240CF514
:1004530082E4350BF583E0C39402500CE509700583
:1004630075090101437FA32290083AE0FCA3E0FD54
:10047300A3E0FEA3E0FF90080DE0F8A3E0F9A3E0FA
:10048300FAA3E0FBEF2BFFEE3AFEED39FDEC38FC6F
:0E04930090083A1218BC7D107F05123C84229E
:10302600900822E0FCA3E0FDA3E0FEA3E0FF9008E9
:103036000D1218BC12385BEF60012290081EE0FCEE
:10304600A3E0FDA3E0FEA3E0FFEC4D4E4F607690BB
:10305600080DE0FCA3E0FDA3E0FEA3E0FF90081E40
:10306600E0F8A3E0F9A3E0FAA3E0FBEF2BFFEE3ACA
:10307600FEED39FDEC38FC90080D1218BC900806E0
:10308600E0FCA3E0FD7F011207438F0D90080DE0E1
:10309600FCA3E0FDA3E0FEA3E0FF90081EE0F8A37A
:1030A600E0F9A3E0FAA3E0FBC3EF9BFFEE9AFEED87
:1030B60099FDEC98FC90080D1218BCE50D600612FF
:0A30C6003E01AF0D22C20B7F002275
:1034CC00122252EF600564B1600122EF6011900886
:1034DC002A1218E100000000122252EF60012212A1
:1034EC003026EF60012290082AE0FCA3E0FDA3E067
:1034FC00FEA3E0FF9008111218BC12316CEF6001B2
:10350C0022900819E0250CF509900818E0350BF508
:10351C0008F583E509241CF582E43583F58312183C
:10352C00E101000000900811E0FCA3E0FDA3E0FE27
:0A353C00A3E0FF123F0B12344C22F3
:083546007FFF7EFF7DFF7CFF8B
:10354E008F118E108D0F8C0E900816E0FCA3E0FDEF
:10355E004C7002FF22CFEDCFCEECCEE4FCFD9008F6
:10356E0033E0F8A3E0F9A3E0FAA3E02FFFEA3EFE72
:10357E00ED39FDEC38FC12317AEF600122E50C24B6
:10358E00E8FFE50B3401FE123E6EEF2511FFEE351E
:10359E0010FEED350FFDEC350EFC123F0BE50C2445
:1035AE00E8F582E50B3401F5831218BC123478224B
:10396200C209E50AC39414404A12316CEF60012285
:10397200900819E0250CF509900818E0350BF508B8
:10398200F583E509240BF582E43583F583E020E431
:103992002290082FE0FCA3E0FDA3E0FEA3E0FF12CB
:1039A2003F0BE509241CF582E43508F5831218BCA7
:0639B2000234787F0022C0
:1035BE00AF0AEFC3941250037FB422EFB4124690B9
:1035CE000839E06403603E90080CE0FF7401C8EF18
:1035DE00C8088002C333D8FC900801F090081AE0A6
:1035EE00F8A3E0F9A3E0FAA3E0FB900848E0FFE4BB
:1035FE00FCFDFEEB2FFFEE3AFEED39FDEC38FC90B4
:10360E00081A1218BCAF0AEFD394134009EFB41482
:10361E00077822E67002C209300907123962EF609C
:06362E000122123C802283
:102C4000E50AC394135007120800EF600122123CFA
:102C500080EF60012212316CEF600122900818E0D1
:102C6000FEA3E0250CF582E50B3EF58374E5F0123A
:102C70003478EF600122900811E0F50EA3E0F50F23
:102C8000A3E0F510A3E0F511E50E450F4510451141
:102C90007002A115900811E0FCA3E0FDA3E0FEA3E3
:102CA000E024FFFFEE34FFFEED34FFFDEC34FFFCCB
:102CB0009008111218BC90082A1218E100000000B8
:102CC000900802E50EF0A3E50FF0A3E510F0A3E5F0
:102CD00011F07F011213C3EF60012290082AE0FC7B
:102CE000A3E0FDA3E0FEA3E02401FFE43EFEE43DFB
:102CF000FDE43CFC90082A1218BC300CC3123026AC
:102D0000EF60012290082AE0FCA3E0FDA3E0FEA30F
:082D1000E0FF02354E7F0022B6
:101A9900120800900815EFF07009122C40EF70023F
:101AA900810222900815E0FF64426001229008003B
:101AB900E0FEC3900819E09400900818E09E5002D7
:101AC9008102900811E0700EA3E0700AA3E070068D
:101AD900A3E0700261A61213ADEF600122200C028F
:101AE9008102900811E0FCA3E0FDA3E0FEA3E0FF62
:101AF90090082A1218BC123DEAEF600122900811E1
:101B0900E0FCA3E0FDA3E0FEA3E0FF9008021218A9
:101B1900BC7F021213C3EF600122123026EF60016D
:101B290022AF0CAE0B900800E0FDED6012E4FC8FD3
:101B3900828E83E4F00FBF00010EDCF31D80EBE41D
:101B4900900815F01238B3E4900818F0A3F0900843
:101B59000DE0FCA3E0FDA3E0FEA3E0FF9008401226
:101B690018BC900801E0F50EE50E602A123478EFF2
:101B790060012290080DE0FCA3E0FDA3E0FEA3E0D4
:101B89002401FFE43EFEE43DFDE43CFC90080D1217
:101B990018BC150E80D2123546EF605D22900848B8
:101BA900E0900815F090084074FF12187D12317A00
:101BB900EF600122E4900818F0A3F0900800E0FE1D
:101BC900900818E0FCA3E0FDC39400EC9E501FE5CB
:101BD9000C2DF582E50B3CF583E064E5601B90086C
:101BE90019E02420F0900818E03400F080CD900826
:101BF90015E014F070AF7FB222900811E0FCA3E069
:101C0900FDA3E0FEA3E0FF90082A1218BCE5B15439
:101C1900D064C060037F1122123DEAEF60012212F5
:101C29003026EF60012290082AE0FCA3E0FDA3E042
:101C3900FEA3E0FF9008111218BC123546EF6001AF
:101C49002212316CEF600122900819E0250CF50988
:101C5900900818E0350BF508E4FFEFC3940B500426
:101C69007E2080027E00E5092FF582E43508F583A0
:101C7900EEF00FEFB420E3E5092418F582E4350806
:101C8900F5837421F0A37430F0E509241CF582E48E
:101C99003508F5837401F0E4FFEFC3940B503190DC
:101CA9000844E0F8E6FE6028EEB42E087F089008A4
:101CB90044E004F0900844E0F8E6FEE5092FF582D7
:101CC900E43508F583EEF00F900844E004F080C98C
:101CD900900811E0FCA3E0FDA3E0FEA3E0FF123FA2
:101CE9000B12344CEF600122900811E0FCA3E0FDD7
:101CF900A3E0FEA3E0FF90082A1218BC90082F1257
:101D090018E1000000009008491218E100000000E5
:0D1D1900E4900815F07D147F10123C842228
:1004A100D209900800E0FE90080CE0FDE4C8EDC818
:1004B100088005C333CE33CED8F924FFFFEE34FFD5
:1004C100FEE4FCFD90082FE0F8A3E0F9A3E0FAA315
:1004D100E02FFFEA3EFEED39FDEC38FC90080CE020
:1004E1002512F9F812183C90087F1218BC9008499F
:1004F100E0FCA3E0FDA3E0FEA3E0FFC8E9C81218F9
:100501003C9008021218BC900802E0FCA3E0FDA395
:10051100E0FEA3E0FF90087FE0F8A3E0F9A3E0FA92
:10052100A3E0FBD312182B402D90087FE0FCA3E041
:10053100FDA3E0FEA3E0FF900802E0F8A3E0F9A329
:10054100E0FAA3E0FBEF9BFFEE9AFEED99FDEC983C
:10055100FC90087F8011900811E0FCA3E0FDA3E06E
:10056100FEA3E0FF90082A1218BC900811E0702940
:10057100A3E07025A3E07021A3E0701D90082FE097
:10058100FCA3E0FDA3E0FEA3E0FFEC4D4E4F7002A3
:10059100FF221234CCEF601F2290082FE0FCA3E071
:1005A100FDA3E0FEA3E0FFEC4D4E4F700A90087FE3
:1005B1001218E10000000190082AE0FCA3E0FDA36D
:1005C100E0FEA3E0FF78221218B090087FE0FCA3C0
:1005D100E0FDA3E0FEA3E024FFFFEE34FFFEED34D7
:1005E100FFFDEC34FFFC90087F1218BC90082AE054
:1005F100FCA3E0FDA3E0FEA3E0FF9008021218BCFB
:1006010078261218B0E4FF1213C3EF600122200C08
:1006110002C1A390087FE0700CA3E07008A3E07012
:1006210004A3E060067E007F0180047E007F00EF6E
:100631004E700E782212186290082A1218BC7F00A0
:100641002290087FE0FCA3E0FDA3E0FEA3E0FF12FF
:10065100181D12354EEF60012290082AE0FCA3E03C
:10066100FDA3E0FEA3E0FF78261218B0123DEAEFE9
:1006710060012278261218629008021218BC7F02CB
:100681001213C3EF60012290087F74FF12187DECF2
:100691004D4E4F70C4782212186290082A1218BC6D
:1006A100E13F90087FE06002A1CBA3E06002A1CB13
:1006B100A3E06002A1CBA3E06002A1CB78261218CF
:1006C100628F118E108D0F8C0E900802E50EF0A333
:1006D100E50FF0A3E510F0A3E511F07F011213C3BC
:1006E100EF60012290087FE0FCA3E0FDA3E0FEA300
:1006F100E02401FFE43EFEE43DFDE43CFC90087F84
:100701001218BC300CC390087FE0FCA3E0FDA3E00D
:10071100FEA3E0FF12354EEF600122900811E0FCCC
:10072100A3E0FDA3E0FEA3E0FF90082A1218BC900D
:1007310008491218E100000000E4900815F0123099
:0207410026226E
:10293C00E50AC3941350037FB42212316CEF60018B
:10294C0022C20E900819E0250CF509900818E03504
:10295C000BF508782AE6FFE509240BF582E4350827
:10296C00F583E0F6EFF4600FE509240BF582E4350E
:10297C0008F583EFF0D20E7928E7F50F7829E6F504
:10298C000EE5092416FFE43508FE123EE17828EE28
:10299C00F608EFF6E50FF47003E50EF46014E509A4
:1029AC002416F582E43508F583E50EF0A3E50FF067
:1029BC00D20E7926E7F50F7827E6F50EE5092418EF
:1029CC00FFE43508FE123EE17826EEF608EFF6E558
:1029DC000FF47003E50EF46014E5092418F582E495
:1029EC003508F583E50EF0A3E50FF0D20E78221230
:1029FC0018628F118E108D0F8C0EE509241CFFE4CC
:102A0C003508FE123E6E78221218B0E50E550F55A1
:102A1C00105511F46023AF11AE10AD0FAC0E900831
:102A2C002F1218BC123F0BE509241CF582E4350863
:102A3C00F5831218BCD20EC209300E030234787F13
:022A4C00002266
:103E3D00E4FF74222FF876FF0FEFB40AF512293C38
:013E4D002252
:103A0700E50A641460037FB422900811E0FCA3E088
:103A1700FDA3E0FEA3E0FF90082A1218BC90084916
:103A27001218E100000000900811E0700CA3E0708C
:103A370008A3E07004A3E06007E4900815F080068F
:0E3A470090081574FFF07D157F14123C842248
:10363400E50A64156007123A07EF60012290084911
:10364400E0FCA3E0FDA3E0FEA3E0FF78261218B09F
:1036540078221218629008491218BC90082FE0F8DA
:10366400A3E0F9A3E0FAA3E0FBC312182B501490D3
:10367400082FE0FCA3E0FDA3E0FEA3E0FF900849CF
:103684001218BC900849E0FCA3E0FDA3E0FEA3E00F
:0D369400FF123D0078221218B0122B4D22BB
:101D2600E50A64156007123A07EF6001227822E699
:101D3600FF08E67826CFF608EFF6E47822F608F6EE
:101D4600900815E0B4FF037F00227827E618467056
:101D560002E19D900849E0F8A3E0F9A3E0FAA3E0C8
:101D6600FB90082FE0FCA3E0FDA3E0FEA3E0C39BED
:101D7600F511EE9AF510ED99F50FEC98F50EE50EC6
:101D8600450F451045117002E19DE50EF47002E124
:101D96009D1238B3E50E450F600674FFF510F51178
:101DA600D3E511782796E51018964007E6F5100852
:101DB600E6F511900800E0FDFEC3E5119400E5107C
:101DC6009E5002C19390084CE06002C193ED14FF4F
:101DD60090084BE05F6002C193E510FFE51224F81E
:101DE600FEEFC8EEC8088002C313D8FCFF751000CA
:101DF6008F11900815E0FF900801E0C39FFFAE1118
:101E0600EED39F40057510008F11AF117925E77845
:101E16002326FD19E71836FC122F71EF600122AF59
:101E260011900815E02FF0AF11E51224F8FEEFC867
:101E3600EEC8088002C333D8FC751100F51090086F
:101E460049E0F8A3E0F9A3E0FAA3E0FBAE10AF1176
:101E5600E4FCFDEB2FFFEA3EFEED39FDEC38FC908D
:101E660008491218BCC37827E69511F618E69510AE
:101E7600F67823E51126F618E51036F6900801E007
:101E8600FF900815E0C39F5002A150E15A90080048
:101E9600E0FD24FFFFEFFE90084BE0FAA3E0FBEE27
:101EA6005AFAEDFEC3E49BFFEE9AFED3E5119FE5D9
:101EB600109E40048E108F11123180EF6001229027
:101EC6000800E024FFFFEFFE90084BE0FCA3E0FDD6
:101ED600EE5CFEED250CFFEE350BFE7925E778234B
:101EE60026FD19E71836FCAB11AA10123CA3900880
:101EF60049E0F8A3E0F9A3E0FAA3E0FBAE10AF11C6
:101F0600E4FCFDEB2FFFEA3EFEED39FDEC38FC90DC
:101F160008491218BCC37827E69511F618E69510FD
:101F2600F67823E51126F618E51036F690084CE00B
:101F36006002A150900800E014FF90084BE05F603B
:101F460002A150900801E0FF900815E004F0C39F3D
:101F56005002A15090082AE0FCA3E0FDA3E0FEA3F6
:101F6600E0FF9008021218BCE4FF1213C3EF6001F1
:101F760022300C1C90081574FFF0900849E0FCA371
:101F8600E0FDA3E0FEA3E0FF90082F1218BC800737
:0A1F9600E4900815F0A1507F00222E
:10100000E50A64156007123A07EF6001227822E6CC
:10101000FE08E6FF7826EEF6FE08EFF64E70063084
:101020000903023962E47822F608F67827E61846C2
:10103000700261A0900815E0F4600201DB900811D5
:10104000E0700CA3E07008A3E07004A3E0605DE52D
:101050000AB4120B900839E0640360037FB1229058
:10106000082AE0FCA3E0FDA3E0FEA3E0FF9008490E
:101070001218BC123DEAEF600122900849E0FCA37F
:10108000E0FDA3E0FEA3E0FF9008021218BC7F027F
:101090001213C3EF600122900806E0650B7004A3F1
:1010A000E0650C700E123026EF6008221234CCEF8F
:1010B0006001227FFF7EFF7DFF7CFF12354EEF60D7
:1010C000012290082FE0FCA3E0FDA3E0FEA3E0FFD7
:1010D0009008491218BCE4900815F01238B3900833
:1010E00000E024FFFFEFFE90084BE0FCA3E0FDEEE4
:1010F0005CFC900815E0FF900801E0C39FFF7E00B4
:10110000E51224F8FBEFC8EBC8088005C333CE33E3
:10111000CED8F9FEC3E49DF50FEE9CF50ED3E50F96
:10112000782796E50E18964007E6F50E08E6F50FC7
:10113000900800E0FDFEC3E50F9400E50E9E50020E
:10114000412A90084CE06002412AED14FF90084BC0
:10115000E05F6002412AE50EFFE51224F8FEEFC8C9
:10116000EEC8088002C313D8FCFF750E008F0FAFC6
:101170000F7925E7782326FD19E71836FC12074377
:10118000EF600122AF0F900815E02FF0AF0FE512CE
:1011900024F8FEEFC8EEC8088002C333D8FC750FF0
:1011A00000F50E900849E0F8A3E0F9A3E0FAA3E007
:1011B000FBAE0EAF0FE4FCFDEB2FFFEA3EFEED3978
:1011C000FDEC38FC9008491218BCC37827E6950F4F
:1011D000F618E6950EF67823E50F26F618E50E3696
:1011E000F6900849E0FCA3E0FDA3E0FEA3E0FF9039
:1011F000082FE0F8A3E0F9A3E0FAA3E0FBC312187C
:101200002B5016900849E0FCA3E0FDA3E0FEA3E00C
:10121000FF90082F1218BCD209900801E0FF900837
:1012200015E0C39F5002012B6171900800E0FD247E
:10123000FFFFEFFE90084BE0FAA3E0FBEE5AFAED59
:10124000FEC3E49BFFEE9AFED3E50F9FE50E9E40A2
:10125000048E0E8F0F90084CE0702F900800E01461
:10126000FF90084BE05F7022900849E0FCA3E0FD8E
:10127000A3E0FEA3E0FF90082FE0F8A3E0F9A3E0CD
:10128000FAA3E0FBD312182B4007123180EF600164
:10129000227925E7782326FF19E71836FEEEC0E00D
:1012A000EFC0E0900800E024FFFFEFFE90084BE065
:1012B000FCA3E0FDEE5CFEED250CFDEE350BFCD055
:1012C000E0FFD0E0FEAB0FAA0E123CA3900849E06D
:1012D000F8A3E0F9A3E0FAA3E0FBAE0EAF0FE4FC45
:1012E000FDEB2FFFEA3EFEED39FDEC38FC9008499E
:1012F0001218BCC37827E6950FF618E6950EF67817
:1013000023E50F26F618E50E36F6123478EF600165
:1013100022900849E0FCA3E0FDA3E0FEA3E0FF90DB
:10132000082FE0F8A3E0F9A3E0FAA3E0FBC312184A
:101330002B5016900849E0FCA3E0FDA3E0FEA3E0DB
:10134000FF90082F1218BCD20990084CE0600201EF
:101350002B900800E014FF90084BE05F6002012B27
:10136000900801E0FF900815E004F0C39F500201CF
:101370002B90082AE0FCA3E0FDA3E0FEA3E0FF9091
:1013800008021218BCE4FF1213C3EF600122300CF4
:101390000890081574FFF0012BE4900815F0012B5C
:0D13A000300B07123026EF6001227F002283
:103E6E008F828E83E0FFA3E0FEA3E0FDA3E0FC22A1
:0A3EE1008F828E83E0FFA3E0FE2233
:073F0B00EFCCFFEECDFE221A
:103D0000C3E4CC13CD13CE13FFE51224F7600DF8F6
:0D3D1000C3ED13FDEE13FEEF13FFD8F422F8
:103D1D00C3E4CF33CE33CD33FCE51224F7600DF879
:0D3D2D00C3EE33FEED33FDEC33FCD8F42281
:103CA30005A28D828C8315A28F828E837F00EA60AA
:103CB30007E0A3A5DFFBDAF9EB6005E0A3A5DBFBD7
:013CC30022DE
:03000000023EC1FC
:0C3EC100787FE4F6D8FD758141022D18D1
:10172D00F8BB010DE58229F582E5833AF583E8F0F2
:10173D00225006E92582C8F622BBFE05E92582C89E
:02174D00F22286
:10174F0075F008758200EF2FFFEE33FECD33CDCC51
:10175F0033CCC58233C5829BED9AEC99E5829840D4
:10176F000CF582EE9BFEED9AFDEC99FC0FD5F0D6B1
:10177F00E4CEFBE4CDFAE4CCF9A88222B800C1B9DB
:10178F000059BA002DEC8BF084CFCECDFCE5F0CB19
:10179F00F97818EF2FFFEE33FEED33FDEC33FCEB52
:1017AF0033FB10D703994004EB99FB0FD8E5E4F90D
:1017BF00FA227818EF2FFFEE33FEED33FDEC33FCFA
:1017CF00C933C910D7059BE99A4007EC9BFCE99AEE
:1017DF00F90FD8E0E4C9FAE4CCFB2275F010EF2F33
:1017EF00FFEE33FEED33FDCC33CCC833C810D70733
:1017FF009BEC9AE899400AED9BFDEC9AFCE899F86E
:0E180F000FD5F0DAE4CDFBE4CCFAE4C8F92200
:0E181D00C3E49FFFE49EFEE49DFDE49CFC22DC
:10182B00EB9FF5F0EA9E42F0E99D42F0E89C45F013
:01183B00228A
:10183C00E8600FECC313FCED13FDEE13FEEF13FF8A
:03184C00D8F122AE
:10184F00E8600FEFC333FFEE33FEED33FDEC33FCF7
:03185F00D8F1229B
:0C186200E6FC08E6FD08E6FE08E6FF22B2
:0D186E00E6FB08E6F908E6FA08E6CBF822EA
:10187B007401FF3395E0FEFDFCA3A3A3E02FFFF063
:10188B00E582158270021583E03EFEF0E58215823B
:10189B0070021583E03DFDF0E58215827002158321
:0518AB00E03CFCF0220E
:0C18B000ECF608EDF608EEF608EFF62264
:0C18BC00ECF0A3EDF0A3EEF0A3EFF0229F
:1018C800D083D082E493F608740193F608740293E7
:0918D800F608740393F67404731E
:1018E100A8828583F0D083D0821218F81218F812DA
:1018F10018F81218F8E473E493A3C583C5F0C583FF
:10190100C8C582C8F0A3C583C5F0C583C8C582C850
:0119110022B3
:100C9B00E5132456F582E43408F583E0051322901E
:100CAB000853300703900856E475F001121A5302EB
:100CBB0019FB2000E97F2ED2008018EF540F2490EF
:100CCB00D43440D4FF30040BEF24BFB41A005003CC
:100CDB002461FFE514600215140517E51770020572
:100CEB001630070E900853E475F001121A53EF02F9
:100CFB001A41023C117403D2078003E4C207F513B7
:100D0B00900853121A6AE4F514F516F517E51460FA
:100D1B00077F20120CDE80F57515FFC201C200C2E1
:100D2B0002C203C205C206C208120CAAFF700D3024
:100D3B0007057F00120CEFAF17AE1622B4255FC26A
:100D4B00D5C204120CAAFF24D0B40A00501A75F0B5
:100D5B000A781430D50508B6FF0106C6A426F6207E
:100D6B00D5047002D20380D924CFB41A00EF5004FB
:100D7B00C2E5D204020EF0D20180C6D20080C0D2EE
:100D8B000280BCD2D580BAD20580B47F20120CDE93
:100D9B002002077401B5140040F1120C9BFF120CDA
:100DAB00DE020D18D208D2068095120C9BFB120C9A
:100DBB009BFA120C9BF94A4B700679C17A0F7BFF99
:100DCB0020022EE514602A7E008E82758300121A93
:100DDB001460060EEE651570F0C2D5EBC0E0EAC0EC
:100DEB00E0E9C0E0EE120F37D0E0F9D0E0FAD0E046
:100DFB00FB1219FBFF60AAEBC0E0EAC0E0E9C0E020
:100E0B00120CDED0E02401F9D0E03400FAD0E0FB84
:100E1B00E5150460DCD515D980877BFF7A0F793314
:100E2B00D202809C791080027908C206C208800821
:100E3B00D2D5790A8004790AC2D5E515047002F57A
:100E4B0015E4FAFDFEFF120C9BFC7B08200113122C
:100E5B000C9BFD7B1030000A120C9BFE120C9BFFAF
:100E6B007B20EC3382D592D55013C3E43000069F20
:100E7B00FFE49EFEE42001039DFDE49CFCE4CBF823
:100E8B00C201EC700CCFCECDCCE824F8F870F38017
:100E9B0017C3EF33FFEE33FEED33FDEC33FCEB33D7
:100EAB00FB994002FB0FD8E9EB300105F8D0E0C409
:100EBB0048B201C0E00AEC4D4E4F78207B0070C267
:100ECB00EAB5150040BCC0E0120F39D0F0D0E020DD
:100EDB000104C4C0E0C4B201C0F0120CC7D0F0D5FD
:100EEB00F0EB020D18121A730DB5530E2F580D8619
:100EFB004C0D82420E334F0E3B440E3B490D9B4330
:080F0B000E41550E25460E258E
:100F1300450E25470FE1500D8A2D0D8E2E0DB12B59
:100F23000D92230DAF200FCA2A0D4A4800000DA9C8
:100F33003F3F3F00790AA2D5200314300509B910B9
:100F4300020404B9080104A2D520060250010420BA
:100F530002689202B514005034C0E07F20300319B8
:100F63007F30A20272067205500F120F90C202C2A6
:100F730006C205C2087F30800F300503E9C0E012C6
:100F83000CDE300503D0E0F9D0E0B514CC30051702
:100F93007F30B9100C120CDE7F583004077F788045
:100FA30003B90803120CDE3002057F2D020CDE7F2D
:100FB300202008F87F2B2006F322920280CF286E90
:100FC300756C6C2900D201120C9B3001F8C20178B8
:100FD3001430D50108F6020D4A2D50434958120C1E
:100FE3009B2403B405004001E4900FDC93120CCF63
:0D0FF300743A120CCFD203751404020E2FB5
:10191200E709F60870FA8046E709F20870FA803E95
:1019220088828C83E709F0A370FA807EE309F608C7
:1019320070FA8076E309F20870FA806E88828C83EE
:10194200E309F0A370FA806289828A83E0A3F60831
:1019520070FA805689828A83E0A3F20870FA804A7C
:1019620080D280FA80C680D4806580F28031801077
:1019720080A680EA809A80A880DA80E280CA8031DC
:1019820089828A83ECFAE493A3C8C582C8CCC58352
:10199200CCF0A3C8C582C8CCC583CC70E9800D89C0
:1019A200828A83E493A3F60870F9ECFAA9F0EDFBBE
:1019B2002289828A83ECFAE0A3C8C582C8CCC58397
:1019C200CCF0A3C8C582C8CCC583CC70EA80DD89BF
:1019D200828A83E493A3F20870F980CE88F0ED2422
:1019E20002B4040050C4F582EB2402B4040050BADD
:0919F2002323458223901962733E
:1019FB00BB010689828A83E0225002E722BBFE02EA
:091A0B00E32289828A83E493221C
:101A1400BB010CE58229F582E5833AF583E0225087
:101A240006E92582F8E622BBFE06E92582F8E222D1
:0D1A3400E58229F582E5833AF583E49322EB
:101A4100BB010689828A83F0225002F722BBFE0184
:021A5100F3227E
:101A5300F8E0FBA3A3E0F925F0F0E582158270021C
:071A63001583E0FA38F022C0
:091A6A00EBF0A3EAF0A3E9F0227D
:101A7300D083D082F8E4937012740193700DA3A302
:101A830093F8740193F5828883E473740293686016
:061A9300EFA3A3A380DF16
:103C1100EFB40A07740D123C1C740A309811A8996C
:103C2100B8130CC2983098FDA899C298B811F63013
:073C310099FDC299F59922EB
:00000001FF
