:03000000020006F5
:03005F0002000399
:030003000200C92F
:1000620010980280FBAE997F008E828F8322AF832D
:10007200E582900600F0EFA3F010990280FB900653
:1000820000E0FEA3E0FF8E998E828F83220200623F
:10009200AF83E582900602F0EFA3F0900602E0FE45
:1000A200A3E0FF8E828F830200707CC07DD47E012C
:1000B2007F00001CBCFF091DBDFF051EBEFF011F06
:1000C200EC4D4E4F70EC2275A15575A1AA53B3E0C9
:1000D20043B30675B2D875A1FF7CC07DD47E017F83
:1000E20000001CBCFF091DBDFF051EBEFF011FEC69
:1000F2004D4E4F70EC43C60143C40843C50C43CE7A
:1001020010C29FD29EC29DD29C438780740F558994
:100112004420F58943C9A0758DE6D28ED299E4C0F8
:10012200E074C2C0E07401C0E0E4C0E07436C0E034
:10013200740CC0E07480C0E0741DC0E0740CC0E0B8
:100142007480C0E01201BBE58124F6F5817CC07D9C
:10015200D47E017F00001CBCFF091DBDFF051EBE31
:0B016200FF011FEC4D4E4F70EC80B30E
:100C1D0054657374206275696C643D25732C206274
:100C2D006175643D256C640A0031333A32313A30D6
:020C3D00350080
:06003500E478FFF6D8FD9F
:100013007900E94400601B7A00900C4A783D75A092
:1000230006E493F2A308B8000205A0D9F4DAF27546
:02003300A0FF2C
:10003B007800E84400600A790075A006E4F309D85B
:10004B00FC783DE84400600C7901900600E4F0A3D5
:04005B00D8FCD9FAFA
:10016D00C0128581127E008E83120092D01222AFB2
:10017D00F0AE83E582900605F0EEA3F0EFA3F090CC
:10018D000605E0FDA3E0FEA3E0FF900604E0FC9071
:10019D000619E4F0A3F0A3F090061CEDF0EEA3F029
:1001AD00EFA3F090061FECF090016D0202C4C01297
:1001BD00E581F51224FBFF900619E4F0A3F0A3F0FE
:1001CD00E51224FBF890061CE6F008E6A3F008E61D
:1001DD00A3F090061FEFF090016D1202C4D0122211
:1001ED00E582900615F0E0FF90060BE0C0E0A3E07D
:1001FD00C0E0A3E0C0E0120208800D900609E0C047
:10020D00E0A3E0C0E08F8222158115811581900653
:10021D0013E02401F0A3E03400F022E582900616ED
:10022D00F0E02430FF24C6500D74072FFF90060810
:10023D00E060034307208F820201EDE582900617EF
:10024D00F0E0FFC4540FF582C007120228D0075307
:10025D00070F8F82020228E582900618F090060E95
:10026D00E0FCA3E0FDA3E0FEA3E0FF900612E0FB9F
:10027D00751320900618E0F98B00E828F8EF235449
:10028D000148FBEC2CFCED33FDEE33FEEF33FFC3E9
:10029D00EB994007EBC399FB430401E51314FA8A6C
:1002AD001370D590060EECF0EDA3F0EEA3F0EFA3D6
:1002BD00F0900612EBF022AF83E582900620F0EF6E
:1002CD00A3F0900620E0FEA3E0FF900609EEF0EF0C
:1002DD00A3F0900619E0FDA3E0FEA3E0FF90060B4E
:1002ED00EDF0EEA3F0EFA3F0900613E4F0A3F09081
:1002FD00061CE0FDA3E0FEA3E0FF8D828E838FF050
:10030D00120BFDFC90061C74012DF0E43EA3F0EFE2
:10031D00A3F0EC7003020BB9BC25028003020BB1F4
:10032D00900622E4F0900623F0900624F090062526
:10033D00F0900626F0900627F0900628F0900629FA
:10034D00F090062BF090062CF0A3F090062E14F0F2
:10035D00A3F090061CE0FDA3E0FEA3E0FF8D828ECE
:10036D00838FF0120BFDFBA3AD82AE8390061CEDC7
:10037D00F0EEA3F0EFA3F0900632EBF0BB25088B67
:10038D00821201ED0202FCBB3000500302045DEB52
:10039D0024C6500302045D90062EE0F508A3E0F597
:1003AD000974FFB50863B50960C005C006C00790A4
:1003BD00062CE0FAA3E0FF90063BEAF0EFA3F090E5
:1003CD00000AC005C003120BDDAE82AF83D003D08F
:1003DD00058B027D00EA2EFEED3FFFEE24D0FEEFF1
:1003ED0034FFFF90062CEEF0EFA3F0D007D006D02F
:1003FD000590062CE0F5F0A3E045F0600302036ADA
:10040D009006237401F002036AC005C006C0079070
:10041D00063BE508F0E509A3F090000AC006C0050B
:10042D00C003120BDDAA82AF83D003D005D0067EA8
:10043D0000EB2AFAEE3FFFEA24D0FAEF34FFFF90EB
:10044D00062EEAF0EFA3F0D007D006D00502036A1E
:10045D00900632E0FBBB2E2FC005C006C0079006EC
:10046D002EE0FAA3E0FFBAFF05BFFF028009D00717
:10047D00D006D00502036AD007D006D00590062E0F
:10048D00E4F0A3F002036ABB61004014EB24854045
:10049D000F90063274DF5BF09006087401F0800552
:1004AD00900608E4F0900632E0FBBB20028075BB9D
:1004BD002B028067BB2D028059BB4202806FBB436C
:1004CD0002807CBB4403020754BB460302077ABB80
:1004DD00480302036ABB4903020754BB4A030203E4
:1004ED006ABB4C028050BB4F03020762BB50030234
:1004FD0006C2BB53028077BB540302036ABB55038C
:10050D0002076ABB5803020772BB5A0302036A0251
:10051D0007829006227401F002036A90062474018A
:10052D00F002036A9006257401F002036A90062713
:10053D007401F002036A9006287401F002036A90B8
:10054D000627E0600E90061FE014F9F0900632E7E2
:10055D00F0800F90061FE024FEFFF08F0190063211
:10056D00E7F0900632E0F5821201ED020791900658
:10057D001FE024FDFFF08F01870509870609870716
:10058D00191990060EEDF0EEA3F0EFA3F08D828E0B
:10059D00838FF0120BC585820885830990062EE0A6
:1005AD00FAA3E0FDBAFF0DBDFF0A90062EE508F097
:1005BD00E509A3F0900622E0704B90062CE0FAA31B
:1005CD00E0FDC3E5089AE5099D503A90062CEAC373
:1005DD009508F0ED9509A3F090062CE0FAA3E0FD47
:1005ED008A068D071ABAFF011DEE4F601075822025
:1005FD00C005C0021201EDD002D00580E390062C9B
:10060D00EAF0EDA3F090062EE0F50BA3E0F50C90CB
:10061D00060EE0FAA3E0FDA3E0FF8A828D838FF042
:10062D00120BFDF50A603CC3E4950B7480850CF04C
:10063D0063F08095F0502C150B74FFB50B02150C63
:10064D00850A821201ED90060EE0FAA3E0FDA3E00B
:10065D00FF0ABA00010D90060EEAF0EDA3F0EFA32C
:10066D00F080AC900622E0700302079190062CE01A
:10067D00FEA3E0FFC3E5089EE5099F400302079135
:10068D0090062CEEC39508F0EF9509A3F090062C7B
:10069D00E0FEA3E0FF8E028F051EBEFF011FEA4D97
:1006AD007003020789758220C007C0061201EDD0C4
:1006BD0006D00780E090061FE024FDFDF08D018738
:1006CD000D09870E09870F191990060EE50DF0E536
:1006DD000EA3F0E50FA3F0900610E0FDBD800040E5
:1006ED00089006327443F08020BD600040089006EB
:1006FD00327450F08013BD400040089006327449AA
:10070D00F080069006327458F0900632E0FDF582C6
:10071D00C0051201ED75823A1201ED75823012019C
:10072D00ED7582781201EDD005BD4902800EBD50E8
:10073D0002800990060FE0F58212024890060EE045
:10074D00F582120248803D9006267401F090062B2A
:10075D00740AF0802F90062B7408F0802790062BDA
:10076D00740AF0801F90062B7410F08017900629E4
:10077D007401F0800F8B821201ED800890062CEE33
:10078D00F0EFA3F0900629E0607190061FE024FCC5
:10079D00FFF08F0187030987050987060987071968
:1007AD00191990060EEBF0EDA3F0EEA3F0EFA3F008
:1007BD0090060E743FF0740CA3F07480A3F09006B5
:1007CD000EE0F50DA3E0F50EA3E0F50F7401250D78
:1007DD00FAE4350EFBAF0F90060EEAF0EBA3F0EF47
:1007ED00A3F0850D82850E83850FF0120BFDFF7032
:1007FD00030202FC8F821201ED80C390062BE07084
:10080D00030202FC900627E0604790061FE014F9F2
:10081D00F087077E007D007B0090060EEFF0EEA3C3
:10082D00F0EDA3F0EBA3F0900626E060030208D4F0
:10083D0090060EE0FBA3E0A3E0A3E07D007E007F29
:10084D000090060EEBF0EDA3F0EEA3F0EFA3F08019
:10085D0076900628E0602890061FE024FCFFF08FBC
:10086D000187030987050987060987071919199053
:10087D00060EEBF0EDA3F0EEA3F0EFA3F0804890A1
:10088D00061FE024FEFFF08F01870609870719EF89
:10089D003395E0FDFB90060EEEF0EFA3F0EDA3F027
:1008AD00EBA3F0900626E0701E90060EE0FBA3E091
:1008BD00FDA3E0A3E07E007F0090060EEBF0EDA31C
:1008CD00F0EEA3F0EFA3F0900626E0604190060E47
:1008DD00E0FBA3E0FDA3E0FEA3E0FF30E72B9006D5
:1008ED000EE0FBA3E0FDA3E0FEA3E0FFC3E49BFB52
:1008FD00E49DFDE49EFEE49FFF90060EEBF0EDA35C
:10090D00F0EEA3F0EFA3F08005900626E4F090063C
:10091D002A7401F090062BE0F50B75103875110651
:10092D00E4F508F509900612E4F0850B82120264D5
:10093D0090062AE07026900612E0C4F50D8510820F
:10094D00851183E0FFE50D4207851082851183EF48
:10095D00F0151074FFB510021511800C900612E001
:10096D00FF851082851183F00508E4B5080205099D
:10097D0090062AE0B40100E433F090060EE0FAA3ED
:10098D00E0FBA3E0FEA3E0FFEA4B4E4F709790060D
:10099D0039E510F0E511A3F0900630E508F0E50912
:1009AD00A3F090062CE0F5F0A3E045F07009900659
:1009BD002C7401F0E4A3F0900623E0FFE070479063
:1009CD000622E0704185081085091190062CE0FA89
:1009DD00A3E0FBC007AF100F8F067F00C3EE9AEFA9
:1009ED009BD0075019758220C007C003C0021201A9
:1009FD00EDD002D003D0071ABAFF011B80D59006A7
:100A0D002CEAF0EBA3F0900626E0602075822DC055
:100A1D00071201EDD00790062CE024FFFDA3E03472
:100A2D00FFFE90062CEDF0EEA3F08056900630E020
:100A3D00F5F0A3E045F0604A900624E06020758251
:100A4D002BC0071201EDD00790062CE024FFFDA36B
:100A5D00E034FFFE90062CEDF0EEA3F0802490061E
:100A6D0025E0601E758220C0071201EDD0079006AB
:100A7D002CE024FFFDA3E034FFFE90062CEDF0EEFC
:100A8D00A3F0900622E07048900630E0F510A3E048
:100A9D00F51190062CE0FAA3E0FBC0078A068B0740
:100AAD001ABAFF011BC3E5109EE5119FD0075053E5
:100ABD00EF60067D307E0080047D207E008D82C03B
:100ACD0007C003C0021201EDD002D003D00780CAC7
:100ADD0090062CE0FEA3E0FF900630E0F510A3E0B9
:100AED00F511C3E5109EE5119F500F90062CEEC336
:100AFD009510F0EF9511A3F0801190062CE4F0A362
:100B0D00F0800890062CEAF0EBA3F0900639E0FE99
:100B1D00A3E0FF900630E0F510A3E0F511AA10ADAB
:100B2D0011151074FFB510021511EA4D60459006B0
:100B3D002AE0B40100E433F090062AE070140EBEF2
:100B4D0000010F8E828F83E0C4540FFD900612F0CA
:100B5D00800E8E828F83E0FD53050F900612EDF00F
:100B6D00900612E0F582C007C006120228D006D00A
:100B7D000780AA900622E070030202FC90062CE08A
:100B8D00FEA3E0FF8E038F051EBEFF011FEB4D7010
:100B9D00030202FC758220C007C0061201EDD006CB
:100BAD00D00780E08C821201ED0202FC900613E06A
:080BBD00FEA3E08E82F5832205
:0B0C3F003C4E4F20464C4F41543E00FD
:100BC500AA82AB83120BFD6003A380F8C3E5829A6A
:100BD500F582E5839BF58322AA83AB828BF0900691
:100BE5003BE0A4F8A9F08AF0E0A429F98BF0A3E092
:080BF500A429F5838882222265
:0D000600758113120C19E5826003020003DE
:100BFD0020F71430F6148883A88220F507E6A88321
:100C0D0075830022E280F7E49322E02275820022B0
:00000001FF
