:1006F80048554220302064657620696E0A004855C6
:1007080042203020646576206F75740A004855428F
:1007180020312064657620696E0A004855422031F0
:1007280020646576206F75740A00526573657420BD
:10073800726F6F7420687562202531642320706F92
:1007480072740A0044697361626C6520726F6F7419
:1007580020687562202531642320706F72742062CE
:10076800656361757365206F6620646973636F6E76
:100778006E6563740A0047657444657644657363FF
:10078800723A2000782530325820000A00476574F4
:1007980043666744657363723A20005553422D449B
:1007A80069736B2052656164790A004849443A20AC
:1007B80025303278004765744849445265706F7235
:1007C800743A20005553422D4B6579626F6172640B
:1007D8002052656164790A005553422D4D6F757337
:1007E800652052656164790A0047657448756244FA
:1007F800657363723A20004578742D48554220503D
:100808006F72745F2531642320706F776572206F73
:100818006E206572726F720A004578742D485542D1
:1008280020506F72745F2531642309636C656172AF
:1008380020636F6E6E656374696F6E206572726F88
:10084800720A0064765F636C733D253032782C69D8
:10085800665F636C73203D253032780A002530329C
:10086800782000766964207069643A2530327820EF
:10087800253032780A00414F41204D6F64650A00E7
:10088800496E6974526F6F744465762045727220A0
:100898003D20253032580A00456E756D416C6C520A
:1008A8006F6F744465760A00526F6F7448756249B9
:1008B8006E64657820253032780A00496E697420A4
:1008C80064657620404578744875622D706F72743F
:1008D8005F253164200040526F6F745F2531640AD0
:1008E8000055485F5345545550203D204765744492
:1008F800657644657363723A20253032780054680F
:1009080069732070726F6772616D20646F6E2774EF
:1009180020737570706F7274204C6576656C203228
:10092800204855420A00496E69744465764F6E48FE
:10093800756220457272203D20253032580A0045E4
:100948006E756D487562506F72740A00466F756EE9
:10095800642066756C6C20737065656420646576C8
:10096800696365206F6E20706F7274202531640A88
:1009780000466F756E64206C6F77207370656564D0
:1009880020646576696365206F6E20706F727420CD
:100998002531640A00526573657420706F72742083
:1009A800616E64207468656E207761697420696E71
:1009B8000A00446576696365206F6E20706F7274F3
:1009C800206572726F720A00446576696365206FEC
:1009D8006E20706F7274202531642072656D6F7699
:1009E80065640A00456E756D416C6C487562506FA0
:1009F80072740A00456E756D416C6C487562506F73
:100A0800727420657272203D20253032580A0053D6
:100A18007461727420404368697049443D253032DE
:100A2800580A0057616974204465766963652049EE
:100A38006E0A00456E756D416C6C526F6F7444653B
:100A48007620657272203D20253032580A00726582
:100A5800637620646174613A200073656E64206275
:100A680061636B0A007472616E736D6974206572DC
:100A7800726F7220253032780A006E6F20696E74AA
:100A880065727275707420656E64706F696E740A31
:100A98000080060001000012008006000200000429
:100AA800000005020000000000000900000000002E
:100AB80000210A000000000000010B0000000000F7
:100AC800000201000000000000A006002900000943
:100AD800008106002200004100C03300000000022F
:100AE80000403500000000000000041023273543B3
:100AF800574348005743485541525444656D6F0069
:100B0800574348204163636573736F727920546556
:100B1800737400312E3000687474703A2F2F776325
:100B2800682E636E005743484163636573736F7241
:100B38007931004034000000000400403400000116
:100B4800000C004034000002001300403400000391
:100B58000004004034000004000E0040340000058A
:0B0B6800000E00210A00000000000049
:0425F4007FC87E001E
:0E25F800EF4E600905A1EF1F70F61E80F32262
:1025DD00EFFDEEFCED4C600E7FE87E031225F8ED6D
:0725ED001D70F11C80EE22BD
:1024B700EF75F00CA42471F582E43401F583E4F0A0
:1024C700EF75F00CA42472F582E43401F583E4F08F
:0C24D700EF64017003F5E522E4F5E42257
:101E1500E490018FF0E5DB30E328900171E0600686
:101E2500E5E454017040E4FF1224B7900171740198
:101E3500F07BFF7A0679F8120F5090018F7415F038
:101E45008024900171E0C39401748094804017E46C
:101E5500FF1224B77BFF7A077906120F5090018F86
:101E6500E070037416F0E5DB30E72890017DE06053
:101E750006E5E5540170407F011224B790017D7499
:101E850001F07BFF7A077915120F5090018F7415B9
:101E9500F0802490017DE0C3940174809480401704
:101EA5007F011224B77BFF7A077923120F50900127
:0C1EB5008FE070037416F090018FE0FFC6
:011EC10022FE
:0C261400EF547FFFE5E354804FF5E32214
:0E260600EF600753E2BF53D27F2243E240222F
:021EC200EFFE31
:101EC4007D307C759001487408F0E4FF122614EE0E
:101ED40075F00CA42472F582E43401F583E4F0EE89
:101EE40064017004F5E58003E4F5E47F011226063D
:101EF400EE64017036E5E554FB4402F5E5ED4C6013
:101F04002505A105A105A105A105A105A105A10519
:101F1400A105A1E5DB5430600653E5FD7F0122ED08
:101F24001D70DA1C80D753E5FD8034E5E454FB448E
:101F340002F5E4ED4C602505A105A105A105A10567
:101F4400A105A105A105A105A1E5DB540360065384
:101F5400E4FD7F0122ED1D70DA1C80D753E4FD12ED
:061F640025F4C2D87F0045
:011F6A002254
:10208400EF75F00CA42471F582E43401F583E0C308
:102094009401748094805011EF75F00CA42471F5B0
:1020A40082E43401F5837401F0EF64017026E5DB0A
:1020B40030E747E5E554017015E5DB30E6047F00C1
:1020C40080027F0190017FEFF0700343E50443E554
:1020D400017F0022E5DB30E321E5E454017015E5DE
:1020E400DB30E2047F0080027F01900173EFF07027
:0D20F4000343E40443E4017F00227F162231
:101FF800EFFCED6057EC75F014A42445F582E43449
:1020080001F58375F005ED121A6EE0FF122614EC47
:1020180075F014A42446F582E43401F58375F005BF
:10202800ED121A6EE0FF122606EC75F014A4244691
:10203800F582E43401F583ED75F005121A6EE0704F
:102048003143D2807F64FE1225F88026EC75F00CAF
:10205800A42472F582E43401F583E0FF122614EC1F
:1020680075F00CA42473F582E43401F583E0FF12C3
:0C2078002606EC6003D38001C3920A220C
:1025C4007FC87E0020D909EF1F70011EEF4E70F402
:0825D40030D9037F00227FFED5
:0125DC0022DC
:071B19009001B0EFF0EDF9BF
:101B2000F5D489D6E4A3F09001B0E0F5D5C2D97F11
:101B3000C87E0020D909EF1F70011EEF4E70F4E43B
:101B4000F5D520D9037FFE2220D903021BFE30DE0B
:101B5000037F0022E5D9540FFF640E7003021BE6D9
:101B6000EF640A701DEB4A7002807BC3EB94FFEABE
:101B700094FF5005EB1B70011A9001B1E014F002C4
:101B80001C019001B0E0C4540F24F7602724FC60CE
:101B900004240C706630DE037F0022EF64027002C2
:101BA000FF22EFFD640E6005ED640A70028037EFDE
:101BB000604F804330DE037F0022E9600DEF640B4D
:101BC00070047E01800F7E00800BEF640370047E42
:101BD0000180027E00EE60037F0022EFFD640E6054
:101BE00005ED640A7003EF800EEFFD64037005EDF0
:101BF000640B600DEF600A4420FF227FFE2275D83F
:101C0000FF7F0F7E001225F89001B1E004F0C3942D
:0C1C100003748094805003021B277F2087
:011C1C0022A5
:1016F00012250A9001A37401F0A37401F07497A35A
:07170000F07B017A00798003
:10170700E49001A6F0A3F09001AAEBF0A3EAF0A3FE
:10171700E9F09001A3E0F9A3E0FAA3E09001ADC9D5
:10172700F0A3EAF0A3E9F01225F49001ADE0FBA3E2
:10173700E0FAA3E0F9EA494B6004E4121A4675D7C8
:10174700087B107A27E4FD7FD0121B199001A8EFC0
:10175700F06003E0FF2275D6D075D4D075D701901D
:101767000047E0FE900046E0FDEDFF9001A6EEF099
:10177700A3EFF04E70030218E49001AAE0FBA3E088
:10178700FAA3E0F9EA494B70030218E4900040E03D
:1017970020E70302184A9001A6E07002A3E0700355
:1017A7000218441225F47B107A27ADD47F90121BC0
:1017B700199001A8EFF0E0FF600122AFD19001A6D8
:1017C700E0FCA3E0FDD39FEC94004004AFD180027E
:1017D700EDFF9001A9EFF0E0FFC39001A7E09FF0B4
:1017E7009001A6E09400F09001ADE0FBA3E0FAA31E
:1017F700E0F9EA494B6004EF121A24E4FF9001A9CB
:10180700E06F602874002FF582E43400F583E0FE72
:101817009001AAE0FBA3E0FAA3E0F9EE121A4690C2
:1018270001ABE475F001121A580F80D1AFD1EF6008
:101837000C900148E01455D1700302179DE4F5D7C9
:101847000218E49001A6E07002A3E070030218E416
:101857001225F4900148E0FFFD9001A6E0FAA3E00D
:10186700FBC39DEA940040028002EBFF8FD7E4FFA1
:10187700EF65D760289001AAE0FBA3E0FAA3E0F99F
:10188700121A0BFE74402FF582E43400F583EEF054
:101897009001ABE475F001121A580F80D37B107AD0
:1018A70027ADD67F10121B199001A8EFF0E0FF605B
:1018B7000122AFD7C39001A7E09FF09001A6E09463
:1018C70000F09001ADE0FBA3E0FAA3E0F9EA494B91
:1018D700700302184AE5D7121A2402184A1225F48F
:1018E700E5D760047F9080027F107B107A277DC048
:1018F700121B199001A8EFF06003E0FF22AFD7EFAA
:0D1907007002FF22AFD1EF7002FF227F17A8
:0119140022B0
:10250A00E4FDED6408601B8F828E83E493FC7440C3
:10251A002DF582E43400F583ECF00FBF00010E0DB7
:02252A0080E04F
:01252C00228C
:1023A7009001487408F07E0A7F9912250A9001A3CC
:1023B7007401F0A37401F074971216FFEF60012205
:1023C700900087E0900148F0900A9FE493FF900106
:0B23D70097E0C39F50037F17227F0098
:0123E20022D8
:1021ED007E0A7FA112250A9001A3E4F0A37400F0EA
:1021FD00A37408121700EF600122900AA7E493FE62
:10220D00E508C39E50037F1722900082E0F5087EFB
:10221D000A7FA112250A900046E508F09001A3E47B
:10222D00F0A37400F0A37408121700EF6001229060
:10223D000AA7E493FFE508C39F400A900082E0FFE0
:0A224D00E5089F50037F17227F0071
:012257002264
:0523E300900197EFF0EE
:1023E8007E0A7FA912250A900197E0900042F0909A
:1023F80001A3E4F0A3F0A3F0FBFAF9121707EF60CA
:102408000122900197E0FF1226147F0A7E00122510
:03241800DD7F0065
:01241B00229E
:05252D00900192E0FFA7
:10253200EFFB7E0A7FB112250AEB900042F0900178
:0D254200A3E4F0A3F0A3F0FBFAF9021707E1
:10256D00EFFB7E0A7FB912250AEB900044F0900133
:0D257D00A3E4F0A3F0A3F0FBFAF9021707A6
:10258A00EFFB7E0A7FC112250AEB900042F0900110
:0D259A00A3E4F0A3F0A3F0FBFAF902170789
:1025A700EFFB7E0A7FC912250AEB900044F09001E9
:0D25B700A3E4F0A3F0A3F0FBFAF90217076C
:102101007498F87401FC7401FD7BFF7A0B796B7E86
:10211100007F081219E5E4FFEF6408601B74982F33
:10212100F582E43401F583E0FE74402FF582E43456
:1021310000F583EEF00F80E09001A37401F0A37429
:1021410001F0A374971217007E0A7FD912250A9015
:1021510001A37401F0A37401F0A37497121700EFA7
:10216100600122900A9FE493FF900197E0C39F5082
:06217100037F17227F002E
:012177002245
:102451007E0A7FD112250A9001A3E4F0A37400F053
:10246100A37408F07B017A007940121707EF60012D
:1024710022900AD7E493FFE508C39F50037F1722F8
:022481007F00DA
:012483002236
:0C230F007F017E001225DD9001C7E0FF79
:10231B0090004074A3F0A3E4F0A3F0A3F0A3EFF0BC
:10232B00A3E4F0A37404F0A3E4F09001A3F0A3746E
:10233B0000F0A37408F07B017A007940121707EFC5
:10234B00600122C3E50894047480948050037F17C6
:03235B00227F00DE
:01235E00225C
:07241C009001C7E0FF7D0401
:102423009000407423F0A37403F0EDA3F0A3E4F051
:10243300A3EFF0A3E4F0A3F0A3F0F99001A3C9F094
:0E244300A3F0A3E9F07B007A007900021707EE
:052484009001C7E0FF1C
:102489009000407423F0A37401F0EDA3F0A3E4F0ED
:10249900A3EFF0A3E4F0A3F0A3F0F99001A3C9F02E
:0E24A900A3F0A3E9F07B007A00790002170788
:042258007E007F8005
:10225C00E4F9FC8F828E83A3A3E0FBECC39B504B71
:10226C00EF2CF582E43EF583A3E064057025EF2C9A
:10227C00F582E43EF583A3A3A3E054036403701337
:10228C00EF2CF582E43EF583A3A3E030E705540F71
:10229C00F98018EF2CF582E43EF583E0FDD3941021
:0D22AC00748094805005ED2CFC80A8E9FFA3
:0122B9002202
:0B1C1D00900197EEF0A3EFF0A3EDF0B4
:101C2800E4A3F0A37402F07E007F04EEC0E0EFC0EE
:101C3800E07D00900199E075F00CA42479F9740115
:101C480035F0FA7B01D0E0FFD0E0FE121A7AE4FF0B
:101C5800900197E0FCA3E0FDF5828C83A3A3E0FE4E
:101C6800EFC39E4003021D19ED2FF582E43CF58376
:101C7800A3E064057079900197A3E02FF582E43C16
:101C8800F583A3A3A3E0540364027063ED2FF582E8
:101C9800E43CF583A3A3E030E708540FFE90019AD3
:101CA8008017900197E0FCA3E02FF582E43CF583D0
:101CB800A3A3E0540FFE90019BE0FD04F09001996E
:101CC800E075F00CA42479F582E43401F583E5820B
:101CD8002DF582E43583F583EEF090019AE06402F5
:101CE800700204F090019BE0640470037403F090A8
:101CF8000197E0FCA3E02FF582E43CF583E0900136
:101D08009CF0D39410748094805006E02FFF021C3E
:031D1800587F00F1
:011D1B0022A5
:101F6B007E0A7FE11216F0EF600122900080E0C341
:101F7B0094027480948050037F4122E4900198F086
:101F8B00900198E0C39406748094805052E0FF90C7
:101F9B000AF193FBEF75F008A4243BF582E4340BB4
:101FAB00AF82FE12250AEB24F8F9E4340AFA7BFF20
:101FBB00EBC0E0EAC0E0E9C0E09001A37401F0A33C
:101FCB007401F0A37497F0D0E0F9D0E0FAD0E0FB05
:101FDB00121707EF600122900198E004F080A17EB8
:0C1FEB000A7FE91216F0EF6001227F006F
:011FF70022C7
:0500030090018FEFF0F9
:10000800E4900195F0A3F07BFF7A07793290019A8A
:100018000200AE900196E0FFC3940A748094804079
:10002800030206F2EF75F064A4FFAEF01225DDE0DE
:1000380004F090018FE0FF121EC2E4900190F0A33B
:10004800F0900190E0C3946474809480503B7F01E9
:100058007E001225DD90018FE0FF122084EF7021D1
:10006800900190F0A3E004F0900196E075F00AA4E6
:10007800FF900191E0D39FE5F06480F87480985078
:1000880008900190E004F080B8900190E060219021
:10009800018FE0FF1224B77BFF7A07794C90018F1C
:1000A800E0FF90019AE4F0A3EFF0120F5002001B5A
:1000B80090018FE0FFE4FD121FF87BFF7A07797E3D
:1000C800120F501223A7900191EFF060030206C0AF
:1000D800900190F0900A9FE493FF900190E0FEC396
:1000E8009F50257BFF7A07798C74802EF582E43443
:1000F80000F583E0FF90019AE4F0A3EFF0120F50AF
:10010800900190E004F080CC7BFF7A077993120F7E
:1001180050900089E0FE900088E07C002400FFEC0D
:100128003EFE90018FE0FD75F00CA42475F582E485
:100138003401F583EEF0A3EFF090008BE0FE900021
:100148008AE07A002400FFEA3EFEED75F00CA42454
:1001580077F582E43401F583EEF0A3EFF0900084A4
:10016800E0900193F0900AABE493FF90018FE02FA9
:10017800FF1223E3900191EFF060030206C0900A9A
:10018800AB93FF90018FE0FE2FFFEE75F00CA424D7
:1001980072F582E43401F583EFF07BFF7A077995F5
:1001A800120F501221ED900191EFF060030206C08A
:1001B800900085E0900192F0E4900190F090008228
:1001C800E0FF900190E0FEC39F50257BFF7A0779FE
:1001D8008C74802EF582E43400F583E0FF90019A58
:1001E800E4F0A3EFF0120F50900190E004F080CDFE
:1001F8007BFF7A077993120F5090008EE09001945C
:10020800F0900193E07042A3E06408703C12252D41
:10021800900191EFF060030206C090018FE0FF7536
:10022800F00CA42471F582E43401F5837403F0EF33
:1002380075F00CA42474F582E43401F5837408F095
:100248007BFF7A0779A302036D900193E0600302B4
:10025800037CA3E06403600302037C90008FE0D377
:10026800940174809480400302037C122258900108
:1002780091EFF0540FFF90018FE075F00CA42479F2
:10028800F582E43401F583EFF0900090E09001945A
:10029800F012252D900191EFF07BFF7A0779B3904A
:1002A800019AE4F0A3EFF0120F50900191E060037F
:1002B8000206C07BFF7A0779BD120F501221019008
:1002C8000191EFF07040900190F0900190E0FFC331
:1002D80094407480948050257BFF7A07798C7480D1
:1002E8002FF582E43400F583E0FF90019AE4F0A34F
:1002F800EFF0120F50900190E004F080CD7BFF7A70
:10030800077993120F5090018FE075F00CA42471B7
:10031800F582E43401F5837403F07F0A12256D90A9
:100328000194E06401701C90018FE075F00CA42426
:1003380074F582E43401F5837423F07BFF7A07793E
:10034800CC8022900194E06402702090018FE075C7
:10035800F00CA42474F582E43401F5837433F07B43
:10036800FF7A0779E0120F500206B990019174FBE9
:10037800F00206C0900193E06409600302052F12A1
:100388002258900191EFF0540FFF90018FE075F023
:100398000CA4247AF582E43401F583EFF07BFF7A2C
:1003A8000779F1120F50122451900191EFF0600378
:1003B8000206C0900190F0900040E0FF900190E0AC
:1003C800FEC39F50257BFF7A07798C74402EF582F7
:1003D800E43400F583E0FF90019AE4F0A3EFF01213
:1003E8000F50900190E004F080CD7BFF7A0779935D
:1003F800120F50900042E0FF90018FE0FE75F00C64
:10040800A42479F582E43401F583EFF0EE75F00C5D
:10041800A42479F582E43401F583E0D3940474804C
:100428009480401490018FE075F00CA42479F58233
:10043800E43401F5837404F012252D900191EFF056
:1004480060030206C090018FE0FF75F00CA42471D0
:10045800F582E43401F5837403F0EF75F00CA424FD
:1004680074F582E43401F5837409F0900190740105
:10047800F090018FE0FF75F00CA42479F582E43444
:1004880001F583E0FE900190E0D39E504DEF75F0AA
:1004980014A42444F582E43401F583C083C0829017
:1004A8000190E0FFD082D08375F005121A6EE4F057
:1004B8007D08122423900191EFF060167BFF7A07E4
:1004C80079FF900190E0FF90019AE4F0A3EFF01219
:1004D8000F50900190E004F080979001907401F023
:1004E80090018FE075F00CA42479F582E43401F5CD
:1004F80083E0FE900190E0FFD39E502812231B90CA
:100508000191EFF060167BFF7A087921900190E065
:10051800FF90019AE4F0A3EFF0120F50900190E0E1
:1005280004F080BC0206B97BFF7A08794B900193EE
:10053800E0FF90019AE4F0A3EFF0900194E0FF90BF
:10054800019CE4F0A3EFF0120F507E007F80900131
:100558008FE0FD121C1DE4900190F0900190E0FFE7
:10056800640460367BFF7A08796590018FE075F046
:100578000CA42479F582E43401F583E5822FF58211
:10058800E43583F583E0FF90019AE4F0A3EFF012DD
:100598000F50900190E004F080C17BFF7A077993B7
:1005A800120F5012252D900191EFF060030206C042
:1005B8007BFF7A08796B90018FE0FF75F00CA4241B
:1005C80075F582E43401F583E0FDA3E090019ACD4E
:1005D800F0A3EDF0EF75F00CA42477F582E4340174
:1005E800F583E0FFA3E090019CCFF0A3EFF0120F9A
:1005F8005090018FE0FF75F00CA42475F582E43467
:1006080001F583E0FCA3E064D17003EC6418704A40
:10061800EF75F00CA42477F582E43401F583E0FE4D
:10062800A3E47003EE642D70317BFF7A08797E12A3
:100638000F5090018FE0FF75F00CA42471F582E44F
:100648003401F5837403F0EF75F00CA42474F5827B
:10065800E43401F58374F0F08057121F6B90019118
:10066800EFF07054900195E0C39403748094805027
:100678000DE004F07FF47E011225DD02001B9001DD
:1006880093E0FF60028005900194E0FF90018FE005
:10069800FE75F00CA42474F582E43401F583EFF0C0
:1006A800EE75F00CA42471F582E43401F58374032B
:1006B800F07F011226061F227BFF7A0879889001B5
:1006C80091E0FF90019AE4F0A3EFF0120F5090012F
:1006D8008FE075F00CA42471F582E43401F583747D
:0F06E80002F07F0112260602001B900191E0FF35
:0106F70022E0
:1022BA007BFF7A0879A0120F50E4780EF6780EE6C2
:1022CA00FFC394027480948050387BFF7A0879B0F7
:1022DA0090019AE4F0A3EFF0120F50780EE6FF7522
:1022EA00F00CA42471F582E43401F583E0640170F2
:1022FA000C120003780DEFF66003E6FF22780E0653
:04230A0080BB7F0015
:01230E0022AC
:080B73009001BFEFF0A3EDF0CB
:100B7B007BFF7A0879C3FF90019AE4F0A3EFF012A0
:100B8B000F507BFF7A0879DE9001BFE0FF90019A4E
:100B9B00E4F0A3EFF0120F509001C0E0FD70037F63
:100BAB00FE229001BFE0FF121FF87BFF7A0879E964
:100BBB00AFD290019AE4F0A3EFF0120F501223A7DB
:100BCB009001C2EFF06003E0FF22900084E09001FF
:100BDB00C4F09001BFE004C454F0FFA3E02FFF90DA
:100BEB0001C3F01223E39001C2EFF06003E0FF2298
:100BFB009001C3E0FF9001BFE075F014A42445F50C
:100C0B0082E43401F583C083C0829001C0E0D082BE
:100C1B00D08375F005121A6EEFF07BFF7A0779958A
:100C2B00120F501221ED9001C2EFF06003E0FF2292
:100C3B00900085E09001C3F0E49001C1F090008238
:100C4B00E0FF9001C1E0FEC39F50257BFF7A07793F
:100C5B008C74802EF582E43400F583E0FF90019ACA
:100C6B00E4F0A3EFF0120F509001C1E004F080CD3F
:100C7B007BFF7A077993120F5090008EE09001C59D
:100C8B00F09001C4E07061A3E06408705B9001C355
:100C9B00E0FF1225329001C2EFF06003020E9E902E
:100CAB0001BFE0FF75F014A42444F582E43401F590
:100CBB0083C083C0829001C0E0FED082D08375F0E8
:100CCB0005121A6E7403F0EF75F014A42447F58225
:100CDB00E43401F58375F005EE121A6E7408F07B9F
:100CEB00FF7A0779A3020DE09001C4E06003020DC7
:100CFB00E8A3E064036003020DE890008FE0D39457
:100D0B0001748094804003020DE81222589001C2B6
:100D1B00EFF09001BFE075F014A42448F582E434A1
:100D2B0001F583C083C0829001C0E0D082D083756F
:100D3B00F005121A6EEFF0900090E09001C5F09064
:100D4B0001C3E0FF1225329001C2EFF06003020EE7
:100D5B009E9001BFE0FF75F014A42444F582E434A7
:100D6B0001F583C083C0829001C0E0FED082D083A6
:100D7B0075F005121A6E7403F09001C5E0640170F2
:100D8B0020EF75F014A42447F582E43401F5837544
:100D9B00F005EE121A6E7423F07BFF7A0779CC8084
:100DAB00349001C5E0640270329001BFE075F0141D
:100DBB00A42447F582E43401F583C083C0829001FB
:100DCB00C0E0D082D08375F005121A6E7433F07BBD
:100DDB00FF7A0779E0120F50020E97804B9001C4F7
:100DEB00E06409704B9001BFE075F014A42447F543
:100DFB0082E43401F583C083C0829001C0E0D082CD
:100E0B00D08375F005121A6E7409F07BFF7A09799D
:100E1B0006120F509001C1E0FF7D01122489900151
:100E2B00C2EFF06003E0FF229001C274FBF080631D
:100E3B009001C3E0FF1225329001C2EFF070549085
:100E4B0001BFE0FF75F014A42444F582E43401F5EE
:100E5B0083C083C0829001C0E0FED082D08375F046
:100E6B0005121A6E7403F09001C4E0FD6002800558
:100E7B009001C5E0FDEF75F014A42447F582E4342E
:100E8B0001F58375F005EE121A6EEDF07F01122657
:100E9B00061F227BFF7A09792E9001C2E0FF900199
:100EAB009AE4F0A3EFF0120F509001BFE075F0142D
:100EBB00A42444F582E43401F583C083C0829001FD
:100ECB00C0E0D082D08375F005121A6E7402F07FE9
:090EDB00011226069001C2E0FF9D
:010EE40022EB
:05124A009001C6EFF069
:10124F007BFF7A097947120F509001C77401F09014
:10125F0001C6E0FF75F00CA42479F582E43401F5A2
:10126F0083E0FE9001C7E0D39E40030214C4E4FD67
:10127F00121FF81223169001C8EFF06003E0FF224F
:10128F00900040E030E007900042E020E00B90003B
:10129F0042E0641060030214059001C6E0FE75F091
:1012AF0014A42444F582E43401F583C083C08290F2
:1012BF0001C7E0FFD082D08375F005121A6E74015A
:1012CF00F0EE75F014A42445F582E43401F583752E
:1012DF00F005EF121A6EE4F012231B9001C8EFF025
:1012EF006003E0FF22900041E030E1047F008002C4
:1012FF007F019001C6E0FE75F014A42446F582E448
:10130F003401F583C083C0829001C7E0FDD082D045
:10131F008375F005121A6EEFF0EE75F014A42446E3
:10132F00F582E43401F58375F005ED121A6EE07B5A
:10133F00FF60077A097954ED80087A09797990016D
:10134F00C7E0FF90019AE4F0A3EFF0120F507FC8AF
:10135F007E001225DD12241C9001C8EFF06003E01F
:10136F00FF227BFF7A09799D120F5012230F9001F4
:10137F00C8EFF06003E0FF22900040E020E4EC7F34
:10138F00647E001225DD7D141224849001C8EFF0D5
:10139F007D101224849001C8EFF06003E0FF221249
:1013AF0023169001C8EFF06003E0FF22900040E0A9
:1013BF00540170259001C6E075F014A42444F58201
:1013CF00E43401F583C083C0829001C7E0D082D09E
:1013DF008375F005121A6EE4F09001C6E0FFA3E0EA
:1013EF00FD120B739001C8EFF06003E0FF227F0145
:1013FF001226060214BB900042E030E1369001C77E
:10140F00E0FF7D111224897BFF7A0979BA120F5000
:10141F0012241C9001C8EFF06003E0FF2212230F8B
:10142F009001C8EFF06003E0FF22900040E020E45D
:10143F00EC8079900040E0540170719001C6E07526
:10144F00F014A42444F582E43401F583C083C082F0
:10145F009001C7E0FFD082D08375F005121A6EE0BD
:10146F00C394017480948040117BFF7A0979D090E6
:10147F00019AE4F0A3EFF0120F509001C6E075F05F
:10148F0014A42444F582E43401F583C083C0829010
:10149F0001C7E0FFD082D08375F005121A6EE4F019
:1014AF00900042E030E0057D101224899001C7E0E2
:0714BF0004F002125E7F0041
:0114C6002203
:102178007BFF7A0979EC120F50E49001C9F09001C5
:10218800C9E0FF6402605BEF75F00CA42471F5826E
:10219800E43401F583E0C3940374809480403B9059
:1021A80001C9E075F00CA42474F582E43401F583C8
:1021B800E064097025FD121FF89001C9E0FF1212B2
:1021C8004AEF60117BFF7A0979FC90019AE4F0A349
:1021D800EFF0120F507F011226069001C9E004F0BB
:0421E800809C7F0058
:0121EC0022D0
:051D1C0090018FEFF0C3
:101D2100E4A3F0900190E0FF64027003021E10EF43
:101D310075F00CA42474F582E43401F583E0FD9080
:101D4100018FE0FFED6F701FA3E0FF75F00CA4247D
:101D510071F582E43401F583E0C3940374809480C7
:101D61004005EF7F00FE22ED64096003021E07902B
:101D71000190E075F00CA42471F582E43401F5833F
:101D8100E0C3940374809480407C9001917401F0CD
:101D9100900190E0FF75F00CA42479F582E4340100
:101DA100F583E0FE900191E0FDD39E5059EF75F06F
:101DB10014A42447F582E43401F58375F005ED128E
:101DC1001A6EE0FF90018FE0FEEF6E7031A3E0FF2D
:101DD10075F014A42444F582E43401F583C083C072
:101DE10082900191E0D082D08375F005121A6EE0E5
:101DF100C39403748094804005EFFEEDFF229001AF
:101E010091E004F0808A900190E004F0021D247EAC
:031E1100FF7FFF51
:011E140022AB
:10254F00C29FD29EC29DD29C438780E589540F447F
:0E255F0020F58943C9A0758DF3D28ED2992242
:10235F00C2EA75E280E4F5E39024477448F0740014
:10236F00FF740090244CCFF0A3EFF07400FF744083
:10237F0090244ECFF0A3EFF0E4F5D4F5D675E289B3
:10238F0075D24075D8FFFEEE64026008EEFF12248E
:07239F00B70E80F375E103A6
:0123A6002214
:1014C700E490018EF012254F7BFF7A0A7917AFA1BE
:1014D70090019AE4F0A3EFF0120F5012235FC209B4
:1014E7007BFF7A0A792B120F50E490018BF030D8EA
:1014F70010C2D8121E1590018BEFF064157002D23E
:101507000930092D90018BE064157025C2097FC849
:10151700FE1225DD1222BA90018BEFF060137BFFDC
:101527007A0A793BE0FF90019AE4F0A3EFF0120FFB
:10153700507FF0121D1CEFFDEEFCEDF47002ECF491
:1015470060A7ECFF900189F0EDFE90018CF0121F6F
:10155700F890018CE0FF9001896019E075F014A400
:101567002448F582E43401F58375F005EF121A6E0D
:10157700E0FF8010E075F00CA42479F582E43401D3
:10158700F583E0FF90018DEFF0540F70030216DF33
:10159700E0FE547F4490FFEE30E7047DC080027D7B
:1015A70000E4FBFA121B1990018BEFF0600302169F
:1015B700C690018DE06480F090018CE0FF601FA36E
:1015C700E0FE900189E075F014A42448F582E43424
:1015D70001F58375F005EF121A6EEEF08018900191
:1015E7008DE0FF900189E075F00CA42479F582E481
:1015F7003401F583EFF090018CE5D1F0E0604A7B90
:10160700FF7A0A7956120F50E490018AF090018C04
:10161700E0FF90018AE0FEC39F50257BFF7A0779A0
:101627008C74002EF582E43400F583E0FF90019A74
:10163700E4F0A3EFF0120F5090018AE004F080CDA0
:101647007BFF7A077993120F5090018CE0FF7E00A1
:101657007440F87400FC7401FDFB7A0079001219DC
:10166700E5900189E075F00CA4247BF582E4340150
:10167700F583E090018DF0FE90018CE0F5D7EE54F4
:101687007F4410FFEE30E7047DC080027D0074FFC9
:10169700FBFA121B1990018BEFF0704590018DE05A
:1016A7006480FFF0900189E075F00CA4247BF5823B
:1016B700E43401F583EFF07BFF7A0A7962801F90AB
:1016C700018BE0FF642A60197BFF7A0A796D90012C
:1016D7009AE4F0A3EFF080067BFF7A0A7982120F73
:0916E700507F011226060214F0E6
:03000000022620B5
:0C262000787FE4F6D8FD7581210214C714
:10191500E709F608DFFA8046E709F208DFFA803EB4
:1019250088828C83E709F0A3DFFA8032E309F608A1
:10193500DFFA8078E309F208DFFA807088828C8309
:10194500E309F0A3DFFA806489828A83E0A3F608BD
:10195500DFFA805889828A83E0A3F208DFFA804C97
:1019650080D280FA80C680D4806980F2803380106E
:1019750080A680EA809A80A880DA80E280CA8033D7
:1019850089828A83ECFAE493A3C8C582C8CCC5834F
:10199500CCF0A3C8C582C8CCC583CCDFE9DEE7801F
:1019A5000D89828A83E493A3F608DFF9ECFAA9F09E
:1019B500EDFB2289828A83ECFAE0A3C8C582C8CCF4
:1019C500C583CCF0A3C8C582C8CCC583CCDFEADE0D
:1019D500E880DB89828A83E493A3F208DFF980CC6F
:1019E50088F0EF60010E4E60C388F0ED2402B40468
:1019F5000050B9F582EB2402B4040050AF2323450F
:061A0500822390196573B5
:101A0B00BB010689828A83E0225002E722BBFE02D9
:091A1B00E32289828A83E493220C
:101A2400BB010989828A83F8E028F022500327F752
:101A340022BBFE05F8E328F3228A838982F8E49323
:021A4400282256
:101A4600BB010689828A83F0225002F722BBFE017F
:021A5600F32279
:101A5800C5F0F8A3E028F0C5F0F8E5821582700219
:061A68001583E038F022B6
:0C1A6E00A42582F582E5F03583F5832283
:100EE500E508249AF582E43401F583E005082290AB
:100EF500019730070390019AE475F001121AD302A5
:100F05001A0B2000E97F2ED2008018EF540F249091
:100F1500D43440D4FF30040BEF24BFB41A0050037F
:100F25002461FFE50960021509050CE50C70020551
:100F35000B30070E900197E475F001121AD3EF02FA
:100F45001A460224E37403D2078003E4C207F508B6
:100F5500900197121AEAE4F509F50BF50CE509601D
:100F6500077F20120F2880F5750AFFC201C200C253
:100F750002C203C205C206C208120EF4FF700D308C
:100F850007057F00120F39AF0CAE0B22B4255FC2E7
:100F9500D5C204120EF4FF24D0B40A00501A75F01D
:100FA5000A780930D50508B6FF0106C6A426F6203D
:100FB500D5047002D20380D924CFB41A00EF5004AF
:100FC500C2E5D20402113AD20180C6D20080C0D255
:100FD5000280BCD2D580BAD20580B47F20120F28FA
:100FE5002002077401B5090040F1120EE5FF120F4A
:100FF50028020F62D208D2068095120EE5FB120E6A
:10100500E5FA120EE5F94A4B7006790B7A127BFF69
:1010150020022EE509602A7E008E82758300121A51
:10102500A660060EEE650A70F0C2D5EBC0E0EAC018
:10103500E0E9C0E0EE121181D0E0F9D0E0FAD0E0AD
:10104500FB121A0BFF60AAEBC0E0EAC0E0E9C0E0C2
:10105500120F28D0E02401F9D0E03400FAD0E0FBEB
:10106500E50A0460DCD50AD980877BFF7A11797D92
:10107500D202809C791080027908C206C2088008D5
:10108500D2D5790A8004790AC2D5E50A047002F539
:101095000AE4FAFDFEFF120EE5FC7B08200113129F
:1010A5000EE5FD7B1030000A120EE5FE120EE5FF7F
:1010B5007B20EC3382D592D55013C3E43000069FD4
:1010C500FFE49EFEE42001039DFDE49CFCE4CBF8D7
:1010D500C201EC700CCFCECDCCE824F8F870F380CB
:1010E50017C3EF33FFEE33FEED33FDEC33FCEB338B
:1010F500FB994002FB0FD8E9EB300105F8D0E0C4BD
:1011050048B201C0E00AEC4D4E4F78207B0070C21A
:10111500EAB50A0040BCC0E0121183D0F0D0E0204F
:101125000104C4C0E0C4B201C0F0120F11D0F0D563
:10113500F0EB020F62121AF30FFF531079580FD01C
:101145004C0FCC42107D4F1085441085490FE54367
:08115500108B55106F46106F5E
:10115D0045106F47122B500FD42D0FD82E0FFB2B90
:10116D000FDC230FF92012142A0F944800000FF3FF
:10117D003F3F3F00790AA2D5200314300509B9106D
:10118D00020404B9080104A2D5200602500104206E
:10119D0002689202B509005034C0E07F2030031977
:1011AD007F30A20272067205500F1211DAC202C20E
:1011BD0006C205C2087F30800F300503E9C0E0127A
:1011CD000F28300503D0E0F9D0E0B509CC30051774
:1011DD007F30B9100C120F287F583004077F7880AC
:1011ED0003B90803120F283002057F2D020F287F47
:1011FD00202008F87F2B2006F322920280CF286E44
:10120D00756C6C2900D201120EE53001F8C201781F
:10121D000930D50108F6020F942D50434958120E8E
:10122D00E52403B405004001E490122693120F1932
:0D123D00743A120F19D203750904021079DA
:101A7A00EF4E6012EF60010EEDBB010B89828A8383
:101A8A00F0A3DFFCDEFA2289F05007F709DFFCA990
:0C1A9A00F022BBFEFCF309DFFCA9F022E7
:101AA600BB010CE58229F582E5833AF583E02250F5
:101AB60006E92582F8E622BBFE06E92582F8E2223F
:0D1AC600E58229F582E5833AF583E4932259
:101AD300F8E0FBA3A3E0F925F0F0E582158270029C
:071AE3001583E0FA38F02240
:091AEA00EBF0A3EAF0A3E9F022FD
:101AF300D083D082F8E4937012740193700DA3A382
:101B030093F8740193F5828883E473740293686095
:061B1300EFA3A3A380DF95
:1024E300EFB40A07740D1224EE740A309811A899F8
:1024F300B8130CC2983098FDA899C298B811F63059
:0725030099FDC299F5992230
:00000001FF
