:100D4E0048554220302064657620696E0A00485569
:100D5E0042203020646576206F75740A0048554233
:100D6E0020312064657620696E0A00485542203194
:100D7E0020646576206F75740A0052657365742061
:100D8E00726F6F7420687562202531642320706F36
:100D9E0072740A0044697361626C6520726F6F74BD
:100DAE0020687562202531642320706F7274206272
:100DBE00656361757365206F6620646973636F6E1A
:100DCE006E6563740A0047657444657644657363A3
:100DDE00723A2000782530325820000A0047657498
:100DEE0043666744657363723A200069666E756D7B
:100DFE0020253032582000494E5F45702025303274
:100E0E0058200A00494E5F56616C2025303258201A
:100E1E000A006869646C656E202530325820006CBB
:100E2E00656E3030332025303258200A0047657405
:100E3E004849445265706F72743A202530325820FA
:100E4E0000496E6974526F6F7444657620457272F4
:100E5E00203D20253032580A00456E756D416C6C70
:100E6E00526F6F744465760A00526F6F74487562E4
:100E7E00496E64657820253032780A00456E756DAE
:100E8E00416C6C526F6F7444657620657272203DB2
:100E9E0020253032580A00434849505F49443A20D1
:100EAE00253032780A00486F73745F4B6579626F34
:100EBE006172645F4D6F7573655F563130303A4FB6
:100ECE00637420323220323032312C4465627567C1
:100EDE002074696D653A31313A30363A35340A004C
:100EEE00485542305F4D6F75736520646174613A89
:100EFE002000485542305F4B6579626F6172642005
:100F0E00646174613A2000485542315F4D6F7573CC
:100F1E006520646174613A2000485542315F4B652B
:100F2E0079626F61726420646174613A2000800698
:100F3E0000010000120080060002000004000005FF
:100F4E000200000000000009000000000000210A5D
:100F5E00000000000000010B000000000000020174
:100F6E00000000000000810600220000410021095F
:060F7E000002000001006A
:041D2F004101A400CA
:071D28005389F0EF4289220C
:0D1D0000C3E49FFFE49EFEEFF58AEEF58C34
:011D0D0022B3
:101A7400308D40B2907FE07E2E121D00E4FFEFC354
:101A84009404748094805029EF25E02459F582E46D
:101A94003401F583E475F001121511EF25E024619A
:101AA400F582E43401F583E475F0011215110F8019
:031AB400CDC28D13
:011AB700220C
:041CDC007FC87E003F
:0E1CE000EF4E600905A1EF1F70F61E80F32283
:101CC500EFFDEEFCED4C600E7FE87E03121CE0EDAF
:071CD5001D70F11C80EE22DE
:101B9800EF75F01DA4246AF582E43401F583E4F0BE
:101BA800EF75F01DA4246BF582E43401F583E4F0AD
:0C1BB800EF64017003F5E522E4F5E4227F
:1016D600E4900129F0E5DB30E32890016AE060063A
:1016E600E5E454017040E4FF121B9890016A74010E
:1016F600F07BFF7A0D794E1207BF9001297415F021
:10170600802490016AE0C39401748094804017E4B9
:10171600FF121B987BFF7A0D795C1207BF90012997
:10172600E070037416F0E5DB30E728900187E0608F
:1017360006E5E5540170407F01121B9890018774FD
:1017460001F07BFF7A0D796B1207BF9001297415A2
:10175600F08024900187E0C3940174809480401740
:101766007F01121B987BFF7A0D79791207BF9001D2
:0C17760029E070037416F0900129E0FFD8
:011782002244
:0C1D1C00EF547FFFE5E354804FF5E32215
:0E1D0E00EF600753E2BF53D27F2243E2402230
:02178300EFFE77
:101785007D307C759001697408F0E4FF121D1C7FA3
:1017950001121D0EEE64017036E5E554FB4402F5B9
:1017A500E5ED4C602505A105A105A105A105A1054E
:1017B500A105A105A105A1E5DB5430600653E5FDB2
:1017C5007F0122ED1D70DA1C80D753E5FD8034E5DD
:1017D500E454FB4402F5E4ED4C602505A105A105A3
:1017E500A105A105A105A105A105A105A1E5DB545B
:1017F50003600653E4FD7F0122ED1D70DA1C80D7DE
:0A18050053E4FD121CDCC2D87F0082
:01180F0022B6
:10189C00EF75F01DA4246AF582E43401F583E0C3EE
:1018AC009401748094805011EF75F01DA4246AF596
:1018BC0082E43401F5837401F0EF64017026E5DBFA
:1018CC0030E747E5E554017015E5DB30E6047F00B1
:1018DC0080027F01900189EFF0700343E50443E53A
:1018EC00017F0022E5DB30E321E5E454017015E5CE
:1018FC00DB30E2047F0080027F0190016CEFF0701E
:0D190C000343E40443E4017F00227F162220
:021B2D00EFFEC9
:101B2F00ED900134F0EE75F01DA4246BF582E434D2
:101B3F0001F583E0FF121D1CEE75F01DA4246CF55A
:101B4F0082E43401F583E0FF121D0EEE6003D380B3
:041B5F0001C3920A22
:011B6300225F
:0715D200900145EFF0EDF977
:1015D900F5D489D6E4A3F0900145E0F5D5C2D97FC9
:1015E900C87E0020D909EF1F70011EEF4E70F4E488
:1015F900F5D520D9037FFE2220D9030216B730DEA4
:10160900037F0022E5D9540FFF640E700302169F71
:10161900EF640A701DEB4A7002807BC3EB94FFEA0A
:1016290094FF5005EB1B70011A900146E014F0027B
:1016390016BA900145E0C4540F24F7602724FC60D2
:1016490004240C706630DE037F0022EF640270020E
:10165900FF22EFFD640E6005ED640A70028037EF2A
:10166900604F804330DE037F0022E9600DEF640B99
:1016790070047E01800F7E00800BEF640370047E8E
:101689000180027E00EE60037F0022EFFD640E60A0
:1016990005ED640A7003EF800EEFFD64037005ED3C
:1016A900640B600DEF600A4420FF227FFE2275D88B
:1016B900FF7F0F7E00121CE0900146E004F0C39406
:0C16C900037480948050030215E07F2021
:0116D50022F2
:1011AD00900138E4F0A37400F07408A3F07B017A89
:0311BD0000794076
:1011C000E490013BF0A3F090013FEBF0A3EAF0A321
:1011D000E9F0900138E0F9A3E0FAA3E0900142C9F8
:1011E000F0A3EAF0A3E9F0121CDC900142E0FBA3BB
:1011F000E0FAA3E0F9EA494B6004E41214FF75D762
:10120000087B107A27E4FD7FD01215D290013DEFC4
:10121000F06003E0FF2275D6D075D4D075D7019069
:101220000047E0FE900046E0FDEDFF90013BEEF050
:10123000A3EFF04E700302139D90013FE0FBA3E08B
:10124000FAA3E0F9EA494B700302139D900040E0D5
:1012500020E70302130390013BE07002A3E0700358
:101260000212FD121CDC7B107A27ADD47F90121580
:10127000D290013DEFF0E0FF600122AFD190013B41
:10128000E0FCA3E0FDD39FEC94004004AFD18002CA
:10129000EDFF90013EEFF0E0FFC390013CE09FF0D6
:1012A00090013BE09400F0900142E0FBA3E0FAA340
:1012B000E0F9EA494B6004EF1214DDE4FF90013ECF
:1012C000E06F602874002FF582E43400F583E0FEBF
:1012D00090013FE0FBA3E0FAA3E0F9EE1214FF90C7
:1012E0000140E475F0011215110F80D1AFD1EF600C
:1012F0000C900169E01455D17003021256E4F5D741
:1013000002139D90013BE07002A3E0700302139D65
:10131000121CDC900169E0FFFD90013BE0FAA3E0C4
:10132000FBC39DEA940040028002EBFF8FD7E4FFED
:10133000EF65D7602890013FE0FBA3E0FAA3E0F956
:101340001214C4FE74402FF582E43400F583EEF0ED
:10135000900140E475F0011215110F80D37B107AD3
:1013600027ADD67F101215D290013DEFF0E0FF605F
:101370000122AFD7C390013CE09FF090013BE09485
:1013800000F0900142E0FBA3E0FAA3E0F9EA494B48
:101390007003021303E5D71214DD021303121CDCE1
:1013A000E5D760047F9080027F107B107A277DC094
:1013B0001215D290013DEFF06003E0FF22AFD7EFAE
:0D13C0007002FF22AFD1EF7002FF227F17F5
:0113CD0022FD
:101C0F00E4FDED6408601B8F828E83E493FC7440C7
:101C1F002DF582E43400F583ECF00FBF00010E0DBB
:021C2F0080E053
:011C31002290
:101AB8009001697408F07E0F7F3C121C0F9001386A
:101AC8007401F0A37401F074311211B8EF600122AF
:101AD800900047E0900169F0900F42E493FF900175
:0B1AE80031E0C39F50037F17227F00F6
:011AF30022D0
:1019D9007E0F7F44121C0F1211ADEF600122900F90
:1019E9004AE493FEE508C39E50037F172290004204
:1019F900E0F5087E0F7F44121C0F900046E508F0C1
:101A09001211ADEF600122900F4AE493FFE508C37C
:101A19009F400A900042E0FFE5089F50037F17228C
:021A29007F003C
:011A2B002298
:051AF400900131EFF04C
:101AF9007E0F7F4C121C0F900131E0900042F09054
:101B09000138E4F0A3F0A3F0FBFAF91211C0EF6079
:101B19000122900131E0FF121D1C7F0A7E00121C78
:031B2900C57F0075
:011B2C002296
:101C6E00EFFB7E0F7F54121C0FEB900042F09001A1
:0D1C7E0038E4F0A3F0A3F0FBFAF90211C066
:101C8B00EFFB7E0F7F5C121C0FEB900044F090017A
:0D1C9B0038E4F0A3F0A3F0FBFAF90211C049
:101CA800EFFB7E0F7F6C121C0FEB900044F090014D
:0D1CB80038E4F0A3F0A3F0FBFAF90211C02C
:101B6400EFFBEEFAEDF97E0F7F74121C0FEB2440AD
:101B7400900046F0EAFEEB2440E43EA3F0E9900036
:101B840044F0900138E4F0A3F0A3F07B017A0079EB
:041B9400400211C03A
:101C3200900134EFF07E0F7F7C121C0F900138E48C
:0E1C4200F0A3F0A3F07B017A0179340211C007
:10191900900040E06405702BA3E064017025A3E00A
:101929006409701FA3E064027019EF75F01DA42407
:1019390073F582E43401F58375F006ED1215277409
:10194900338031900040E06405702DA3E06401709C
:1019590027A3E064097021A3E06406701BEF75F00A
:101969001DA42473F582E43401F583ED75F00612A4
:0B19790015277423F07F00227FFB2263
:05000300900129EFF05F
:10000800E4900130F07BFF7A0D798890013402008A
:10001800AC900130E0FFC3940A74809480400302DE
:10002800074EEF75F064A4FFAEF0121CC5E004F0B3
:10003800900129E0FF121783E490012AF0A3F090C1
:10004800012AE0C3946474809480503B7F017E0051
:10005800121CC5900129E0FF12189CEF7021900135
:100068002AF0A3E004F0900130E075F00AA4FF90B4
:10007800012BE0D39FE5F06480F8748098500890D5
:10008800012AE004F080B890012AE060219001295B
:10009800E0FF121B987BFF7A0D79A2900129E0FFFF
:1000A800900134E4F0A3EFF01207BF0200199001A9
:1000B80029E0FFE4FD121B2D7BFF7A0D79D412078E
:1000C800BF121AB890012BEFF0600302071C9001D1
:1000D8002AF0900F42E493FF90012AE0FEC39F505C
:1000E800257BFF7A0D79E274402EF582E43400F521
:1000F80083E0FF900134E4F0A3EFF01207BF900112
:100108002AE004F080CC7BFF7A0D79E91207BF90D2
:100118000044E090012DF0900F4EE493FF900129E8
:10012800E02FFF121AF490012BEFF0600302071C76
:10013800900F4E93FF900129E0FE2FFFEE75F01D02
:10014800A4246BF582E43401F583EFF07BFF7A0D8C
:1001580079EB1207BF1219D990012BEFF060030257
:10016800071C900044E0FF900129E0FE75F01DA4F3
:10017800246EF582E43401F583EFF0EE75F01DA4EA
:10018800246EF582E43401F583E0FED39404748090
:10019800948040037F3022900045E090012CF07B52
:1001A800FF7A0D79F9EEFF900134E4F0A3EFF01235
:1001B80007BFE490012AF0900042E0FF90012AE096
:1001C800FEC39F50257BFF7A0D79E274402EF5829D
:1001D800E43400F583E0FF900134E4F0A3EFF0127B
:1001E80007BF90012AE004F080CD7BFF7A0D79E902
:1001F8001207BF90004EE090012EF090012DE060B4
:10020800030206D7A3E0640360030206D790004FF9
:10021800E0D394017480948040030206D7E49001EF
:100228002BF090012AF0900129E0FF75F01DA4241D
:100238006EF582E43401F583E0FE90012AE0C39E66
:100248004003020566A3E0FE2441F582E43400F58C
:1002580083E06402701274402EF582E43400F58362
:10026800E0FE90012BE02EF090012BE02441F58276
:10027800E43400F583E06404702590012BE0FE244B
:1002880044F582E43400F583E090012FF074402EA9
:10029800F582E43400F583E0FE90012BE02EF09027
:1002A800012BE0FE2441F582E43400F583E064216B
:1002B800600302037474402EF582E43400F583E091
:1002C800FE90012BE02EF0E0FD243FF582E434009F
:1002D800F583E0FBEF75F01DA4246FF582E434018B
:1002E800F583C083C08290012AE0D082D08375F064
:1002F80006121527E4F0A3EBF0900129E0FC75F055
:100308001DA4246FF582E43401F583C083C0829074
:10031800012AE0D082D08375F006121527C083C069
:1003280082A3E0D082D083F0A3E4F0EC75F01DA4A2
:10033800246FF582E43401F583C083C08290012ADA
:10034800E0D082D08375F006121527C083C082E002
:10035800FEA3E0FF743E2DF582E43400F583E0FD52
:10036800EF4DFFD082D083EEF0A3EFF090012BE0A9
:100378002441F582E43400F583E064056003020556
:100388001C90012FE0FF14F0EF700302051C900190
:100398002BE0FF2442F582E43400F583E020E703F4
:1003A8000204C7540FFE900129E0FD75F01DA42436
:1003B80071F582E43401F583C083C08290012AE09C
:1003C800FCD082D08375F006121527EEF074462F04
:1003D800F582E43400F583E0FFED75F01DA4247484
:1003E800F582E43401F58375F006EC121527EFF079
:1003F800900129E0FF75F01DA4246CF582E4340116
:10040800F583E07046EF75F01DA42474F582E4349A
:1004180001F583C083C08290012AE0FFD082D08397
:1004280075F006121527E0C3940874809480501B59
:10043800900129E075F01DA42474F582E43401F5D7
:100448008375F006EF1215277408F07BFF7A0E7992
:1004580005900129E075F01DA42471F582E43401AA
:10046800F583C083C08290012AE0D082D08375F0E2
:1004780006121527E0FF900134E4F0A3EFF012070D
:10048800BF7BFF7A0E7912900129E075F01DA42434
:1004980074F582E43401F583C083C08290012AE0B8
:1004A800D082D08375F006121527E0FF900134E45E
:1004B800F0A3EFF01207BF90012BE0244080439097
:1004C800012BE0FF2442F582E43400F583E0FE547A
:1004D800806003020389EE540FFE900129E075F055
:1004E8001DA42472F582E43401F583C083C0829090
:1004F800012AE0D082D08375F006121527EEF07439
:10050800402FF582E43400F583E0FF90012BE02FC3
:10051800F00203897BFF7A0E7920900129E075F0BB
:100528001DA4246FF582E43401F583C083C0829052
:10053800012AE0D082D08375F006121527E0FFA3C8
:10054800E0900134CFF0A3EFF01207BF7BFF7A0DE4
:1005580079E91207BF90012AE004F002022E900107
:100568002CE0FF121C6E90012BEFF0600302071CB9
:1005780090012AF0900129E075F01DA4246EF582FF
:10058800E43401F583E0FE90012AE0FFC39E4003B6
:100598000206AA121C8B900129E075F01DA4246F95
:1005A800F582E43401F583C083C08290012AE0FD1E
:1005B800D082D08375F006121527E0FEA3E0FF1263
:1005C8001B6490012BEFF07BFF7A0E792D900129A7
:1005D800E075F01DA4246FF582E43401F583C0832F
:1005E800C08290012AE0D082D08375F006121527C8
:1005F800E0FFA3E0900134CFF0A3EFF01207BFE4CF
:1006080090012CF0900129E075F01DA4246FF5826B
:10061800E43401F583C083C08290012AE0D082D0FF
:100628008375F006121527E0FEA3E0FF90012CE089
:10063800FDD3EF9DEE940040257BFF7A0D79E2E033
:100648002440F582E43400F583E0FF900134E4F0BF
:10065800A3EFF01207BF90012CE004F080A67BFF07
:100668007A0D79E91207BF7BFF7A0E793B90012B4F
:10067800E0FF900134E4F0A3EFF01207BF90012BE4
:10068800E0FE7012900129E0FFA3E0FD1219199015
:10069800012BEFF08003EEFF2290012AE004F00224
:1006A800057C900173E064237010900190E064234E
:1006B80070089001A4E0FF121C32900129E075F047
:1006C8001DA4246AF582E43401F583740380419003
:1006D800012CE0FF121C6E90012BEFF07036900198
:1006E80029E0FF75F01DA4246AF582E43401F5833E
:1006F8007403F090012DE0FE6002800590012EE069
:10070800FEEF75F01DA4246DF582E43401F583EE47
:10071800F07F00227BFF7A0E794F90012BE0FF904B
:100728000134E4F0A3EFF01207BF900129E075F05F
:100738001DA4246AF582E43401F5837402F07F0174
:0B074800121D0E02001990012BE0FFB3
:010753002283
:101984007BFF7A0E79671207BFE4780EF6780EE6CD
:10199400FFC394027480948050387BFF7A0E797769
:1019A400900134E4F0A3EFF01207BF780EE6FF7560
:1019B400F01DA4246AF582E43401F583E064017027
:1019C4000C120003780DEFF66003E6FF22780E0692
:0419D40080BB7F0055
:0119D80022EC
:101C5000C29FD29EC29DD29C438780E589540F4487
:0E1C600020F58943C9A0758DF3D28ED299224A
:101A2C00C2EA75E280E4F5E39024477448F0740050
:101A3C00FF740090244CCFF0A3EFF07400FF7440BF
:101A4C0090244ECFF0A3EFF0E4F5D4F5D675E289EF
:101A5C0075D24075D8FFFEEE64026008EEFF121BD3
:071A6C00980E80F375E10301
:011A73002250
:101CEE00E4FF30D80CC2D81216D6EF64157002D2AB
:011CFE0009DC
:011CFF0022C2
:101BEB00E430091FC2097FC8FE121CC5121984EF0D
:101BFB0060117BFF7A0E798A900134E4F0A3EFF049
:031C0B001207BFFE
:011C0E0022B3
:100AB9007E007F147D007B017A0179011215337E56
:100AC900007F147D007B017A017915121533A20A82
:100AD900E433FF90012E7401F0A37401F0A374159F
:090AE900F07B017A0179017D33F3
:100AF200900129EFF090012BEBF0A3EAF0A3E9F0CB
:050B020090012AEDF056
:100B0700E4900133F0EDFF64236008EF6433600382
:100B1700020D4DE4900132F0900129E0FF75F01DC0
:100B2700A4246EF582E43401F583E0FE900132E0FF
:100B3700FDC39E4003020D4DEF75F01DA42473F510
:100B470082E43401F58375F006ED121527E0FF9076
:100B5700012AE0FEEF6E6003020D44900129E0FFD9
:100B670075F01DA4246AF582E43401F583E0C3948B
:100B770003748094805003020D44EF75F01DA42484
:100B870074F582E43401F583C083C082900132E0BA
:100B9700FED082D08375F006121527E0FDEF75F0C1
:100BA70008A42459F582E43401F58375F002EE12A6
:100BB7001527E0FEA3E0C39DEE94005003020D4409
:100BC700900129E075F008A42459F582E43401F571
:100BD70083C083C082900132E0D082D08375F00257
:100BE700121527E4F0A3F0FD121B2D900129E075E3
:100BF700F01DA42471F582E43401F583C083C0821B
:100C0700900132E0D082D08375F006121527E0FC00
:100C1700540F7003020D44EC547F4490FFEC30E70F
:100C2700047DC080027D00E4FBFA1215D2900131E9
:100C3700EFF06003020D44EC6480FF900129E0FEB1
:100C470075F01DA42471F582E43401F583C083C0D7
:100C570082900132E0D082D08375F006121527EF1B
:100C6700F0E5D17003020D44EE601990012EE0FB10
:100C7700A3E0FAA3E0F9E5D11214FFAFD17E00900B
:100C8700012E801790012BE0FBA3E0FAA3E0F9E522
:100C9700D11214FFAFD17E0090012BE0FBA3E0FA45
:100CA700A3E02401F9E43AFAE9F8EAFCEBFD7B0159
:100CB7007A00790012149E90012AE06423600302EF
:100CC7000D4D900002E0643970119001A4E06402B8
:100CD700FFF0121C3290013374AAF0900002E06416
:100CE7005370119001A4E06401FFF0121C329001CF
:100CF7003374AAF0900002E0644770119001A4E0F9
:100D07006404FFF0121C3290013374AAF09001338F
:100D1700E064AA7031900173E06423702990019018
:100D2700E064237021900129E06401FF900131F014
:100D3700E4FD121B2D9001A4E0FF021C329001324A
:060D4700E004F0020B1FA6
:010D4D002283
:100F8400121C507BFF7A0E79A5900134E4F0A3740F
:100F940059F01207BF7BFF7A0E79B41207BF121AF9
:100FA4002C43C9907F01121D287FE07E2E121D0064
:100FB400D28CC2097E007F3A7D007B017A01796A76
:100FC4001215337E007F107D007B017A017959125E
:100FD4001533121CEE121BEBC20A120AB99001015E
:100FE400E0604B7BFF7A0E79EE1207BF900100742C
:100FF40001F0900101E0FF900100E0FED39F502535
:101004007BFF7A0D79E274012EF582E43401F583D5
:10101400E0FF900134E4F0A3EFF01207BF90010069
:10102400E004F080CD7BFF7A0D79E91207BF7E00E2
:101034007F147D007B017A0179011215337E007FD4
:10104400147D007B017A017915121533A20AE43369
:10105400FF90012E7401F0A37401F0A37415F07BCA
:10106400017A0179017D23120AF2900101E0604BBB
:101074007BFF7A0F79001207BF9001007401F09092
:101084000101E0FF900100E0FED39F50257BFF7A31
:101094000D79E274012EF582E43401F583E0FF90CA
:1010A4000134E4F0A3EFF01207BF900100E004F074
:1010B40080CD7BFF7A0D79E91207BFD20A120AB9F3
:1010C400900115E0604B7BFF7A0F79151207BF90F2
:1010D40001007401F0900115E0FF900100E0FED3DF
:1010E4009F50257BFF7A0D79E274152EF582E43446
:1010F40001F583E0FF900134E4F0A3EFF01207BFA1
:10110400900100E004F080CD7BFF7A0D79E91207AD
:10111400BF7E007F147D007B017A017901121533B3
:101124007E007F147D007B017A017915121533A2AC
:101134000AE433FF90012E7401F0A37401F0A37448
:1011440015F07B017A0179017D23120AF2900115D1
:10115400E0604B7BFF7A0F79271207BF9001007480
:1011640001F0900115E0FF900100E0FED39F5025AF
:101174007BFF7A0D79E274152EF582E43401F58350
:10118400E0FF900134E4F0A3EFF01207BF900100F8
:10119400E004F080CD7BFF7A0D79E91207BF7F016F
:0911A400121D0E121A74020FD67E
:03000000021810D3
:0C181000787FE4F6D8FD7581210218579E
:1013CE00E709F608DFFA8046E709F208DFFA803E01
:1013DE0088828C83E709F0A3DFFA8032E309F608EE
:1013EE00DFFA8078E309F208DFFA807088828C8356
:1013FE00E309F0A3DFFA806489828A83E0A3F6080A
:10140E00DFFA805889828A83E0A3F208DFFA804CE3
:10141E0080D280FA80C680D4806980F280338010BA
:10142E0080A680EA809A80A880DA80E280CA803323
:10143E0089828A83ECFAE493A3C8C582C8CCC5839B
:10144E00CCF0A3C8C582C8CCC583CCDFE9DEE7806B
:10145E000D89828A83E493A3F608DFF9ECFAA9F0EA
:10146E00EDFB2289828A83ECFAE0A3C8C582C8CC40
:10147E00C583CCF0A3C8C582C8CCC583CCDFEADE59
:10148E00E880DB89828A83E493A3F208DFF980CCBB
:10149E0088F0EF60010E4E60C388F0ED2402B404B4
:1014AE000050B9F582EB2402B4040050AF2323455B
:0614BE00822390141E734E
:1014C400BB010689828A83E0225002E722BBFE0226
:0914D400E32289828A83E4932259
:1014DD00BB010989828A83F8E028F022500327F79F
:1014ED0022BBFE05F8E328F3228A838982F8E49370
:0214FD002822A3
:1014FF00BB010689828A83F0225002F722BBFE01CC
:02150F00F322C5
:10151100C5F0F8A3E028F0C5F0F8E5821582700265
:061521001583E038F02202
:0C152700A42582F582E5F03583F58322CF
:10075400E5082434F582E43401F583E005082290A9
:100764000131300703900134E475F00112158C0255
:1007740014C42000E97F2ED2008018EF540F249077
:10078400D43440D4FF30040BEF24BFB41A00500318
:100794002461FFE50960021509050CE50C700205EA
:1007A4000B30070E900131E475F00112158CEF0245
:1007B40014FF021BC47403D2078003E4C207F508C4
:1007C4009001311215A3E4F509F50BF50CE5096068
:1007D400077F2012079780F5750AFFC201C200C285
:1007E40002C203C205C206C208120763FF700D30BD
:1007F40007057F001207A8AF0CAE0B22B4255FC219
:10080400D5C204120763FF24D0B40A00501A75F04D
:100814000A780930D50508B6FF0106C6A426F620D5
:10082400D5047002D20380D924CFB41A00EF500447
:10083400C2E5D2040209A9D20180C6D20080C0D286
:100844000280BCD2D580BAD20580B47F201207972B
:100854002002077401B5090040F1120754FF120782
:10086400970207D1D208D2068095120754FB1207CB
:1008740054FA120754F94A4B7006797A7A0A7BFFC4
:1008840020022EE509602A7E008E827583001215EF
:100894005F60060EEE650A70F0C2D5EBC0E0EAC0F8
:1008A400E0E9C0E0EE1209F0D0E0F9D0E0FAD0E0DF
:1008B400FB1214C4FF60AAEBC0E0EAC0E0E9C0E0A8
:1008C400120797D0E02401F9D0E03400FAD0E0FB1D
:1008D400E50A0460DCD50AD980877BFF7A0979ECC4
:1008E400D202809C791080027908C206C20880086E
:1008F400D2D5790A8004790AC2D5E50A047002F5D2
:100904000AE4FAFDFEFF120754FC7B0820011312CF
:100914000754FD7B1030000A120754FE120754FFDF
:100924007B20EC3382D592D55013C3E43000069F6C
:10093400FFE49EFEE42001039DFDE49CFCE4CBF86F
:10094400C201EC700CCFCECDCCE824F8F870F38063
:1009540017C3EF33FFEE33FEED33FDEC33FCEB3323
:10096400FB994002FB0FD8E9EB300105F8D0E0C455
:1009740048B201C0E00AEC4D4E4F78207B0070C2B3
:10098400EAB50A0040BCC0E01209F2D0F0D0E02081
:100994000104C4C0E0C4B201C0F0120780D0F0D595
:1009A400F0EB0207D11215AC086E5308E858083F63
:1009B4004C083B4208EC4F08F44408F449085443FB
:0809C40008FA5508DE4608DEC2
:1009CC004508DE470A9A5008432D08472E086A2B23
:1009DC00084B230868200A832A0803480000086291
:1009EC003F3F3F00790AA2D5200314300509B91006
:1009FC00020404B9080104A2D52006025001042007
:100A0C0002689202B509005034C0E07F203003190F
:100A1C007F30A20272067205500F120A49C202C23E
:100A2C0006C205C2087F30800F300503E9C0E01212
:100A3C000797300503D0E0F9D0E0B509CC300517A5
:100A4C007F30B9100C1207977F583004077F7880DD
:100A5C0003B908031207973002057F2D0207977F11
:100A6C00202008F87F2B2006F322920280CF286EDC
:100A7C00756C6C2900D2011207543001F8C2017850
:100A8C000930D50108F60208032D504349581207C6
:100A9C00542403B405004001E4900A95931207888E
:0D0AAC00743A120788D2037509040208E8A5
:10153300EF4E6012EF60010EEDBB010B89828A83CF
:10154300F0A3DFFCDEFA2289F05007F709DFFCA9DC
:0C155300F022BBFEFCF309DFFCA9F02233
:10181C00020F84E493A3F8E493A34003F68001F24F
:10182C0008DFF48029E493A3F85407240CC8C333CD
:10183C00C4540F4420C8834004F456800146F6DF9C
:10184C00E4800B0102040810204080901D2FE47EE0
:10185C00019360BCA3FF543F30E509541FFEE49391
:10186C00A360010ECF54C025E060A840B8E493A358
:10187C00FAE493A3F8E493A3C8C582C8CAC583CA83
:10188C00F0A3C8C582C8CAC583CADFE9DEE780BE3B
:011D330000AF
:10155F00BB010CE58229F582E5833AF583E0225041
:10156F0006E92582F8E622BBFE06E92582F8E2228B
:0D157F00E58229F582E5833AF583E49322A5
:10158C00F8E0FBA3A3E0F925F0F0E58215827002E8
:07159C001583E0FA38F0228C
:0915A300EBF0A3EAF0A3E9F02249
:1015AC00D083D082F8E4937012740193700DA3A3CE
:1015BC0093F8740193F5828883E4737402936860E2
:0615CC00EFA3A3A380DFE2
:101BC400EFB40A07740D121BCF740A309811A89948
:101BD400B8130CC2983098FDA899C298B811F63081
:071BE40099FDC299F5992259
:00000001FF
