:10104C0048554220302064657620696E0A00485568
:10105C0042203020646576206F75740A0048554232
:10106C0020312064657620696E0A00485542203193
:10107C0020646576206F75740A005345545F504F99
:10108C005254202025303258202025303258200050
:10109C00526573657420726F6F74206875622025B9
:1010AC0031642320706F72740A0044697361626C3E
:1010BC006520726F6F74206875622025316423205F
:1010CC00706F72742062656361757365206F662042
:1010DC00646973636F6E6E6563740A00476574446C
:1010EC00657644657363723A200078253032582057
:1010FC00000A0047657443666744657363723A205F
:10110C00005553422D4469736B2052656164790A12
:10111C00005553422D5072696E74204F4B0A005586
:10112C0053422D5072696E742052656164790A00C5
:10113C004849443A20253032780047657448494480
:10114C005265706F72743A20005553422D4B65797D
:10115C00626F6172642052656164790A0055534272
:10116C002D4D6F7573652052656164790A00476572
:10117C007448756244657363723A20004578742D27
:10118C0048554220506F72745F2531642320706F74
:10119C00776572206F6E206572726F720A004578E7
:1011AC00742D48554220506F72745F2531642309A9
:1011BC00636C65617220636F6E6E656374696F6ECC
:1011CC00206572726F720A0064765F636C733D25E2
:1011DC003032782C69665F636C73203D2530327831
:1011EC0000496E6974526F6F744465762045727253
:1011FC00203D20253032580A00456E756D416C6CCF
:10120C00526F6F744465760A00526F6F7448756242
:10121C00496E64657820253032780A00496E69740D
:10122C002064657620404578744875622D706F7225
:10123C00745F253164200040526F6F745F253164F8
:10124C000A0055485F5345545550203D204765745E
:10125C0044657644657363723A20253032780054C5
:10126C006869732070726F6772616D20646F6E278E
:10127C007420737570706F7274204C6576656C2079
:10128C0032204855420A00496E69744465764F6EA7
:10129C0048756220457272203D20253032580A0074
:1012AC00456E756D487562506F72740A00466F75A5
:1012BC006E642066756C6C20737065656420646563
:1012CC0076696365206F6E20706F727420253164AF
:1012DC000A00466F756E64206C6F772073706565BD
:1012EC006420646576696365206F6E20706F72741C
:1012FC00202531640A00526573657420706F727416
:10130C0020616E64207468656E2077616974206951
:10131C006E0A00446576696365206F6E20706F728B
:10132C0074206572726F720A004465766963652079
:10133C006F6E20706F7274202531642072656D6F32
:10134C007665640A00456E756D416C6C487562502B
:10135C006F72740A00456E756D416C6C4875625005
:10136C006F727420657272203D20253032580A004D
:10137C004572726F723A20253032580A00537461EC
:10138C00727420404368697049443D253032580AD4
:10139C0000576169742044657669636520496E0A5B
:1013AC0000456E756D416C6C526F6F7444657620A0
:1013BC00657272203D20253032580A0051756572D5
:1013CC0079204D6F7573652040253034580A004DD7
:1013DC006F75736520646174613A20004D6F75738D
:1013EC0065206572726F7220253032780A004D6F5D
:1013FC00757365206E6F20696E746572727570748A
:10140C0020656E64706F696E740A0051756572792F
:10141C00204B6579626F6172642040253034580A24
:10142C0000253032582020006B6579626F61726440
:10143C0020646174613A20006B6579626F6172643B
:10144C00206572726F7220253032780A006B6579D4
:10145C00626F617264206E6F20696E746572727552
:10146C00707420656E64706F696E740A0048554222
:10147C00206572726F7220253032780A004855420E
:10148C002025303264206E6F20696E74657272751F
:10149C00707420656E64706F696E740A00517565A6
:1014AC007279205072696E74657220402530345800
:1014BC000A005072696E746572206572726F7220C8
:1014CC00253032780A0053746172742055444953A4
:1014DC004B5F64656D6F204043483535395546493F
:1014EC00206C6962726172790A00576169742044D8
:1014FC0069736B52656164790A004F70656E2046A2
:10150C00696C650A002F4335312F4348353539480E
:10151C0046542E4300C3BBD3D0D5D2B5BDCEC4BC2C
:10152C00FE0A002530327820C3BBD3D0D5D2B5BD4E
:10153C00CEC4BCFE0A00B4D3CEC4BCFED6D0B6C159
:10154C00B3F6B5C4C7B02564B8F6D7D6B7FBCAC7CF
:10155C003A0A00254300CEC4BCFED2D1BEADBDE1DB
:10156C00CAF80A00436C6F73650A004372656174B4
:10157C00652046696C650A002F4E455746494C4517
:10158C002E545854004279746557726974650A0078
:10159C004E6F74653A200D0AD5E2B8F6B3CCD0F292
:1015AC00CAC7D2D4D7D6BDDACEAAB5A5CEBBBDF8A4
:1015BC00D0D055C5CCCEC4BCFEB6C1D0B42C3535BC
:1015CC0039BCF2B5A5D1DDCABEB9A6C4DCA1A30D48
:1015DC000A00B3C9B9A6D0B4C8EB2025303258B430
:1015EC00CE0A004D6F646966790A0044656C6574B7
:1015FC00650A002F4F4C442E545854004572726F9C
:10160C00722046696C65206E6F74206578697374FE
:10161C003A20253032580A0055C5CCD1DDCABECD92
:10162C00EAB3C90A0055C5CCC3BBD3D0D7BCB1B83B
:10163C00BAC320455252203D253032580A0080064C
:10164C0000010000120080060002000004000005EA
:10165C000200000000000009000000000000210A48
:10166C00000000000000010B00000000000002015F
:10167C00000000000000A0060029000009008106FF
:10168C00002200004100A10000000000F103210A2B
:0E169C00000000000000210900020000010013
:045C54004103AC005C
:0B4B7A009002F2EFF0A3ECF0A3EDF0CE
:104B8500E4A3F09002F5E0C394037480948040039D
:104B9500024C28900048E4F0E51224F8FF9002F258
:104BA500E0FEA807088002C333D8FC900049F0A3B3
:104BB500E4F0A3F0A37480F0900364E090004DF05E
:104BC500A3740AF0A37428F0A3E4F0900343E090E3
:104BD5000051F0900344E0900052F0900345E090BE
:104BE5000053F0900346E0900054F0A3E4F0A3F0E6
:104BF500A3EEF0A3E4F09002F3E0FEA3E0FF12427F
:104C050081AF0DEF7002FF229002F5E0FF12568D85
:104C15008F0DAF0DEF6003AF0D229002F5E004F0AC
:084C2500024B88750D1F7F1F73
:014C2D002264
:0B1F40009002F2EFF0A3ECF0A3EDF034
:101F4B00E4A3F09002F5E0C3940374809480400303
:101F5B00021FF3900048E4F0E51224F8FF9002F220
:101F6B00E0FEA807088002C333D8FC900049F0A319
:101F7B00E4F0A3F0A3F0900364E090004DF0A374A1
:101F8B000AF0A3742AF0A3E4F0900343E09000510D
:101F9B00F0900344E0900052F0900345E090005322
:101FAB00F0900346E0900054F0A3E4F0A3F0A3EE0E
:101FBB00F0A3E4F09002F3E0FEA3E0FF124281AF46
:101FCB000DEF70097FC8FE125BF17F00229002F5C6
:101FDB00E0FF12568D8F0DAF0DEF6003AF0D22900A
:0D1FEB0002F5E004F0021F4E750D1F7F1F70
:011FF80022C6
:1057BB0053E37FAFE3EF64026007AFE3EF64037083
:1057CB002CAFE3EF64027004AFE48002AFE5EF307F
:1057DB00E0037F0022AFE3EF640270047F088002D6
:1057EB007F80E5DB5F6006750A027F0022750A0188
:0257FB007F1617
:0157FD002289
:0117FF0022C7
:1058B700125C59C3EF94137480948050037FFF22C6
:1058C7007E007F808E0B8F0C90033CEEF0A3EFF0F1
:1058D700E4F50A7512099003367402F09003691211
:0958E70026E5000000007F00220C
:045BED007FC87E00EF
:0E5BF100EF4E600905A1EF1F70F61E80F32233
:105BA800EFFDEEFCED4C600E7FE87E03125BF1ED3D
:075BB8001D70F11C80EE22BC
:10599100EF75F006A424ADF582E43403F583E4F059
:1059A100EF75F006A424AEF582E43403F583E4F048
:0C59B100EF64017003F5E522E4F5E42248
:104C2E00E49002EEF0E5DB30E3289003ADE06006A1
:104C3E00E5E454017040E4FF1259919003AD740104
:104C4E00F07BFF7A10794C1233879002EE7415F0D8
:104C5E0080249003ADE0C39401748094804017E4E7
:104C6E00FF1259917BFF7A10795A1233879002EE18
:104C7E00E070037416F0E5DB30E7289003B3E060D4
:104C8E0006E5E5540170407F011259919003B3740B
:104C9E0001F07BFF7A1079691233879002EE74155A
:104CAE00F080249003B3E0C3940174809480401785
:104CBE007F011259917BFF7A107977123387900218
:0C4CCE00EEE070037416F09002EEE0FFC0
:014CDA0022B7
:0C5C3E00EF547FFFE5E354804FF5E322B4
:0E5C3000EF600753E2BF53D27F2243E24022CF
:024F5100EFFE71
:104F53007D307C759003837408F0E4FF125C3E7F20
:104F630001125C30EE64017036E5E554FB4402F552
:104F7300E5ED4C602505A105A105A105A105A10548
:104F8300A105A105A105A1E5DB5430600653E5FDAC
:104F93007F0122ED1D70DA1C80D753E5FD8034E5D7
:104FA300E454FB4402F5E4ED4C602505A105A1059D
:104FB300A105A105A105A105A105A105A1E5DB5455
:104FC30003600653E4FD7F0122ED1D70DA1C80D7D8
:0A4FD30053E4FD125BEDC2D87F002D
:014FDD0022B1
:10516F00EF75F006A424ADF582E43403F583E0C3B4
:10517F009401748094805011EF75F006A424ADF55E
:10518F0082E43403F5837401F0EF64017026E5DBEC
:10519F0030E747E5E554017015E5DB30E6047F00A5
:1051AF0080027F019003B5EFF0700343E50443E500
:1051BF00017F0022E5DB30E321E5E454017015E5C2
:1051CF00DB30E2047F0080027F019003AFEFF070CD
:0D51DF000343E40443E4017F00227F162215
:104D8500900286E0FCA3E0FDECFF900280F0EDFED2
:044D9500900283F015
:104D9900EFFCED6057EC75F014A42480F582E4343F
:104DA90003F58375F005ED122716E0FF125C3EEC62
:104DB90075F014A42481F582E43403F58375F005B4
:104DC900ED122716E0FF125C30EC75F014A4248173
:104DD900F582E43403F583ED75F005122716E070CA
:104DE9003143D2807F64FE125BF18026EC75F006B8
:104DF900A424AEF582E43403F583E0FF125C3EECB3
:104E090075F006A424AFF582E43403F583E0FF12BC
:0C4E19005C30EC6003D38001C3921022D7
:1017E6007FC87E0020D909EF1F70011EEF4E70F4EE
:0817F60030D9037F00227FFEC1
:0117FE0022C8
:0346EE00E4FBFAF0
:0746F10090030EEFF0EDF95C
:1046F800F5D489D6E4A3F090030EE0F5D5C2D97FAE
:10470800C87E0020D909EF1F70011EEF4E70F4E437
:10471800F5D520D9037FFE2220D9030247D630DE03
:10472800037F0022E5D9540FFF640E70030247BED1
:10473800EF640A701DEB4A7002807BC3EB94FFEABA
:1047480094FF5005EB1B70011A90030FE014F00260
:1047580047D990030EE0C4540F24F7602724FC6067
:1047680004240C706630DE037F0022EF64027002BE
:10477800FF22EFFD640E6005ED640A70028037EFDA
:10478800604F804330DE037F0022E9600DEF640B49
:1047980070047E01800F7E00800BEF640370047E3E
:1047A8000180027E00EE60037F0022EFFD640E6050
:1047B80005ED640A7003EF800EEFFD64037005EDEC
:1047C800640B600DEF600A4420FF227FFE2275D83B
:1047D800FF7F0F7E00125BF190030FE004F0C3949B
:0C47E800037480948050030246FF7F2081
:0147F40022A2
:103D0A009003017401F0A37402F074F5A3F07B012F
:043D1A007A00794072
:103D1E00E4900304F0A3F0900308EBF0A3EAF0A301
:103D2E00E9F0900301E0F9A3E0FAA3E090030BC9D8
:103D3E00F0A3EAF0A3E9F0125BED90030BE0FBA316
:103D4E00E0FAA3E0F9EA494B6004E41225F975D7CD
:103D5E00087B107A27E4FD7FD01246F1900306EF20
:103D6E00F06003E0FF2275D6D075D4D075D70190E0
:103D7E000047E0FE900046E0FDEDFF900304EEF0FC
:103D8E00A3EFF04E7003023F53900308E0FBA3E055
:103D9E00FAA3E0F9EA494B7003023F53900040E06A
:103DAE0020E703023E61900304E07002A3E070037B
:103DBE00023E5B125BED7B107A27ADD47F901246EC
:103DCE00F1900306EFF0E0FF600122AFD190030403
:103DDE00E0FCA3E0FDD39FEC94004004AFD1800241
:103DEE00EDFF900307EFF0E0FFC3900305E09FF0B7
:103DFE00900304E09400F090030BE0FBA3E0FAA321
:103E0E00E0F9EA494B6004EF1225D7E4FF9003076F
:103E1E00E06F602874002FF582E43400F583E0FE35
:103E2E00900308E0FBA3E0FAA3E0F9EE1225F99067
:103E3E000309E475F00112260B0F80D1AFD1EF60AC
:103E4E000C900383E01455D17003023DB4E4F5D712
:103E5E00023F53900304E07002A3E07003023F534D
:103E6E00125BED900383E0FFFD900304E0FAA3E004
:103E7E00FBC39DEA940040028002EBFF8FD79003B4
:103E8E0008E0FBA3E0FAA3E0F99000011225AA6472
:103E9E000970439003ACE0640160047F0180027FEF
:103EAE00009003ACEFF01225F9900308E0FBA3E0BD
:103EBE00FAA3E0F9122591FF900311E4F0A3EFF0BD
:103ECE009003ACE0FF900313E4F0A3EFF07BFF7AD6
:103EDE00107986123387E4FFEF65D76028900308C8
:103EEE00E0FBA3E0FAA3E0F9122591FE74402FF552
:103EFE0082E43400F583EEF0900309E475F00112CC
:103F0E00260B0F80D37B107A27ADD67F101246F189
:103F1E00900306EFF0E0FF600122AFD7C3900305D8
:103F2E00E09FF0900304E09400F090030BE0FBA3FD
:103F3E00E0FAA3E0F9EA494B7003023E61E5D712BD
:103F4E0025D7023E61125BEDE5D760047F908002BB
:103F5E007F107B107A277DC01246F1900306EFF09A
:103F6E006003E0FF22AFD7EF7002FF22AFD1EF70F8
:053F7E0002FF227F1785
:013F8300221B
:105A3500E4FDED6408601B8F828E83E493FC744063
:105A45002DF582E43400F583ECF00FBF00010E0D57
:025A550080E0EF
:015A5700222C
:10583F009003837408F07E167F4A125A3590030145
:10584F007401F0A37402F074F8123D16EF60012298
:10585F00900047E0900383F0901650E493FF90027E
:0B586F00F8E0C39F50037F17227F006A
:01587A00220B
:10534F007E167F52125A35900301E4F0A37400F0D9
:10535F00A37413123D17EF600122901658E493FEC9
:10536F00E513C39E50037F1722900042E0F5137E92
:10537F00167F52125A35900046E513F0900301E460
:10538F00F0A37400F0A37413123D17EF6001229085
:10539F001658E493FFE513C39F400A900042E0FFC5
:0A53AF00E5139F50037F17227F00D3
:0153B90022D1
:0558F0009002F8EFF04A
:1058F5007E167F5A125A359002F8E0900042F090D9
:105905000301E4F0A3F0A3F0FBFAF9123D1EEF60EA
:1059150001229002F8E0FF125C3E7F0A7E00125BD6
:03592500A87F0058
:01592800225C
:055A7B009002F1E0FFC4
:105A8000EFFB7E167F62125A35EB900042F09003D6
:0D5A900001E4F0A3F0A3F0FBFAF9023D1EC3
:105AFB00EFFB7E167F6A125A35EB900044F0900351
:0D5B0B0001E4F0A3F0A3F0FBFAF9023D1E47
:105B1800EFFB7E167F72125A35EB900042F090032D
:0D5B280001E4F0A3F0A3F0FBFAF9023D1E2A
:105B3500EFFB7E167F7A125A35EB900044F0900306
:0D5B450001E4F0A3F0A3F0FBFAF9023D1E0D
:10547A0074F6F87402FC7401FD7BFF7A16799A7E41
:10548A00007F0812256BE4FFEF6408601B74F62F97
:10549A00F582E43402F583E0FE74402FF582E434A9
:1054AA0000F583EEF00F80E0123D0A7E167F8A1225
:1054BA005A35123D0AEF600122901650E493FF908C
:0C54CA0002F5E0C39F50037F17227F0013
:0154D60022B3
:1059BD007E167F82125A35900301E4F0A37400F035
:1059CD00A37413123D17EF600122901688E493FF24
:0B59DD00E513C39F50037F17227F00DB
:0159E800229C
:0C572A007F017E00125BA89002EFE0FF00
:1057360090004074A3F0A3E4F0A3F0A3F0A3EFF06D
:10574600A3E4F0A37404F0A3E4F0900301F0A374BF
:1057560000F0A37413123D17EF600122C3E5139402
:0C576600047480948050037F17227F00A1
:015772002214
:075929009002EFE0FF7D0496
:105930009000407423F0A37403F0EDA3F0A3E4F00F
:10594000A3EFF0A3E4F0A3F0A3F0F9900301C9F0F2
:0E595000A3F0A3E9F07B007A007900023D1E6F
:05595E009002EFE0FFE4
:105963009000407423F0A37401F0EDA3F0A3E4F0DE
:10597300A3EFF0A3E4F0A3F0A3F0F9900301C9F0BF
:0E598300A3F0A3E9F07B007A007900023D1E3C
:10587B007E167F92125A359003017401F0A37402C5
:10588B00F0A374F5123D17EF600122901699E49383
:10589B00FE901698E493FDEDFFC39002F6E09F9007
:0B58AB0002F5E09E50037F17227F00F3
:0158B60022CF
:0453BA007E007F40B2
:1053BE00E4F9FC8F828E83A3A3E0FBECC39B504BDE
:1053CE00EF2CF582E43EF583A3E064057025EF2C07
:1053DE00F582E43EF583A3A3A3E0540364037013A4
:1053EE00EF2CF582E43EF583A3A3E030E705540FDE
:1053FE00F98018EF2CF582E43EF583E0FDD394108E
:0D540E00748094805005ED2CFC80A8E9FF0F
:01541B00226E
:0509AA009002EEEFF0E9
:1009AF00E49002F4F07BFF7A10799C900311020A15
:1009BF00539002F4E0FFC3940A74809480400302C2
:1009CF001046EF75F064A4FFAEF0125BA8E004F0E0
:1009DF009002EEE0FF124F51E49002EFF0A3F0907F
:1009EF0002EFE0C3946474809480503B7F017E00DB
:1009FF00125BA89002EEE0FF12516FEF7021900290
:100A0F00EFF0A3E004F09002F4E075F00AA4FF9079
:100A1F0002F0E0D39FE5F06480F87480985008905E
:100A2F0002EFE004F080B89002EFE060219002EE58
:100A3F00E0FF1259917BFF7A1079B69002EEE0FF3A
:100A4F00900311E4F0A3EFF01233870209C0900274
:100A5F00EEE0FFE4FD124D997BFF7A1079E8123337
:100A6F008712583F9002F0EFF060030210149002CB
:100A7F00EFF0901650E493FF9002EFE0FEC39F500B
:100A8F00257BFF7A1079F674402EF582E43400F559
:100A9F0083E0FF900311E4F0A3EFF012338790028D
:100AAF00EFE004F080CC7BFF7A1079FD1233879052
:100ABF000044E09002F2F090165CE493FF9002EE97
:100ACF00E02FFF1258F09002F0EFF06003021014C5
:100ADF0090165C93FF9002EEE0FE2FFFEE75F0068E
:100AEF00A424AEF582E43403F583EFF07BFF7A1094
:100AFF0079FF12338712534F9002F0EFF060030229
:100B0F001014900045E09002F1F0E49002EFF090A5
:100B1F000042E0FF9002EFE0FEC39F50257BFF7A7B
:100B2F001079F674402EF582E43400F583E0FF90DF
:100B3F000311E4F0A3EFF01233879002EFE004F01B
:100B4F0080CD7BFF7A1079FD12338790004EE090B5
:100B5F0002F3F09002F2E07042A3E06408703C12DE
:100B6F005A7B9002F0EFF060030210149002EEE057
:100B7F00FF75F006A424ADF582E43403F583740306
:100B8F00F0EF75F006A424B0F582E43403F5837416
:100B9F0008F07BFF7A11790D020DEC9002F2E06004
:100BAF0003020CD0A3E064076003020CD090004F47
:100BBF00E064016003020CD07BFF7A11791D1233C0
:100BCF0087900053E0FF7E006405701AA3E0FD607C
:100BDF00159002EEE075F006A424B1F582E434031B
:100BEF00F583EDF0802CEF64054E7026900054E0F5
:100BFF00FF7C0060047D0180027D00ED4C7013903E
:100C0F0002EEE075F006A424B2F582E43403F58316
:100C1F00EFF090005AE0FF7E0064057020900054C2
:100C2F00E0601A90005BE0FD9002EEE075F006A424
:100C3F0024B1F582E43403F583EDF08030EF6405E1
:100C4F004E702A900054E07E0060047F0180027F86
:100C5F0000EF4E701890005BE0FF9002EEE075F031
:100C6F0006A424B2F582E43403F583EFF0125A7B25
:100C7F009002F0EFF06003021014A3E0FF125B1874
:100C8F009002F0EFF012587B9002F0EFF060030249
:100C9F0010149002EEE0FF75F006A424ADF582E487
:100CAF003403F5837403F0EF75F006A424B0F582D6
:100CBF00E43403F5837407F07BFF7A11792B020D6F
:100CCF00EC9002F2E06003020DFBA3E0640360030B
:100CDF00020DFB90004FE0D3940174809480400389
:100CEF00020DFB1253BA9002F0EFF0540FFF900277
:100CFF00EEE075F006A424B1F582E43403F583EF3A
:100D0F00F0900050E09002F3F0125A7B9002F0EF57
:100D1F00F07BFF7A11793C900311E4F0A3EFF0120E
:100D2F0033879002F0E060030210147BFF7A117991
:100D3F004612338712547A9002F0EFF0704090020F
:100D4F00EFF09002EFE0FFC3944074809480502541
:100D5F007BFF7A1079F674402FF582E43400F58327
:100D6F00E0FF900311E4F0A3EFF01233879002EF4E
:100D7F00E004F080CD7BFF7A1079FD12338790026B
:100D8F00EEE075F006A424ADF582E43403F5837428
:100D9F0003F07F0A125AFB9002F3E06401701C907B
:100DAF0002EEE075F006A424B0F582E43403F58377
:100DBF007423F07BFF7A11795580229002F3E0645F
:100DCF000270209002EEE075F006A424B0F582E4E4
:100DDF003403F5837433F07BFF7A1179691233870B
:100DEF0002100D9002F074FBF00210149002F2E06A
:100DFF0064096003020FAD1253BA9002F0EFF05482
:100E0F000FFF9002EEE075F006A424B2F582E434F1
:100E1F0003F583EFF07BFF7A11797A12338712593A
:100E2F00BD9002F0EFF060030210149002EFF0900B
:100E3F000040E0FF9002EFE0FEC39F50257BFF7A5A
:100E4F001079F674402EF582E43400F583E0FF90BC
:100E5F000311E4F0A3EFF01233879002EFE004F0F8
:100E6F0080CD7BFF7A1079FD123387900042E0FF2F
:100E7F009002EEE0FE75F006A424B1F582E434038F
:100E8F00F583EFF0EE75F006A424B1F582E4340398
:100E9F00F583E0D394047480948040149002EEE0C4
:100EAF0075F006A424B1F582E43403F5837404F0DD
:100EBF00125A7B9002F0EFF060030210149002EED2
:100ECF00E0FF75F006A424ADF582E43403F58374D6
:100EDF0003F0EF75F006A424B0F582E43403F58334
:100EEF007409F09002EF7401F09002EEE0FF75F0DC
:100EFF0006A424B1F582E43403F583E0FE9002EFFB
:100F0F00E0D39E504DEF75F014A4247FF582E434A6
:100F1F0003F583C083C0829002EFE0FFD082D083BD
:100F2F0075F005122716E4F07D081259309002F083
:100F3F00EFF060167BFF7A1179889002EFE0FF9057
:100F4F000311E4F0A3EFF01233879002EFE004F007
:100F5F0080979002EF7401F09002EEE075F006A416
:100F6F0024B1F582E43403F583E0FE9002EFE0FF55
:100F7F00D39E50281257369002F0EFF060167BFF89
:100F8F007A1179AA9002EFE0FF900311E4F0A3EF3A
:100F9F00F01233879002EFE004F080BC80607BFF9B
:100FAF007A1179D49002F2E0FF900311E4F0A3EFED
:100FBF00F09002F3E0FF900313E4F0A3EFF012338D
:100FCF0087125A7B9002F0EFF0703A9002EEE0FF3A
:100FDF0075F006A424ADF582E43403F5837403F0B1
:100FEF009002F2E0FE600280059002F3E0FEEF75E2
:100FFF00F006A424ADF582E43403F583EEF07F010F
:10100F00125C301F227BFF7A1179ED9002F0E0FF26
:10101F00900311E4F0A3EFF01233879002EEE07526
:10102F00F006A424ADF582E43403F5837402F07F57
:0C103F0001125C300209C09002F0E0FFDA
:01104B002282
:105638007BFF7A127905123387E4781DF6781DE628
:10564800FFC394027480948050387BFF7A127915D6
:10565800900311E4F0A3EFF0123387781DE6FF758D
:10566800F006A424ADF582E43403F583E064017008
:105678000C1209AA781CEFF66003E6FF22781D06D3
:0456880080BB7F0064
:01568C0022FB
:082FAA009002F1EFF0A3EDF03D
:102FB2007BFF7A127928FF900311E4F0A3EFF0125D
:102FC20033877BFF7A1279439002F1E0FF9003117D
:102FD200E4F0A3EFF01233879002F2E0FD70037F7A
:102FE200FE229002F1E0FF124D997BFF7A12794E98
:102FF200AFD2900311E4F0A3EFF012338712583FDF
:103002009002F4EFF06003E0FF22900044E09002AF
:10301200F6F09002F1E004C454F0FFA3E02FFF9019
:1030220002F5F01258F09002F4EFF06003E0FF2294
:103032009002F5E0FF9002F1E075F014A42480F50F
:1030420082E43403F583C083C0829002F2E0D0822E
:10305200D08375F005122716EFF07BFF7A1079FF07
:1030620012338712534F9002F4EFF06003E0FF2215
:10307200900045E09002F5F0E49002F3F0900042F7
:10308200E0FF9002F3E0FEC39F50257BFF7A1079A8
:10309200F674402EF582E43400F583E0FF900311CC
:1030A200E4F0A3EFF01233879002F3E004F080CD56
:1030B2007BFF7A1079FD12338790004EE09002F781
:1030C200F09002F6E07061A3E06408705B9002F594
:1030D200E0FF125A809002F4EFF060030232D590C2
:1030E20002F1E0FF75F014A4247FF582E43403F5C5
:1030F20083C083C0829002F2E0FED082D08375F05A
:10310200051227167403F0EF75F014A42482F582D9
:10311200E43403F58375F005EE1227167408F07B8C
:10312200FF7A11790D0232179002F6E06003023243
:103132001FA3E06403600302321F90004FE0D394A8
:103142000174809480400302321F1253BA9002F439
:10315200EFF09002F1E075F014A42483F582E434D8
:1031620003F583C083C0829002F2E0D082D08375DF
:10317200F005122716EFF0900050E09002F7F09061
:1031820002F5E0FF125A809002F4EFF0600302327F
:10319200D59002F1E0FF75F014A4247FF582E434A7
:1031A20003F583C083C0829002F2E0FED082D08316
:1031B20075F0051227167403F09002F7E0640170AF
:1031C20020EF75F014A42482F582E43403F58375AC
:1031D200F005EE1227167423F07BFF7A11795580E1
:1031E200349002F7E0640270329002F1E075F0145C
:1031F200A42482F582E43403F583C083C082900262
:10320200F2E0D082D08375F0051227167433F07B7A
:10321200FF7A1179691233870232CE804B9002F61F
:10322200E06409704B9002F1E075F014A42482F579
:1032320082E43403F583C083C0829002F2E0D0823C
:10324200D08375F0051227167409F07BFF7A127984
:103252006B1233879002F3E0FF7D011259639002F3
:10326200F4EFF06003E0FF229002F474FBF080635D
:103272009002F5E0FF125A809002F4EFF070549041
:1032820002F1E0FF75F014A4247FF582E43403F523
:1032920083C083C0829002F2E0FED082D08375F0B8
:1032A200051227167403F09002F6E0FD6002800515
:1032B2009002F7E0FDEF75F014A42482F582E43465
:1032C20003F58375F005EE122716EDF07F01125C0F
:1032D200301F227BFF7A1279939002F4E0FF900371
:1032E20011E4F0A3EFF01233879002F1E075F014CD
:1032F200A4247FF582E43403F583C083C082900264
:10330200F2E0D082D08375F0051227167402F07FA6
:0933120001125C309002F4E0FFAE
:01331B00228F
:053A8D009002EEEFF0D5
:103A92007BFF7A1279AC1233879002EF7401F090B7
:103AA20002EEE0FF75F006A424B1F582E43403F5DA
:103AB20083E0FE9002EFE0D39E4003023D07E4FD67
:103AC200124D991257319002F0EFF06003E0FF229D
:103AD200900040E030E007900042E020E00B9000D0
:103AE20042E064106003023C489002EEE0FE75F092
:103AF20014A4247FF582E43403F583C083C082904A
:103B020002EFE0FFD082D08375F005122716740110
:103B1200F0EE75F014A42480F582E43403F5837585
:103B2200F005EF122716E4F01257369002F0EFF08C
:103B32006003E0FF22900041E030E1047F00800258
:103B42007F019002EEE0FE75F014A42481F582E478
:103B52003403F583C083C0829002EFE0FDD082D0AF
:103B62008375F005122716EFF0EE75F014A4248188
:103B7200F582E43403F58375F005ED122716E07B38
:103B8200FF60077A1279B9ED80087A1279DE900225
:103B9200EFE0FF900311E4F0A3EFF01233877FC848
:103BA2007E00125BA81259299002F0EFF06003E048
:103BB200FF227BFF7A13790212338712572A90026F
:103BC200F0EFF06003E0FF22900040E020E4EC7FA1
:103BD200647E00125BA87D1412595E9002F0EFF031
:103BE2007D1012595E9002F0EFF06003E0FF2212A6
:103BF20057319002F0EFF06003E0FF22900040E0C6
:103C0200540170259002EEE075F014A4247FF58231
:103C1200E43403F583C083C0829002EFE0D082D007
:103C22008375F005122716E4F09002EEE0FFA3E0A0
:103C3200FD122FAA9002F0EFF06003E0FF227F0155
:103C4200125C30023CFE900042E030E1369002EF1E
:103C5200E0FF7D111259637BFF7A13791F123387BC
:103C62001259299002F0EFF06003E0FF2212572A66
:103C72009002F0EFF06003E0FF22900040E020E4C9
:103C8200EC8079900040E0540170719002EEE07592
:103C9200F014A4247FF582E43403F583C083C08248
:103CA2009002EFE0FFD082D08375F005122716E074
:103CB200C394017480948040117BFF7A137935900C
:103CC2000311E4F0A3EFF01233879002EEE075F0F7
:103CD20014A4247FF582E43403F583C083C0829068
:103CE20002EFE0FFD082D08375F005122716E4F0D0
:103CF200900042E030E0057D101259639002EFE03F
:073D020004F0023AA17F006A
:013D09002297
:1052DA007BFF7A137951123387E49003BDF0900370
:1052EA00BDE0FF6402605BEF75F006A424ADF582B1
:1052FA00E43403F583E0C3940374809480403B90C4
:10530A0003BDE075F006A424B0F582E43403F58306
:10531A00E064097025FD124D999003BDE0FF123A31
:10532A008DEF60117BFF7A137961900311E4F0A38A
:10533A00EFF01233877F01125C309003BDE004F076
:04534A00809C7F00C4
:01534E00223C
:0547F5009002EEEFF060
:1047FA00E4A3F09002EFE0FF640270030248E9EFDD
:10480A0075F006A424B0F582E43403F583E0FD9044
:10481A0002EEE0FFED6F701FA3E0FF75F006A4241F
:10482A00ADF582E43403F583E0C394037480948085
:10483A004005EF7F00FE22ED640960030248E09024
:10484A0002EFE075F006A424ADF582E43403F583A3
:10485A00E0C3940374809480407C9002F07401F069
:10486A009002EFE0FF75F006A424B1F582E4340368
:10487A00F583E0FE9002F0E0FDD39E5059EF75F00B
:10488A0014A42482F582E43403F58375F005ED124D
:10489A002716E0FF9002EEE0FEEF6E7031A3E0FF14
:1048AA0075F014A4247FF582E43403F583C083C031
:1048BA00829002F0E0D082D08375F005122716E0CC
:1048CA00C39403748094804005EFFEEDFF229002AA
:1048DA00F0E004F0808A9002EFE004F00247FD7EE7
:0348EA00FF7FFF4E
:0148ED0022A8
:105ADD00C29FD29EC29DD29C438780E589540F44BC
:0E5AED0020F58943C9A0758DF3D28ED299227F
:10577300C2EA75E280E4F5E39024477448F07400CC
:10578300FF740090244CCFF0A3EFF07400FF74403B
:1057930090244ECFF0A3EFF0E4F5D4F5D675E2896B
:1057A30075D24075D8FFFEEE64026008EEFF125911
:0757B300910E80F375E10384
:0157BA0022CC
:0B4AB9009002EEEBF0A3EAF0A3E9F09E
:104AC40074F1F87402FC7401FD7BFF7A1679A27EFE
:104AD400007F0812256B9002EEE0FBA3E0FAA3E04E
:104AE400F99000011225AAFF1225914FFF900003AF
:104AF4001225AA4FFF9000041225AA4FFF9000052B
:104B04001225AA4FFF9000061225AA4FFF90000716
:104B14001225AA70047E0180027E00EE4FFF9002EF
:104B2400EEE0FBA3E0FAA3E0F99000021225AA64E8
:104B34005370047E0180027E00EE5F6036E4FFEF76
:104B44006408601B74F12FF582E43402F583E0FEFF
:104B540074402FF582E43400F583EEF00F80E0908A
:104B640003017401F0A37402F0A374F9123D17EF6A
:054B74006001227F003A
:014B79002219
:055B8C00900280EFF023
:105B9100EF60137BFF7A13797C900311E4F0A3EF9C
:075BA100F012338780FE22A1
:10000300E4900285F0125ADD7BFF7A137989AFA160
:10001300900311E4F0A3EFF01233871257731258D1
:10002300B7C20F7BFF7A13799D123387E490028264
:10003300F030D810C2D8124C2E900282EFF0641523
:100043007002D20F300F2D900282E064157025C22A
:100053000F7FC8FE125BA8125638900282EFF06041
:10006300137BFF7A1379ADE0FF900311E4F0A3EF64
:10007300F01233877F331247F5900286EEF0A3EF39
:10008300F0F47002EEF470030201C47BFF7A13797B
:10009300C8900286E0FFA3E0900311CFF0A3EFF036
:1000A300123387124D85900283E0FF90028060191E
:1000B300E075F014A42483F582E43403F58375F02A
:1000C30005EF122716E0FF8010E075F006A424B1B7
:1000D300F582E43403F583E0FF900284EFF0540FDC
:1000E30070030201B6E0FE547F4490FFEE30E70454
:1000F3007DC080027D001246EE900282EFF0600325
:1001030002019D900284E06480F0900283E0FF602E
:100113001FA3E0FE900280E075F014A42483F5820F
:10012300E43403F58375F005EF122716EEF080181B
:10013300900284E0FF900280E075F006A424B1F5FC
:1001430082E43403F583EFF0900283E5D1F0E060BD
:100153006B7BFF7A1379DB123387E4900280F09094
:100163000283E0FF900280E0FEC39F50257BFF7A6D
:100173001079F674002EF582E43400F583E0FF90E5
:100183000311E4F0A3EFF0123387900280E004F050
:1001930080CD7BFF7A1079FD801F900282E0FF649F
:1001A3002A60197BFF7A1379E8900311E4F0A3EF37
:1001B300F080067BFF7A1379FA1233877F01125C92
:1001C300307F231247F5900286EEF0A3EFF0F47030
:1001D30002EEF4700302032B7BFF7A14791790026B
:1001E30086E0FFA3E0900311CFF0A3EFF012338773
:1001F300124D85900283E0FF9002806019E075F054
:1002030014A42483F582E43403F58375F005EF1217
:100213002716E0FF8010E075F006A424B1F582E410
:100223003403F583E0FF900284EFF07BFF7A1479C7
:100233002D900311F0123387900284E0FE540F7067
:100243000302031DEE547F4490FFEE30E7047DC0AC
:1002530080027D001246EE900282EFF060030203FB
:1002630004900284E06480F0900283E0FF601FA3A7
:10027300E0FE900280E075F014A42483F582E43458
:1002830003F58375F005EF122716EEF08018900240
:1002930084E0FF900280E075F006A424B1F582E4C7
:1002A3003403F583EFF0900283E5D1F0E060747BD3
:1002B300017A007900124AB97BFF7A147934123338
:1002C30087E4900280F0900283E0FF900280E0FEDA
:1002D300C39F50257BFF7A1079F674002EF582E4D4
:1002E3003400F583E0FF900311E4F0A3EFF0123341
:1002F30087900280E004F080CD7BFF7A1079FD8047
:100303001F900282E0FF642A60197BFF7A1479440C
:10031300900311E4F0A3EFF080067BFF7A14795980
:100323001233877F01125C307F231247F5900286D8
:10033300EEF0A3EFF0F47002EEF4700302048C7B92
:10034300FF7A147917900286E0FFA3E0900311CFA0
:10035300F0A3EFF0123387124D85900283E0FF90F4
:1003630002806019E075F014A42483F582E4340359
:10037300F58375F005EF122716E0FF8010E075F0A6
:1003830006A424B1F582E43403F583E0FF900284EC
:10039300EFF07BFF7A14792D900311F012338790DD
:1003A3000284E0FE540F700302047EEE547F4490F7
:1003B300FFEE30E7047DC080027D00E4FBFA1246C5
:1003C300F1900282EFF06003020465900284E0641E
:1003D30080F0900283E0FF601FA3E0FE900280E0C4
:1003E30075F014A42483F582E43403F58375F005D2
:1003F300EF122716EEF08018900284E0FF9002803F
:10040300E075F006A424B1F582E43403F583EFF03C
:10041300900283E5D1F0E0606B7BFF7A14793412AC
:100423003387E4900280F0900283E0FF900280E043
:10043300FEC39F50257BFF7A1079F674002EF58258
:10044300E43400F583E0FF900311E4F0A3EFF0122E
:100453003387900280E004F080CD7BFF7A1079FD32
:10046300801F900282E0FF642A60197BFF7A14796F
:1004730044900311E4F0A3EFF080067BFF7A147934
:10048300591233877F01125C30E4900280F09002AE
:1004930080E0FFC394027480948040030205ABEFB5
:1004A30075F006A424ADF582E43403F583E0640318
:1004B30060030205A2900280E075F006A424B0F563
:1004C30082E43403F583E0640960030205A2FD12AC
:1004D3004D99900280E075F006A424B2F582E434CD
:1004E30003F583E0900284F0540F7003020591E05A
:1004F300FE547F4490FFEE30E7047DC080027D0010
:10050300E4FBFA1246F1900282EFF07068900284E5
:10051300E06480F0FE900280E0FF75F006A424B250
:10052300F582E43403F583EEF0900283E5D1F0E045
:10053300606D123A8DE4900280F0900283E0FF90A8
:100543000280E0FEC39F50257BFF7A1079F674008A
:100553002EF582E43400F583E0FF900311E4F0A369
:10056300EFF0123387900280E004F080CD7BFF7AB6
:100573001079FD8027900282E0FF642A60217BFFCF
:100583007A147979900311E4F0A3EFF0800E7BFFE6
:100593007A147989900280E0900311F012338790E6
:1005A3000280E004F0020491E5C1540160030206F5
:1005B300F4FE7F40FD7B017A00794012280B900006
:1005C30040741BF0A37440F0A3741DF0A37455F0A2
:1005D300A37442F0A37402F0A37418F0A3741DF083
:1005E300A37476F0A37430F0E4A3F0A37430F0E4C2
:1005F300A3F0A37418F07F071247F5900286EEF07C
:10060300A3EFF0F47002EEF470030206F47BFF7ABA
:100613001479A9900286E0FFA3E0900311CFF0A321
:10062300EFF0123387124D85900283E0FF90028032
:100633006019E075F014A42483F582E43403F58390
:1006430075F005EF122716E0FF8010E075F006A4A1
:1006530024B1F582E43403F583E0FF900284EFF0E4
:100663007BFF7A14792D900311F012338790028463
:10067300E0FE540F607675D740EE547F4410FFEED2
:1006830030E7047DC080027D0074FFFBFA1246F15F
:10069300900282EFF0703B900284E06480F07E0071
:1006A3007F407D007B017A00794012280B75D7408B
:1006B300900284E0FE547F4410FFEE30E7047DC0D7
:1006C30080027D0074FFFBFA1246F1900282EFF084
:1006D300801A900282E0FF642A60117BFF7A14790A
:1006E300BE900311E4F0A3EFF01233877F01125C95
:1006F300307F081247F5900286EEF0A3EFF0F47016
:1007030002EEF4700302002F7BFF7A1479D21233C6
:1007130087124D85750A04E4900280F0900280E010
:10072300640A60227BFF7A1479F612338712541C11
:10073300900282EFF0600F7F327E00125BA890027E
:1007430080E004F080D6AF0AC3EF940574809480F0
:1007530050030209927BFF7A1579061233877423BB
:10076300F87400FCE4FD7BFF7A1579111227EE1271
:100773002000900282EFF064B36005EF6442700CD6
:100783007BFF7A15792112338702087F7BFF7A1565
:10079300792FAF0A900311E4F0A3EFF0123387909F
:1007A3000288E4F0A37464F07BFF7A157942900326
:1007B30011E4F0A37464F0123387900288E0FEA37F
:1007C300E0FF4E7003020870D3EF941FEE94009085
:1007D30002814005741FF08002EFF0900281E0FF78
:1007E3007823E4F608EFF6087402F608748AF61222
:1007F3004000900282EFF07823E6FE08E6FFC39004
:100803000289E09FF0900288E09EF0E4900280F07D
:10081300900280E0782466700218E6602B7BFF7AF2
:1008230015795F900280E0FF7825E6FC08E68C836B
:100833002FF582E43583F583E0900311F0123387BB
:10084300900280E004F080C8900281E0FFC3782426
:10085300E69F18E6940040030207BD7BFF7A1079F8
:10086300FD1233877BFF7A1579621233877BFF7A18
:10087300157970123387125264125B8C7BFF7A15E1
:1008830079771233877423F87400FCE4FD7BFF7AD5
:100893001579841227EE123800900282EFF0125B72
:1008A300917BFF7A15799112338790031174FFF0CE
:1008B300A37415F0A3749CF07B017A02798A123336
:1008C30081900280EFF0E4A3F0900281E0C3940AE8
:1008D30074809480503D900280E0FF7823E4F60812
:1008E300EFF6087402F608748AF612287D900282E5
:1008F300EFF0125B917BFF7A1579DE900281E0FFC6
:10090300900311E4F0A3EFF0123387900281E00427
:10091300F080B67BFF7A1579EF123387782B76FF59
:1009230074FF7829F608F67827765108760F78232E
:100933001226CCFFFFFFFF123681125B8C7BFF7AFE
:1009430015797012338778237601125264125B8C07
:100953007BFF7A1579F71233877423F87400FCE46C
:10096300FD7BFF7A1579FF1227EE1249E190028091
:10097300EFF060137BFF7A167908E0FF900311E430
:10098300F0A3EFF01233877BFF7A16792480137B71
:10099300FF7A167931900282E0FF900311E4F0A30D
:0709A300EFF012338780FE24
:105C100021FF000000000000A1FE000000000100C4
:064EC0009003431226C01E
:104EC60090035BE0FF900346E06F7024900358E088
:104ED600FF900343E06F7018900359E0FF9003447E
:104EE600E06F700C90035AE0FF900345E06F605846
:104EF600900343E0FCA3E0FDA3E0FEA3E0FF9003E4
:104F0600581226C090033CE0FEA3E0FBCAEECA6539
:104F16000C7003EA650B7014900343E0FCA3E0FDFC
:104F2600A3E0FEA3E0FF90035C1226C0CEEACECF3C
:104F3600EBCFCDEFCDCCEECC7F01124B7A8F0DEFC0
:0B4F46006003125BD6AF0D227F00223B
:104E2500900376E0FCA3E0FDA3E0FEA3E0FF900382
:044E3500431226C03E
:104E390090035FE0FF900346E06F702490035CE00D
:104E4900FF900343E06F701890035DE0FF90034407
:104E5900E06F700C90035EE0FF900345E06F6054D3
:104E6900900343E0FCA3E0FDA3E0FEA3E0FF900371
:104E79005C1226C0AB0CAA0B90033CE06A7003A33A
:104E8900E06B7014900343E0FCA3E0FDA3E0FEA3F4
:104E9900E0FF9003581226C0CEEACECFEBCFCDEF7C
:104EA900CDCCEECC7F01124B7A8F0DEF6003125BF4
:074EB900D6AF0D227F00229D
:10553200900343E0FCA3E0FDA3E0FEA3E0FF9003A1
:10554200581226C090033CE0FEA3E0FBCAEECA65F7
:105552000C7003EA650B7014900343E0FCA3E0FDBA
:10556200A3E0FEA3E0FF90035C1226C0CEEACECFFA
:10557200EBCFCDEFCDCCEECC7F01121F408F0DEFE4
:085582006003125BD6AF0D229D
:1050EF008F118E108D0F8C0EE509241AF582E43581
:1050FF0008F583E50EF0A3E50FF0E5092414F5821A
:0C510F00E43508F583E510F0A3E511F08D
:10511B00900343E0FCA3E0FDA3E0FEA3E0FF9003BC
:10512B005C1226C0AB0CAA0B90033CE06A7003A385
:10513B00E06B7014900343E0FCA3E0FDA3E0FEA33F
:10514B00E0FF9003581226C0CEEACECFEBCFCDEFC7
:10515B00CDCCEECC7F01121F408F0DEF6003125BA5
:04516B00D6AF0D228C
:102C2A00900347E0FCA3E0FDA3E0FEA3E0FF9003CE
:062C3A00381226C0E4FF81
:102C40008FD390036FE0FBB40212900338E0FCA333
:102C5000E0FDA3E0FEA3E0FF78018014EBB40315D0
:102C6000900338E0FCA3E0FDA3E0FEA3E0FF7802C0
:102C7000122653803EC20090033BE030E002D200B7
:102C8000900338E0F8A3E0F9A3E0FAA3E0FBE8C082
:102C9000E0900338E0FCA3E0FDA3E0FEA3E0FF78B2
:102CA00001122640D0E0F8EB2FFFEA3EFEE93DFDA1
:102CB000E83CFC9003381226C0900336E024FFFF66
:102CC000EFFE90033AE0FCA3E0FDEE5CFEEDFF902A
:102CD000033DE02FF50990033CE03EF508900338F2
:102CE000E0FCA3E0FDA3E0FEA3E0125B52900370C2
:102CF000E0F8A3E0F9A3E0FAA3E02FFFEA3EFEE943
:102D00003DFDE83CFC9003381226C090035BE0FFD9
:102D100090033BE06F7024900358E0FF900338E08D
:102D20006F7018900359E0FF900339E06F700C90BA
:102D3000035AE0FF90033AE06F601F300D07124C1A
:102D4000DBEF600122900338E0FCA3E0FDA3E0FE8E
:102D5000A3E0FF124EC0EF600122E5D36044E5D34B
:102D6000B4040C9003381226E5FFFFFFFF8031E525
:102D7000D3B4010C9003381226E500000000802037
:102D8000900363E0900338F0900362E0900339F021
:102D9000900361E090033AF0900360E090033BF011
:102DA000D20DC20E90036FE0FB640270468509826B
:102DB000850883E0F50FA3E0F510850F11E4F50E0B
:102DC000F50FC3E51194F7E51094FF4002D20EE52C
:102DD000D36014900338E0FFA3E08509828508835F
:102DE000CFF0A3EFF0E1A7300E02E1A7AE10AF11D4
:102DF000E4E19FEB64037071AF09AE08125C208FB1
:102E0000118E108D0F8C0EE50E54F0FF90033BE0F9
:102E1000540F4FF0530E0FE50ED3940F5016E50EDE
:102E2000B40F13E50FB4FF0EE510B4FF09E511C3AD
:102E300094F74002D20EE5D36016900338E0FCA36D
:102E4000E0FDA3E0FEA3E0FF850982850883E1A4FD
:102E5000300E02E1A7900360E50EF0A3E50FF0A3AA
:102E6000E510F0A3E511F0E1A7850982850883E06C
:102E7000F511900338E0FFC454F0FEE511540F4EF5
:102E8000F50EA3E0C454F0FEEFC4540F4EF50F90BE
:102E90000336E024FFFFEFFE90033DE024FFFF90A8
:102EA000033CE03EFEEF65097003EE650860438574
:102EB0000982850883A3E0F510E5D37002E168304C
:102EC000000F850982850883E50EF0A3E50FF0E188
:102ED00068900338E0850982850883F0900339E023
:102EE000540FFFE51054F04F850982850883A3F045
:102EF0008076E5D36014300004AF0E80059003386F
:102F0000E0FF850982850883EFF0A20DE43345D305
:102F10006007124CDBEF600122900358E0FCA3E055
:102F2000FDA3E0FEA3E02401FFE43EFEE43DFDE45A
:102F30003CFC124EC0EF60012290033CE0FEA3E097
:102F4000FFF5828E83E0F510E5D3601C300004AD00
:102F50000F800D900339E0540FFDE51054F04DFD46
:102F60008F828E83EDF0D20DE4F50EF50F30001454
:102F7000E510C4F854F0C868F510E511C4540F48C2
:102F8000F511800353100FC3E51194F7E510940F6A
:102F90004002D20EE5D3700F200E0CAE10AF11FC24
:0A2FA000FD9003601226C07F00229E
:1044CC0090033EE0FCA3E0FDA3E0FEA3E0FF90031D
:1044DC0060E0F8A3E0F9A3E0FAA3E0FBD312262FE7
:1044EC0040037FB122900360E0FCA3E0FDA3E0FE5B
:1044FC00A3E02401FFE43EFEE43DFDE43CFC90021D
:10450C00EE1226C0122C38CBEFCB9002EEE0FCA3BF
:10451C00E0FDA3E0FEA3E0FF9003601226C0EB6079
:10452C0002FF22E511700AE50E450F45107002C11D
:10453C00D4900340E0FF9002F0E06F701A90033EBD
:10454C00E0FF9002EEE06F700E90033FE0FF9002F0
:10455C00EFE06F700281CC90036FE0FF640170029A
:10456C0081CC90033CE0FCA3E08C08F509EF6402DD
:10457C00703E900336E075F080A424FFFFE5F03424
:10458C00FFF50E8F0FF5108F1174022509F509E454
:10459C003508F508850982F583E07004A3E060779F
:1045AC00E50F150F7002150E14AE0E4E70DBC1B078
:1045BC00900336E075F040A424FFFFE5F034FFF5DE
:1045CC000E8F0FF5108F1174042509F509E43508C9
:1045DC00F508850982F583E06002C1A0A3E06002C2
:1045EC00C1A0850982850883A3A3E06002C1A085D0
:1045FC000982850883A3A3A3E0540F6002C1A085A0
:10460C000982850883A3A374FFF08509828508833A
:10461C00A3A3A3E0440FF085098285088374FFF0FF
:10462C00A3F0AE10AF11900360E0F8A3E0F9A3E0A3
:10463C00FAA3E04FFFEA4EFEE9FDE8FCEEC0E0EF26
:10464C00C0E0E50F24FFFFE50E34FFCBEFCBFAD033
:10465C00E0FFD0E0FEC3EF9BFFEE9AFEED9400FD71
:10466C00EC9400FC9003601226C090033EE0FCA387
:10467C00E0FDA3E0FEA3E0FF900360E0F8A3E0F907
:10468C00A3E0FAA3E0FBD312262F40037FB122D282
:10469C000D7F0022E50F150F7002150E14AE0E4E95
:1046AC006002A1D3900360E0F8A3E0F9A3E0FAA3C1
:1046BC00E0FBAE10AF11EB4FFFEA4EFEE9FDE8FC5C
:1046CC009003601226C081CC9002EEE0FCA3E0FDCA
:1046DC00A3E0FEA3E0FF9003381226C07F04122C47
:0246EC0040226A
:105BBF001244CCEF64B16001229003601226E5001D
:075BCF000000001244CC228B
:10200000E50AC394105007121800EF600122125A1B
:1020100058EF600122C20B7823E6FF7002FF22EF27
:10202000645C6004EFB42F0890037A7424F0801786
:102030007824E6643A600201FBEFC3944350020146
:10204000FB90037A7426F090036FE0FBB4031090CA
:10205000037BE0FCA3E0FDA3E0FEA3E0FF8005E43A
:10206000FFFEFDFC9003471226C090037AE0F8E6DD
:10207000600221019003651226E5FFFFFFFFEB647C
:1020800003604F90034A7402F090037EE0900337A0
:10209000F0900350E0FCA3E0FDA3E0FEA3E0FFEF1F
:1020A000C0E0900337E0FBD0E0FFC3EF9BFFEE946E
:1020B00000FEED9400FDEC9400FC9003501226C04D
:1020C000900337E0FFE4FCFDFE125B6F90036512A6
:1020D00026C0900347E0FCA3E0FDA3E0FEA3E0FFE1
:1020E0009003601226C090037F1226E500000000D6
:1020F000E490034BF0750A127F412290037A742317
:10210000F0900347E0700CA3E07008A3E07004A314
:10211000E06046900337E090034BF0900347E0FC0B
:10212000A3E0FDA3E0FEA3E024FEFFEE34FFFEEDFE
:1021300034FFFDEC34FFFC900342E0F9F812265323
:10214000900350E0F8A3E0F9A3E0FAA3E02FFFEA40
:102150003EFEE93DFDE83C802490037EE090034B89
:10216000F0FB900350E0FCA3E0FDA3E0FEA3E0C37E
:102170009BFFEE9400FEED9400FDEC9400FC9003B8
:10218000761226C090034BE070028148124E25EF74
:10219000600122E490034EF0A3F0900336E0FE903D
:1021A000034EE0FCA3E0FDC39400EC9E40028121BD
:1021B000ED250CF509EC350BF508850982F583E072
:1021C000FF70028178EF64E570028111EFB40502BF
:1021D0007FE590037AE0F8E6FE6F6007EE642A6020
:1021E000028111EF6E70047F0180027F008F10AFBB
:1021F00010EFC3940B5059AE1090037AE02EF8E61E
:10220000FEE5092FF582E43508F583E0FD6E603BBD
:10221000EE6009645C6005EE642F701FED64207051
:102220002FEFC394085010E5092408F582E435081F
:10223000F583E0642070197F0B8015EEB42E11E554
:102240001064086004EDB420077F070F051080A11B
:10225000AE1090037AE02EF8E6F511EFC3940B5020
:10226000026151E509240BF582E43508F583E0307D
:10227000E3026151C20EE509241AFFE43508FE129B
:102280005C4AE4FCFD9003471226C090036FE0B463
:102290000314E5092414FFE43508FE125C4A900398
:1022A00047EEF0A3EFF0E5116005200E02614590C6
:1022B0000347E0FCA3E0FDA3E0FEA3E0FF90036082
:1022C0001226C090037F1226E500000000E4900370
:1022D0004BF0E509240BF582E43508F583E030E4A2
:1022E0001E9003651226E5FFFFFFFF7D137F10128E
:1022F0005A5CEF600122300E037F43227F4122E5CA
:1023000009241CFFE43508FE125C209003651226A8
:10231000C0900347E0701AA3E07016A3E07012A308
:10232000E0700EA374FFF09003651226E500000034
:10233000007D147F10125A5CEF600122300E037F83
:1023400043227F0022E51004FF90037AE02FF02162
:1023500001E511642A60028111E509240BF582E48C
:102360003508F583E030E3028111E5A1645960038B
:102370007F1122900365E0FCA3E0FDA3E0FEA3E053
:10238000FFEC4D4E4F602E900365E030E7031217CF
:10239000FF900365E0FCA3E0FDA3E0FEA3E024FFC3
:1023A000FFEE34FFFEED34FFFDEC34FFFC900365DF
:1023B0001226C0805CE4FFF50EE5092FF582E435B6
:1023C00008F583E064206036EFB4080CAE0E90038D
:1023D0007AE02EF8762E050EE5092FF582E4350811
:1023E000F583E0FEAD0E90037AE0FC2DF8EEF6E505
:1023F0000E7009C8ECC8E6B4050276E5050E0FEFCD
:10240000B40BB6AF0E90037AE02FF8E4F6D20E418B
:102410007690034FE02420F090034EE03400F0214A
:102420009A900376E0FCA3E0FDA3E0FEA3E0240184
:10243000FFE43EFEE43DFDE43CFC9003761226C042
:1024400090034BE014F02184900347E0700CA3E06C
:102450007008A3E07004A3E0601E122C2AEF600154
:1024600022200E14900347E50EF0A3E50FF0A3E53C
:1024700010F0A3E511F02101E4FF90037AE0CEEF24
:10248000CE0F2EF8E6FE6010642A600CEE645C60ED
:0B24900004EEB42FE57FB3227F422250
:10558A00900360E0FCA3E0FDA3E0FEA3E024FEFF9D
:10559A00EE34FFFEED34FFFDEC34FFFC900342E0F5
:1055AA00F9F8122653900350E0F8A3E0F9A3E0FAC1
:1055BA00A3E02FFBEA3EFAE93DF9E83CF890034BF9
:1055CA00E0FFE4FCFDFEEB2FFFEE3AFEED39FDECC9
:0855DA0038FC9003430226C0D7
:1048EE00900347E0700EA3E0700AA3E07006A3E009
:1048FE00700221CF7827122666125B52EFC0E0902D
:10490E00034BE0FBD0E0FFC3EF9BF511EE9400F5F7
:10491E0010ED9400F50FEC9400F50EAF11AE10AD46
:10492E000FAC0E7823122672C312262F401778234F
:10493E00122666C3EF9511FFEE9510FEED950FFD55
:10494E00EC950E8054900347E0FCA3E0FDA3E0FE3F
:10495E00A3E0FF9003601226C0900337E0FFE4FC53
:10496E00FDFE7823122672C312262F403490036068
:10497E00122C2DEF600122200E477823122666EFAF
:10498E00C0E0900337E0FBD0E0FFC3EF9BFFEE9457
:10499E0000FEED9400FDEC9400FC78231226B4800A
:1049AE00B87826E690034BF012558A900343E0FC4C
:1049BE00A3E0FDA3E0FEA3E0FF78231226B47F0060
:1049CE002290034B74FFF078231226CCFFFFFFFFDB
:0349DE007F002235
:035C59007F132294
:105BD60090035C1226E5FFFFFFFF9003581226E5AF
:075BE600FFFFFFFFC20D22CB
:045A58007D107F102E
:105A5C00AE0AEEC39F4005CEEDCE8D0AEE6D700200
:0F5A6C00FF22750A011257BBEF6001227F8322D0
:105A1000AB0DEBB41611750A019003691226E5006F
:105A2000000000CFEBCF22EBB41507750A02CFEBD5
:055A3000CF227F0022DF
:1054D7007F027E00125BA8900375E50DF01257BBA3
:1054E700EF600122E50AC3940450037F83227E5CA8
:1054F7007F10125A35900374E0900044F0E4FDFFEA
:10550700FE123D1E8F0DEFB416012290036EE0547C
:105517000FFF125B3590036DE0540F4480FF125B61
:0B55270035900375E0FFF50DE4F02265
:10580000900048EDF0A3E4F0A3F0A3F0ED60047E77
:105810008080027E0090004CEEF0900364E09000E7
:105820004DF0A37406F0A3EFF0A3E4F0A3F0A3F00F
:0F583000A3EDF0A3E4F0A3F0A3F0A3F0A3F02204
:07427A001258007E007F6274
:104281008E158F169000407455F0A37453F0A374EB
:1042910042F0A304F075D71F90036EE0FF90037501
:1042A100E0FD7BE87AFD1246F18F0DEFB416012295
:1042B100EF60397E007F627C007D407B1B7A0012BB
:1042C1005A9D1254D77E007F407C007D627B1B7A11
:1042D10000125A9D90036EE0FF900375E0FD7BE8AC
:1042E1007AFD1246F18F0DEF600281C6900375E0F1
:1042F1006440F0900048E0FDA3E0FF4D7002818B27
:10430100EFF513EDF51490004CE020E70261D5D2F2
:1043110001E5144513700261C9E5137007E514C383
:104321009440400C90244CE515F0A3E516F0800C68
:10433100C20190244C7400F0A37400F090036DE06E
:10434100FF900375E0FD7BE87AFD1246F18F0DEFDA
:10435100601E90244C7400F0A37400F0EF642E6092
:10436100012290036DE0540F4480FF125B358058A9
:10437100900375E06480F030011FE5D1644070481E
:1043810074C02514F51474FF3513F5137440251604
:10439100F516E43515F5156112AFD1AE14EEC39FD4
:1043A1005003CFEECFE4FEEE6F601D74002EF58258
:1043B100E43400F583E0851682851583F00516E562
:1043C10016700205150E80DF90244C7400F0A37462
:1043D10000F0818BE514451370028181E5137008AB
:1043E100AF14EFC39440402690244EE515F0A3E5A9
:1043F10016F074C02514F51474FF3513F5137440C9
:104401002516F516E43515F51575D7408037902436
:104411004E7400F0A37440F08FD7E4FFE5146F6091
:104421001F851682851583E0FE74402FF582E434E2
:1044310000F583EEF00516E516700205150F80DC18
:10444100E4F513F51490036EE0FF900375E0FD7B36
:10445100E87AFD1246F18F0DEF601C90244E740036
:10446100F0A37440F0EF642E60012290036EE054DB
:104471000FFF125B358009900375E06440F061D550
:1044810090244E7400F0A37440F090036DE0FF900F
:104491000375E0FD7BE87AFD1246F18F0DEF6001B7
:1044A10022900375E06480F0750D1FE5D1640D6005
:1044B10003AF0D2290000CE0FE7004F50DFF22EE1B
:0B44C100C3940240030254D7AF0D2249
:105ABE007F0A7E00125BA87D127F0312427A7F0559
:0F5ACE007E00125BA8E50D7002FF22125A102213
:10506A00751209750E0F7D087F2512580090004EA3
:10507A00740AF0900053E4F012427DAF0DEF7020F5
:10508A00900068E0FEB4040575120A8040EEB40888
:10509A000575120B8037EE6410703275120C802D74
:1050AA00EF64166028EF64156023EF6413601E8FA7
:1050BA000F125ABE850F0DE50E7E0030E3047F40C5
:1050CA0080027FC8125BA8150EE50E7099E51224BE
:1050DA00F8FF7401C8EFC8088002C333D8FC9003F4
:0550EA0036F0AF0F22BB
:1016AA001257BBEF600122E50AC3940450037F83FB
:1016BA0022750A0412534F8F0DEF60012290004EDB
:1016CA00E06408705FC20CA3E0B40602D20C90007A
:1016DA004BE0900374F0E4F50EE50E600790005BB2
:1016EA00E0FF8005900054E0FF8F0FE50E60079041
:1016FA00005DE0FF8005900056E0FFEF6440702433
:10170A00E50F30E70CE50F540F449090036DF0801D
:10171A000AE50F540F441090036EF0050EE50EB45F
:10172A0002B78006750D1FAF0D22900045E0FF122B
:10173A005A808F0DEF600122E4F50E7E5C7F18124D
:10174A005A35900374E0900044F07D0FAF0CAE0B55
:10175A00123D1E8F0DEF7010E50FB4011A850C8231
:10176A00850B83E0F50E800FE50DB42E07E4FF121A
:10177A005B358003AF0D227F057E00125BA8125BEA
:10178A00D6E4900375F0900364F07D247F1212581A
:10179A0000AF0CAE0B124281E50D7023E50E601806
:1017AA00900364E07012850C82850B83E0B405080F
:1017BA009003647401F080D27D057F04025A5CE5CF
:1017CA000E600E900364E0C394035005E004F080B9
:0C17DA00B9E4900364F07F0112568D22E8
:10541C0078231226CC000000001257BBEF6001224B
:10542C00E50AC3940550301216AAEF600E7F407E39
:10543C0000125BA81216AAEF60012212506AEF60EC
:10544C0003AF0D22900062E0FCA3E0FDA3E0FEA3FD
:10545C00E0FF78231226B4E4FDFF12427AE50D70CA
:0E546C0002FF22850D0E125ABEAF0E8F0D22CA
:10568D00E4FDFCE4F5A10DBD00010CBC01F5BDF47C
:10569D00F2EFC394024014AE0AEEB41205750A057A
:1056AD008009EED394104003750A10AE0DEF60140F
:1056BD00EE6416600FEE6415600A125ABECEEFCE80
:0F56CD00EE7001227F027E00125BA8125A10229B
:10180000E50AC39405500A1216AAEF60012212508D
:101810006A125BD6900369E0FCA3E0FDA3E0FEA39F
:10182000E054F0FFEC7B707A5679347812C31226BC
:101830002F700A90036CE0540FF5098003E4F5095A
:10184000E4900337F090034BF09003651226E50017
:101850000000009003431226E500000000124E39FC
:10186000EF600D1254D712506A124E39EF60012208
:10187000E509700F850C82850B83E054FD64E970E7
:101880000221B3E50C24FEF582E50B3401F583E07B
:10189000FEA3E064AA7003EE645560037F9122907A
:1018A0000337E0F508E50864407002219FE50C2449
:1018B000BEFFE50B3401FE7C00EF2508FFEC3ECFB8
:1018C0002408CF3400FE125C209003431226C0E5AA
:1018D0000C24BEFFE50B3401FE7C00EF2508FFEC75
:1018E0003EF583EF2404F582E43583F583E0F50EBD
:1018F000E50E64056005E50EB40F51900343E0FC6E
:10190000A3E0FDA3E0FEA3E0FF900365E0F8A3E001
:10191000F9A3E0FAA3E0FBEF2BFFEE3AFEED39FD71
:10192000EC38FC9003431226C090034BE0600201A8
:101930005DE5082410F0900343E0FCA3E0FDA3E084
:10194000FEA3E0FF9003651226C0015DE50E30E7BF
:1019500003530E3FE50E603FE50EC3940F5038E58C
:101960000994015030900343E0FCA3E0FDA3E0FEA6
:10197000A3E0FF90035CE0F8A3E0F9A3E0FAA3E0A2
:10198000FBEF2BFFEE3AFEED39FDEC38FC90034304
:101990001226C0801E150974102508F50801A590AF
:1019A000034BE0FF600A900337E07004EFF0014959
:1019B0007F9222900343E0FCA3E0FDA3E0FEA3E0BE
:1019C000FF9003691226C0124E39EF600122850C88
:1019D00082850B83E054FD64E960037FA122E50C5E
:1019E00024FEF582E50B3401F583E0FEA3E064AA52
:1019F0007003EE645560037FA122E50C240DF5828F
:101A0000E4350BF583E0FF900337F0900342740751
:101A1000F0EF20E713EF25E0FF900342E014F0E041
:101A200070EF9003377401F0E50C2416FFE4350BDA
:101A3000FE125C4AE4FCFD9003541226C09003564B
:101A4000E0FEA3E04E7012E50C2424FFE4350BFE0B
:101A5000125C209003541226C0E50C2413FFE435D9
:101A60000BFE125C4AE4FCFD90037F1226C090033B
:101A700081E0FEA3E04E7012E50C2420FFE4350B5C
:101A8000FE125C2090037F1226C0E50C2411FFE4B7
:101A9000350BFE125C4A900336E033333354F814AE
:101AA0007C002FFFEC3EFEE51224FBFDEFC8EDC8E5
:101AB000088005CEC313CE13D8F9FFE4FCFD9003D4
:101AC0007B1226C0E50C240EFFE4350BFE125C4AA7
:101AD000E4FCFD9003701226C090037EE0FF7E00C0
:101AE000900372E0FCA3E02FFFEE3CFEE4FCFD90CF
:101AF0000354E0F8A3E0F9A3E0FAA3E02FF511EA1C
:101B00003EF510ED39F50FEC38F50EE50C2410F527
:101B100082E4350BF583E0900354B4021FE0FCA38C
:101B2000E0FDA3E0FEA3E02511F511EE3510F51060
:101B3000ED350FF50FEC350EF50E80071226E5009A
:101B4000000000900343E0FCA3E0FDA3E0FEA3E05F
:101B50002511FFEE3510FEED350FFDEC350EFC9036
:101B600003501226C090037FE0FCA3E0FDA3E0FE3B
:101B7000A3E0C39511FFEE9510FEED950FFDEC95DA
:101B80000EFC900342E0F9F812264090033E122624
:101B9000C0E47FF57EFFFDFC90033EE0F8A3E0F992
:101BA000A3E0FAA3E0FBC312262F5023E490034CDA
:101BB000F0A3F0900340E0FEA3E0C394F5EE940F91
:101BC00090036F50057401F080317402F0802CE5B1
:101BD0000C2430FFE4350BFE125C4A90034CEEF00F
:101BE000A3EFF0E50C242CFFE4350BFE125C2090F3
:101BF000037B1226C090036F7403F0900372E0FE23
:101C0000A3E04E605790037BE0FCA3E0FDA3E0FE61
:101C1000A3E0FFEC4D4E4F6043E50C2410F582E449
:101C2000350BF583E064016014900354E0FCA3E0FD
:101C3000FDA3E0FEA3E0FFEC4D4E4F601FE50C243A
:101C40000BF582E4350BF583E07011E50C240CF5FF
:101C500082E4350BF583E0C39402500CE50970056E
:101C600075090101407FA322900370E0FCA3E0FD11
:101C7000A3E0FEA3E0FF900343E0F8A3E0F9A3E0B4
:101C8000FAA3E0FBEF2BFFEE3AFEED39FDEC38FC5A
:0E1C90009003701226C07D107F05125A5C2250
:104CDB00900358E0FCA3E0FDA3E0FEA3E0FF9003EC
:104CEB00431226C0125532EF600122900354E0FCB0
:104CFB00A3E0FDA3E0FEA3E0FFEC4D4E4F607690EA
:104D0B000343E0FCA3E0FDA3E0FEA3E0FF9003540C
:104D1B00E0F8A3E0F9A3E0FAA3E0FBEF2BFFEE3AF8
:104D2B00FEED39FDEC38FC9003431226C090033C9A
:104D3B00E0FCA3E0FD7F01121F408F0D900343E0C9
:104D4B00FCA3E0FDA3E0FEA3E0FF900354E0F8A377
:104D5B00E0F9A3E0FAA3E0FBC3EF9BFFEE9AFEEDB5
:104D6B0099FDEC98FC9003431226C0E50D600612EA
:0A4D7B005BD6AF0D22C20D7F0022AF
:103F84001244CCEF600564B1600122EF601190032C
:103F9400601226E5000000001244CCEF60012212FA
:103FA4004CDBEF600122900360E0FCA3E0FDA3E0A2
:103FB400FEA3E0FF9003471226C0124E25EF6001D6
:103FC4002290034FE0250CF50990034EE0350BF5E4
:103FD40008F583E509241CF582E43583F58312266C
:103FE400E501000000900347E0FCA3E0FDA3E0FE30
:0A3FF400A3E0FF121FF91250EF22A4
:0851EC007FFF7EFF7DFF7CFFC9
:1051F4008F118E108D0F8C0E90034CE0FCA3E0FDFC
:105204004C7002FF22CFEDCFCEECCEE4FCFD900338
:1052140069E0F8A3E0F9A3E0FAA3E02FFFEA3EFE79
:10522400ED39FDEC38FC124E33EF600122E50C241D
:10523400E8FFE50B3401FE125C20EF2511FFEE358B
:1052440010FEED350FFDEC350EFC121FF9E50C24B4
:10525400E8F582E50B3401F5831226C012511B22B6
:1055E200C20BE50AC39414404A124E25EF60012211
:1055F20090034FE0250CF50990034EE0350BF508BA
:10560200F583E509240BF582E43583F583E020E494
:1056120022900365E0FCA3E0FDA3E0FEA3E0FF12FD
:105622001FF9E509241CF582E43508F5831226C02A
:0656320002511B7F002263
:10526400AF0AEFC3941250037FB422EFB4124690F6
:10527400036FE06403603E900342E0FF7401C8EFF3
:10528400C8088002C333D8FC900337F0900350E081
:10529400F8A3E0F9A3E0FAA3E0FB90037EE0FFE4C7
:1052A400FCFDFEEB2FFFEE3AFEED39FDEC38FC90F1
:1052B40003501226C0AF0AEFD394134009EFB4147D
:1052C400077823E67002C20B300B071255E2EF6039
:0652D4000122125A5822CB
:1049E100E50AC394135007122000EF600122125A06
:1049F10058EF600122124E25EF60012290034EE034
:104A0100FEA3E0250CF582E50B3EF58374E5F0127B
:104A1100511BEF600122900347E0F50EA3E0F50F73
:104A2100A3E0F510A3E0F511E50E450F4510451182
:104A3100700241B6900347E0FCA3E0FDA3E0FEA3B2
:104A4100E024FFFFEE34FFFEED34FFFDEC34FFFC0C
:104A51009003471226C09003601226E50000000073
:104A6100900338E50EF0A3E50FF0A3E510F0A3E500
:104A710011F07F01122C40EF600122900360E0FCF5
:104A8100A3E0FDA3E0FEA3E02401FFE43EFEE43D3C
:104A9100FDE43CFC9003601226C0300EC3124CDBD7
:104AA100EF600122900360E0FCA3E0FDA3E0FEA320
:084AB100E0FF0251F47F002236
:1038000012200090034BEFF070091249E1EF7002B3
:1038100021692290034BE0FF64426001229003364D
:10382000E0FEC390034FE0940090034EE09E5002F0
:103830002169900347E0700EA3E0700AA3E07006D0
:10384000A3E07002210D122C2AEF600122200E024B
:103850002169900347E0FCA3E0FDA3E0FEA3E0FFA5
:103860009003601226C0125BBFEF600122900347F5
:10387000E0FCA3E0FDA3E0FEA3E0FF9003381226E6
:10388000C07F02122C40EF600122124CDBEF60017E
:1038900022AF0CAE0B900336E0FDED6012E4FC8F1E
:1038A000828E83E4F00FBF00010EDCF31D80EBE499
:1038B00090034BF012558AE490034EF0A3F090036E
:1038C00043E0FCA3E0FDA3E0FEA3E0FF900376123B
:1038D00026C0900337E0F50EE50E602A12511BEF6B
:1038E000600122900343E0FCA3E0FDA3E0FEA3E01F
:1038F0002401FFE43EFEE43DFDE43CFC9003431262
:1039000026C0150E80D21251ECEF605D2290037E2E
:10391000E090034BF090037674FF122681124E3331
:10392000EF600122E490034EF0A3F0900336E0FE36
:1039300090034EE0FCA3E0FDC39400EC9E501FE515
:103940000C2DF582E50B3CF583E064E5601B9003EC
:103950004FE02420F090034EE03400F080CD90033F
:103960004BE014F070AF7FB222900347E0FCA3E07D
:10397000FDA3E0FEA3E0FF9003601226C0E5B15472
:10398000D064C060037F1122125BBFEF600122127E
:103990004CDBEF600122900360E0FCA3E0FDA3E0BC
:1039A000FEA3E0FF9003471226C01251ECEF600126
:1039B00022124E25EF60012290034FE0250CF509FD
:1039C00090034EE0350BF508E4FFEFC3940B500471
:1039D0007E2080027E00E5092FF582E43508F5831C
:1039E000EEF00FEFB420E3E5092418F582E4350882
:1039F000F5837421F0A37430F0E509241CF582E40A
:103A00003508F5837401F0E4FFEFC3940B50319057
:103A1000037AE0F8E6FE6028EEB42E087F089003F3
:103A20007AE004F090037AE0F8E6FEE5092FF582EB
:103A3000E43508F583EEF00F90037AE004F080C9D6
:103A4000900347E0FCA3E0FDA3E0FEA3E0FF121F0C
:103A5000F91250EFEF600122900347E0FCA3E0FD74
:103A6000A3E0FEA3E0FF9003601226C0900365125E
:103A700026E50000000090037F1226E5000000000C
:0D3A8000E490034BF07D147F10125A5C227D
:101C9E00D20B900336E0FE900342E0FDE4C8EDC89F
:101CAE00088005C333CE33CED8F924FFFFEE34FFC0
:101CBE00FEE4FCFD900365E0F8A3E0F9A3E0FAA3CF
:101CCE00E02FFFEA3EFEED39FDEC38FC900342E0DA
:101CDE002512F9F81226409003B91226C090037F00
:101CEE00E0FCA3E0FDA3E0FEA3E0FFC8E9C81226D6
:101CFE00409003381226C0900338E0FCA3E0FDA309
:101D0E00E0FEA3E0FF9003B9E0F8A3E0F9A3E0FA48
:101D1E00A3E0FBD312262F402D9003B9E0FCA3E0E5
:101D2E00FDA3E0FEA3E0FF900338E0F8A3E0F9A3E3
:101D3E00E0FAA3E0FBEF9BFFEE9AFEED99FDEC9827
:101D4E00FC9003B98011900347E0FCA3E0FDA3E0F3
:101D5E00FEA3E0FF9003601226C0900347E07029B7
:101D6E00A3E07025A3E07021A3E0701D900365E051
:101D7E00FCA3E0FDA3E0FEA3E0FFEC4D4E4F70028E
:101D8E00FF22123F84EF601F22900365E0FCA3E068
:101D9E00FDA3E0FEA3E0FFEC4D4E4F700A9003B999
:101DAE001226E500000001900360E0FCA3E0FDA315
:101DBE00E0FEA3E0FF78231226B49003B9E0FCA363
:101DCE00E0FDA3E0FEA3E024FFFFEE34FFFEED34C2
:101DDE00FFFDEC34FFFC9003B91226C0900360E0C7
:101DEE00FCA3E0FDA3E0FEA3E0FF9003381226C0A3
:101DFE0078271226B4E4FF122C40EF600122200E49
:101E0E0002C1A09003B9E0700CA3E07008A3E070CB
:101E1E0004A3E060067E007F0180047E007F00EF59
:101E2E004E700E78231226669003601226C07F0035
:101E3E00229003B9E0FCA3E0FDA3E0FEA3E0FF12B5
:101E4E0026211251F4EF600122900360E0FCA3E022
:101E5E00FDA3E0FEA3E0FF78271226B4125BBFEFCE
:101E6E0060012278271226669003381226C07F0260
:101E7E00122C40EF6001229003B974FF122681EC00
:101E8E004D4E4F70C478231226669003601226C002
:101E9E00E13C9003B9E06002A1C8A3E06002A1C8D2
:101EAE00A3E06002A1C8A3E06002A1C878271226B1
:101EBE00668F118E108D0F8C0E900338E50EF0A3E9
:101ECE00E50FF0A3E510F0A3E511F07F01122C4011
:101EDE00EF6001229003B9E0FCA3E0FDA3E0FEA3B6
:101EEE00E02401FFE43EFEE43DFDE43CFC9003B93A
:101EFE001226C0300EC39003B9E0FCA3E0FDA3E0B0
:101F0E00FEA3E0FF1251F4EF600122900347E0FCC4
:101F1E00A3E0FDA3E0FEA3E0FF9003601226C090B5
:101F2E00037F1226E500000000E490034BF0124CF4
:021F3E00DB22A4
:10368100E50AC3941350037FB422124E25EF600163
:1036910022C20090034FE0250CF50990034EE0355E
:1036A1000BF508782BE6FFE509240BF582E43508D4
:1036B100F583E0F6EFF4600FE509240BF582E435BC
:1036C10008F583EFF0D2007929E7F50F782AE6F5BE
:1036D1000EE5092416FFE43508FE125C4A7829EE4E
:1036E100F608EFF6E50FF47003E50EF46014E50952
:1036F1002416F582E43508F583E50EF0A3E50FF015
:10370100D2007927E7F50F7828E6F50EE5092418A8
:10371100FFE43508FE125C4A7827EEF608EFF6E57D
:103721000FF47003E50EF46014E5092418F582E442
:103731003508F583E50EF0A3E50FF0D200782312EA
:1037410026668F118E108D0F8C0EE509241CFFE467
:103751003508FE125C2078231226B4E50E550F556C
:10376100105511F46023AF11AE10AD0FAC0E9003E4
:10377100651226C0121FF9E509241CF582E43508FB
:10378100F5831226C0D200C20B30000302511B7F09
:02379100002214
:105BFF00E4FF74232FF876FF0FEFB40AF512368106
:015C0F002272
:1056DC00E50A641460037FB422900347E0FCA3E066
:1056EC00FDA3E0FEA3E0FF9003601226C090037FB1
:1056FC001226E500000000900347E0700CA3E07058
:10570C0008A3E07004A3E06007E490034BF080066C
:0E571C0090034B74FFF07D157F14125A5C222F
:10379300E50A641560071256DCEF60012290037F8F
:1037A300E0FCA3E0FDA3E0FEA3E0FF78271226B42C
:1037B300782312266690037F1226C0900365E0F8F3
:1037C300A3E0F9A3E0FAA3E0FBC312262F50149061
:1037D3000365E0FCA3E0FDA3E0FEA3E0FF90037F0D
:1037E3001226C090037FE0FCA3E0FDA3E0FEA3E06C
:0D37F300FF125B5278231226B41248EE221A
:10400000E50A641560071256DCEF6001227823E6AA
:10401000FF08E67827CFF608EFF6E47823F608F6EF
:1040200090034BE0B4FF037F00227828E618467027
:1040300002417790037FE0F8A3E0F9A3E0FAA3E060
:10404000FB900365E0FCA3E0FDA3E0FEA3E0C39BBF
:10405000F511EE9AF510ED99F50FEC98F50EE50EC9
:10406000450F4510451170024177E50EF47002418D
:104070007712558AE50E450F600674FFF510F511AD
:10408000D3E511782896E51018964007E6F5100854
:10409000E6F511900336E0FDFEC3E5119400E5104E
:1040A0009E5002216D900382E06002216DED14FFAD
:1040B000900381E05F6002216DE510FFE51224F8B6
:1040C000FEEFC8EEC8088002C313D8FCFF751000CD
:1040D0008F1190034BE0FF900337E0C39FFFAE11B9
:1040E000EED39F40057510008F11AF117926E77848
:1040F0002426FD19E71836FC124B7AEF600122AF37
:104100001190034BE02FF0AF11E51224F8FEEFC839
:10411000EEC8088002C333D8FC751100F510900377
:104120007FE0F8A3E0F9A3E0FAA3E0FBAE10AF1143
:10413000E4FCFDEB2FFFEA3EFEED39FDEC38FC9090
:10414000037F1226C0C37828E69511F618E695106D
:10415000F67824E51126F618E51036F6900337E0D8
:10416000FF90034BE0C39F5002012A413490033675
:10417000E0FD24FFFFEFFE900381E0FAA3E0FBEEF9
:104180005AFAEDFEC3E49BFFEE9AFED3E5119FE5DC
:10419000109E40048E108F11124E39EF6001229054
:1041A0000336E024FFFFEFFE900381E0FCA3E0FD77
:1041B000EE5CFEED250CFFEE350BFE7926E778244C
:1041C00026FD19E71836FCAB11AA10125A9D900370
:1041D0007FE0F8A3E0F9A3E0FAA3E0FBAE10AF1193
:1041E000E4FCFDEB2FFFEA3EFEED39FDEC38FC90E0
:1041F000037F1226C0C37828E69511F618E69510BD
:10420000F67824E51126F618E51036F6900382E0DC
:104210006002012A900336E014FF900381E05F60A2
:1042200002012A900337E0FF90034BE004F0C39FA4
:104230005002012A900360E0FCA3E0FDA3E0FEA38E
:10424000E0FF9003381226C0E4FF122C40EF60011B
:1042500022300E1C90034B74FFF090037FE0FCA310
:10426000E0FDA3E0FEA3E0FF9003651226C08007F7
:0A427000E490034BF0012A7F0022C6
:10287D00E50A641560071256DCEF6001227823E645
:10288D00FE08E6FF7827EEF6FE08EFF64E700630EE
:10289D000B030255E2E47823F608F67828E618468D
:1028AD007002811D90034BE0F460022158900347A4
:1028BD00E0700CA3E07008A3E07004A3E0605DE598
:1028CD000AB4120B90036FE0640360037FB1229092
:1028DD000360E0FCA3E0FDA3E0FEA3E0FF90037F17
:1028ED001226C0125BBFEF60012290037FE0FCA3B4
:1028FD00E0FDA3E0FEA3E0FF9003381226C07F02A7
:10290D00122C40EF60012290033CE0650B7004A394
:10291D00E0650C700E124CDBEF600822123F84EF65
:10292D006001227FFF7EFF7DFF7CFF1251F4EF607F
:10293D000122900365E0FCA3E0FDA3E0FEA3E0FF10
:10294D0090037F1226C0E490034BF012558A90033A
:10295D0036E024FFFFEFFE900381E0FCA3E0FDEEE7
:10296D005CFC90034BE0FF900337E0C39FFF7E00BC
:10297D00E51224F8FBEFC8EBC8088005C333CE334E
:10298D00CED8F9FEC3E49DF50FEE9CF50ED3E50F01
:10299D00782896E50E18964007E6F50E08E6F50F31
:1029AD00900336E0FDFEC3E50F9400E50E9E500248
:1029BD0041A7900382E0600241A7ED14FF900381CF
:1029CD00E05F600241A7E50EFFE51224F8FEEFC8B7
:1029DD00EEC8088002C313D8FCFF750E008F0FAF31
:1029ED000F7926E7782426FD19E71836FC121F40CB
:1029FD00EF600122AF0F90034BE02FF0AF0FE51208
:102A0D0024F8FEEFC8EEC8088002C333D8FC750F5A
:102A1D0000F50E90037FE0F8A3E0F9A3E0FAA3E040
:102A2D00FBAE0EAF0FE4FCFDEB2FFFEA3EFEED39E2
:102A3D00FDEC38FC90037F1226C0C37828E6950F75
:102A4D00F618E6950EF67824E50F26F618E50E36FF
:102A5D00F690037FE0FCA3E0FDA3E0FEA3E0FF9072
:102A6D000365E0F8A3E0F9A3E0FAA3E0FBC31226A7
:102A7D002F501690037FE0FCA3E0FDA3E0FEA3E042
:102A8D00FF9003651226C0D20B900337E0FF900331
:102A9D004BE0C39F500201A861EE900336E0FD2488
:102AAD00FFFFEFFE900381E0FAA3E0FBEE5AFAED93
:102ABD00FEC3E49BFFEE9AFED3E50F9FE50E9E400D
:102ACD00048E0E8F0F900382E0702F900336E0146A
:102ADD00FF900381E05F702290037FE0FCA3E0FD97
:102AED00A3E0FEA3E0FF900365E0F8A3E0F9A3E007
:102AFD00FAA3E0FBD312262F4007124E39EF6001E7
:102B0D00227926E7782426FF19E71836FEEEC0E075
:102B1D00EFC0E0900336E024FFFFEFFE900381E06D
:102B2D00FCA3E0FDEE5CFEED250CFDEE350BFCD0BF
:102B3D00E0FFD0E0FEAB0FAA0E125A9D90037FE08E
:102B4D00F8A3E0F9A3E0FAA3E0FBAE0EAF0FE4FCAF
:102B5D00FDEB2FFFEA3EFEED39FDEC38FC90037FD7
:102B6D001226C0C37828E6950FF618E6950EF6786E
:102B7D0024E50F26F618E50E36F612511BEF60010F
:102B8D002290037FE0FCA3E0FDA3E0FEA3E0FF9015
:102B9D000365E0F8A3E0F9A3E0FAA3E0FBC3122676
:102BAD002F501690037FE0FCA3E0FDA3E0FEA3E011
:102BBD00FF9003651226C0D20B900382E0600201E4
:102BCD00A8900336E014FF900381E05F600201A836
:102BDD00900337E0FF90034BE004F0C39F500201D8
:102BED00A8900360E0FCA3E0FDA3E0FEA3E0FF904E
:102BFD0003381226C0E4FF122C40EF600122300E84
:102C0D000890034B74FFF001A8E490034BF001A86A
:0D2C1D00300D07124CDBEF6001227F00221A
:105C20008F828E83E0FFA3E0FEA3E0FDA3E0FC22D1
:0A5C4A008F828E83E0FFA3E0FE22AC
:071FF900EFCCFFEECDFE224C
:105B5200C3E4CC13CD13CE13FFE51224F7600DF886
:0D5B6200C3ED13FDEE13FEEF13FFD8F42288
:105B6F00C3E4CF33CE33CD33FCE51224F7600DF809
:0D5B7F00C3EE33FEED33FDEC33FCD8F42211
:105A9D0005A28D828C8315A28F828E837F00EA6092
:105AAD0007E0A3A5DFFBDAF9EB6005E0A3A5DBFBBF
:015ABD0022C6
:03000000024FDECE
:0C4FDE00787FE4F6D8FD75814202502572
:10249B00E709F608DFFA8046E709F208DFFA803E23
:1024AB0088828C83E709F0A3DFFA8032E309F60810
:1024BB00DFFA8078E309F208DFFA807088828C8378
:1024CB00E309F0A3DFFA806489828A83E0A3F6082C
:1024DB00DFFA805889828A83E0A3F208DFFA804C06
:1024EB0080D280FA80C680D4806980F280338010DD
:1024FB0080A680EA809A80A880DA80E280CA803346
:10250B0089828A83ECFAE493A3C8C582C8CCC583BD
:10251B00CCF0A3C8C582C8CCC583CCDFE9DEE7808D
:10252B000D89828A83E493A3F608DFF9ECFAA9F00C
:10253B00EDFB2289828A83ECFAE0A3C8C582C8CC62
:10254B00C583CCF0A3C8C582C8CCC583CCDFEADE7B
:10255B00E880DB89828A83E493A3F208DFF980CCDD
:10256B0088F0EF60010E4E60C388F0ED2402B404D6
:10257B000050B9F582EB2402B4040050AF2323457D
:06258B0082239024EB7393
:10259100BB010689828A83E0225002E722BBFE0248
:0925A100E32289828A83E493227B
:1025AA00BB010CE58229F582E5833AF583E02250E6
:1025BA0006E92582F8E622BBFE06E92582F8E22230
:0D25CA00E58229F582E5833AF583E493224A
:1025D700BB010989828A83F8E028F022500327F794
:1025E70022BBFE05F8E328F3228A838982F8E49365
:0225F700282298
:1025F900BB010689828A83F0225002F722BBFE01C1
:02260900F322BA
:10260B00C5F0F8A3E028F0C5F0F8E582158270025A
:06261B001583E038F022F7
:0E262100C3E49FFFE49EFEE49DFDE49CFC22CA
:10262F00EB9FF5F0EA9E42F0E99D42F0E89C45F001
:01263F002278
:10264000E8600FECC313FCED13FDEE13FEEF13FF78
:03265000D8F1229C
:10265300E8600FEFC333FFEE33FEED33FDEC33FCE5
:03266300D8F12289
:0C266600E6FC08E6FD08E6FE08E6FF22A0
:0D267200E6FB08E6F908E6FA08E6CBF822D8
:10267F007401FF3395E0FEFDFCA3A3A3E02FFFF051
:10268F00E582158270021583E03EFEF0E582158229
:10269F0070021583E03DFDF0E5821582700215830F
:0526AF00E03CFCF022FC
:0C26B400ECF608EDF608EEF608EFF62252
:0C26C000ECF0A3EDF0A3EEF0A3EFF0228D
:1026CC00D083D082E493F608740193F608740293D5
:0926DC00F608740393F67404730C
:1026E500A8828583F0D083D0821226FC1226FC12A4
:1026F50026FC1226FCE473E493A3C583C5F0C583C9
:10270500C8C582C8F0A3C583C5F0C583C8C582C83E
:0127150022A1
:0C271600A42582F582E5F03583F58322CE
:10331C00E5172411F582E43403F583E005172290B8
:10332C00030E300903900311E475F00112283702E3
:10333C0025912002E97F2ED2028018EF540F2490A1
:10334C00D43440D4FF30060BEF24BFB41A00500322
:10335C002461FFE51860021518051BE51B700205BA
:10336C001A30090E90030EE475F001122837EF02A3
:10337C0025F90259E97403D2098003E4C209F5174F
:10338C0090030E12284EE4F518F51AF51BE518609B
:10339C00077F2012335F80F57519FFC203C202C28A
:1033AC0004C205C207C208C20A12332BFF700D30CB
:1033BC0009057F00123370AF1BAE1A22B4255FC211
:1033CC00D5C20612332BFF24D0B40A00501A75F064
:1033DC000A781830D50508B6FF0106C6A426F620D3
:1033EC00D5047002D20580D924CFB41A00EF500452
:1033FC00C2E5D206023571D20380C6D20280C0D299
:10340C000480BCD2D580BAD20780B47F2012335F3F
:10341C002004077401B5180040F112331CFF12335D
:10342C005F023399D20AD208809512331CFB1233F7
:10343C001CFA12331CF94A4B700679427A367BFF20
:10344C0020042EE518602A7E008E827583001225DA
:10345C00AA60060EEE651970F0C2D5EBC0E0EAC0AA
:10346C00E0E9C0E0EE1235B8D0E0F9D0E0FAD0E0F7
:10347C00FB122591FF60AAEBC0E0EAC0E0E9C0E0D6
:10348C0012335FD0E02401F9D0E03400FAD0E0FB35
:10349C00E5190460DCD519D980877BFF7A3579B4BE
:1034AC00D204809C791080027908C208C20A800874
:1034BC00D2D5790A8004790AC2D5E519047002F5CF
:1034CC0019E4FAFDFEFF12331CFC7B0820031312D7
:1034DC00331CFD7B1030020A12331CFE12331CFF0E
:1034EC007B20EC3382D592D55013C3E43002069F77
:1034FC00FFE49EFEE42003039DFDE49CFCE4CBF87A
:10350C00C203EC700CCFCECDCCE824F8F870F3806D
:10351C0017C3EF33FFEE33FEED33FDEC33FCEB332F
:10352C00FB994002FB0FD8E9EB300305F8D0E0C45F
:10353C0048B203C0E00AEC4D4E4F78207B0070C2BD
:10354C00EAB5190040BCC0E01235BAD0F0D0E0208A
:10355C000304C4C0E0C4B203C0F0123348D0F0D5A9
:10356C00F0EB02339912285734365334B0583407E1
:10357C004C34034234B44F34BC4434BC49341C4343
:08358C0034C25534A64634A6F2
