:101C9D005553422064657620696E0A0055534220E3
:101CAD00646576206F75740A0052657365742068DB
:101CBD006F737420706F72740A0044697361626C83
:101CCD006520686F737420706F7274206265636134
:101CDD00757365206F6620646973636F6E6E6563DF
:101CED00740A0047657444657644657363723A20DF
:101CFD0000782530325820000A0047657443666726
:101D0D0044657363723A2000496E6974526F6F7443
:101D1D0044657620457272203D20253032580A00E8
:101D2D00537461727420554449534B5F64656D6FF4
:101D3D0020404348353539554649206C69627261FA
:101D4D0072790A0057616974204469736B52656139
:101D5D0064790A0046696C654372656174650A00B1
:101D6D002F4D595F4144432E5458540042797465A8
:101D7D0057726974650A00B1BEB4CE414443CABE00
:101D8D00DD3D25642CCAB1BCE4BCC6CA3D25750D2C
:101D9D000A0046696C65436C6F73652077697468DA
:101DAD00207570646174696E672073697A650A00C5
:101DBD0046696C65204372656174652E2E57726994
:101DCD0074652E2E436C6F7365204F4B0A00457260
:101DDD00726F72436C6F73653D253032580A004641
:101DED00696C65436C6F73650A004572726F72574B
:101DFD00726974653D253032580A004572726F72F2
:101E0D004372656174653D253032580A004469732B
:101E1D006B206E6F742072656164793D2530325888
:101E2D000A0046696E697368656420554449534BD1
:101E3D005F64656D6F0A005374617274204043686E
:101E4D00697049443D253032580A00576169742044
:101E5D0044657669636520496E0A00256300416318
:101E6D0063657373205553422D6469736B0A004586
:101E7D007272436F64653D253032580A008006004A
:101E8D00010000120080060002000004000005029F
:101E9D000000000000000900000000000002010029
:051EAD00000000000030
:062C11008F278C288D299D
:102C1700E4F52AC3E52A94037480948050719000E8
:102C270048E4F0E56A24F8FFF8E527088002C33393
:102C3700D8FC900049F0A3E4F0A3F0A37480F090CF
:102C47000304E090004DF0A3740AF0A37428F0A3E6
:102C5700E4F0A3E550F0A3E551F0A3E552F0A3E5B6
:102C670053F0A3E4F0A3F0A3E527F0A3E4F0AF2922
:102C7700AE28121563AF61EF7002FF22AF2A122749
:102C8700AC8F61AF61EF6003AF6122052A80847565
:042C9700611F7F1F1B
:012C9B002216
:062B80008F278C288D292F
:102B8600E4F52AC3E52A9403748094805077900074
:102B960048E4F0E56A24F8FFF8E527088002C33325
:102BA600D8FC900049F0A3E4F0A3F0A3F09003044E
:102BB600E090004DF0A3740AF0A3742AF0A3E4F0A9
:102BC600A3E550F0A3E551F0A3E552F0A3E553F0D9
:102BD600A3E4F0A3F0A3E527F0A3E4F0AF29AE2821
:102BE600121563AF61EF70097FC8FE121FF27F00F6
:102BF60022AF2A1227AC8F61AF61EF6003AF61226B
:0A2C0600052A022B8975611F7F1F4C
:012C100022A1
:1033470053E37FAFE3EF64026007AFE3EF6403701B
:103357002CAFE3EF64027004AFE48002AFE5EF3017
:10336700E0037F0022AFE3EF640270047F0880026E
:103377007F80E5DB5F60067559027F002275590182
:023387007F16AF
:013389002221
:0107FF0022D7
:103406001217FDC3EF94137480948050037FFF223C
:103416007E007F808E5E8F5F9002E5EEF0A3EFF078
:10342600E4F559756A097548029003051213B4004C
:063436000000007F0022EF
:041FEE007FC87E002A
:0E1FF200EF4E600905A1EF1F70F61E80F3226E
:1035D600EFFDEEFCED4C600E7FE87E03121FF2ED70
:0735E6001D70F11C80EE22B4
:07368D00755901E4F5E42288
:1031D700E4F533E5DB30E321AF59EF64016006E541
:1031E700E45401703312368D7559027BFF7A1C79CE
:1031F7009D1204AB753315801FAF59C3EF9402744A
:10320700809480401312368D7BFF7A1C79A91204B3
:0A321700ABE5337003753316AF33D7
:01322100228A
:0C366B00EF547FFFE5E354804FF5E322AD
:103222007D307C759002807408F0E4FF12366BE505
:10323200E454FB4402F5E4ED4C602505A105A1052B
:10324200A105A105A105A105A105A105A1E5DB54E3
:1032520003600653E4FD7F0122ED1D70DA1C80D766
:0A32620053E4FD121FEEC2D87F00F6
:01326C00223F
:10356600AF59C3EF9402748094805003755902E5F5
:0D357600DB30E30643E4017F00227F1622D4
:1035BD007FC87E0020D909EF1F70011EEF4E70F4F9
:0835CD0030D9037F00227FFECC
:0135D50022D3
:062A05008F308A318B3294
:102A0B00EDFFF5D68FD4E4F5DD8530D5C2D97FC87F
:102A1B007E0020D909EF1F70011EEF4E70F4E4F514
:102A2B00D520D9037FFE2230D823C2D81231D7EF5D
:102A3B0064157002D20FAF59EF640170037F162239
:102A4B00AF59EF640270037F1522121FEE30D96568
:102A5B0030DE037F0022E5D9540FFFFD7C00640EAE
:102A6B007002800CED640A4C7020E5324531700326
:102A7B00EF803BC3E53294FFE53194FF5008E5321C
:102A8B0015327002153115DD802EE530C4540F243C
:102A9B00F7600D24FC6004240C7017EF601A800E95
:102AAB00EFFD64037005ED640B600DEF600A4420CD
:102ABB00FF227FFE2275D8FF7F0F7E00121FF205CB
:102ACB00DDAFDDC3EF9403748094805003022A14AE
:022ADB007F205A
:012ADD0022D6
:062402007E007F407D29F1
:1024080090031EEEF0A3EFF0A3EDF0121FEEE060D4
:1024180003F8E4F675D7087B107A27E4FD7FD0121D
:102428002A05EFFD60012275D6D075D4D075D70185
:10243800900047E060047FFF8005900046E0FF8F32
:102448002FE52F700302254890031EE07002A3E0D9
:102458007003022548900040E030E777E52F606E72
:10246800121FEE7B107A27ADD47F90122A05EFFD5C
:10247800600122E5D1C3952F5004AFD18002AF2F60
:10248800C3E52F9FF52F900320E06004F8EF26F6B0
:10249800E4FEEE6F602A74002EF582E43400F583C2
:1024A800E0FC90031EE0FAA3E0F5828A83ECF0904A
:1024B800031FE004F0700690031EE004F00E80D2C3
:1024C800AFD1EF6009900280E01455D1608EE4F539
:1024D800D7806DE52F6069121FEE900280E0FFE55E
:1024E8002FC39F40028002AF2F8FD7E4FFEF65D73D
:1024F800602A90031EE0FAA3E0F5828A83E0FE7466
:10250800402FF582E43400F583EEF090031FE004D9
:10251800F0700690031EE004F00F80D17B107A273C
:10252800ADD67F10122A05EFFD600122C3E52F9575
:10253800D7F52F900320E0609AF8E5D726F6809328
:10254800121FEEE5D760047F9080027F107B107A1F
:10255800277DC0122A05EF600122AFD7EF7002FF76
:0A25680022AFD1EF7002FF227F17AF
:012572002246
:1034C000E4FDED6408601B8F828E83E493FC7440FE
:1034D0002DF582E43400F583ECF00FBF00010E0DF2
:0234E00080E08A
:0134E20022C7
:10343C009002807408F07E1E7F8A1234C07E007F5A
:10344C00407D29122408EF600122900047E0900291
:10345C0080F0901E90E493FFE529C39F50037F17E3
:03346C00227F00BC
:01346F00223A
:103065007E1E7F921234C0122402EF600122901E50
:1030750098E493FEE529C39E50037F1722900042F2
:10308500E0F529E529D394407480948040037F17A7
:10309500227E1E7F921234C0900046E529F012244C
:1030A50002EF600122901E98E493FFE529C39F403B
:1030B5000A900042E0FFE5299F50037F17227F0019
:0130C50022E8
:023470008F29A2
:103472007E1E7F9A1234C0900042E529F0E4FDFFDF
:10348200FE122408EF600122AF2912366B7F0A7EFA
:06349200001235D67F0098
:013498002211
:10360400EFFB7E1E7FA21234C0900042EBF0E4FD7B
:05361400FFFE02240886
:10361900EFFB7E1E7FAA1234C0900044EBF0E4FD5C
:05362900FFFE02240871
:1030C600E4F9FC8F828E83A3A3E0FBECC39B504BF9
:1030D600EF2CF582E43EF583A3E064057025EF2C22
:1030E600F582E43EF583A3A3A3E0540364037013BF
:1030F600EF2CF582E43EF583A3A3E030E705540FF9
:10310600F98018EF2CF582E43EF583E0FDD39410A8
:0D311600748094805005ED2CFC80A8E9FF2A
:013123002289
:102573007BFF7A1C79B61204AB123222E4F525F5FF
:1025830026C3E52594647480948050207F017E00E7
:102593001235D6123566EF700FF5250526D3E526DD
:1025A300940F748094805004052580D5E525600F31
:1025B30012368D7BFF7A1C79C71204AB7F16227B00
:1025C300FF7A1C79F01204AB12343C8F26EF6003C0
:1025D300022681F525901E90E493FFE525C39F50C5
:1025E3001E7BFF7A1C79FE74402525F582E43400B6
:1025F300F583E0753700F5381204AB052580D67BEB
:10260300FF7A1D79051204AB900044E0F528901E73
:102613009CE493FF1234708F26EF70627BFF7A1D68
:1026230079071204AB1230658F26EF705190004585
:10263300E0F527E4F525900042E0FFE525C39F5030
:102643001E7BFF7A1C79FE74402525F582E4340055
:10265300F583E0753700F5381204AB052580D77B89
:10266300FF7A1D79051204AB90004EE0FFE5287058
:102673000AEF64087005755904FF227FFB227BFF74
:102683007A1D79157537008526381204AB75590202
:02269300AF2670
:012695002222
:10354800C29FD29EC29DD29C438780E589540F4476
:0E35580020F58943C9A0758DF3D28ED2992239
:1033C900C2EA75E280E4F5E39024477448F074009A
:1033D900FF740090244CCFF0A3EFF07400FF744009
:1033E90090244ECFF0A3EFF0E4F5D4F5D675E28939
:0D33F90075D24075D8FF12368D75E10322A4
:102696007BFF7A1D792D1204AB755904E4F525E507
:1026A60025640A601C7BFF7A1D79511204AB123136
:1026B600248F26EF600B7F327E001235D6052580EB
:1026C600DEAF59C3EF9405748094805003022791BE
:1026D6007BFF7A1D79611204AB746BF87400FCE41D
:1026E600FD7BFF7A1D796D1214B1121A518F26EFF8
:1026F60060030227837BFF7A1D79791204AB753755
:10270600FF75381D75398485F53A85F43BE58BF5FB
:102716003C7B017A0279811204A58F25786BE4F659
:1027260008EFF6087402F6087481F61210008F2678
:10273600EF70297BFF7A1D799F1204AB786B7601C7
:10274600122E958F26EF7BFF70067A1D79BD804786
:102756007A1D79DB753700852638803B7BFF7A1D2D
:1027660079EC1204AB7BFF7A1D79F7753700852665
:10277600381204ABE4786BF6122E95801D7BFF7A37
:102786001E7908753700852638800C7BFF7A1E79FE
:102796001A7537008526381204AB7BFF7A1E792F0F
:0527A6001204ABAF2698
:0127AB00220B
:102ADE001235487BFF7A1E7944AFA17537008F38C7
:102AEE001204AB1233C9123406C20F7BFF7A1E7961
:102AFE0058807AE4F52430D80EC2D81231D78F24FC
:102B0E00EF64157002D20F200F06E52464157014C1
:102B1E00C20F7FC87E001235D61225738F247E0019
:102B2E00EF6001227F647E001235D63098C51236D2
:102B3E00838F237BFF7A1E79688523371204ABE5DA
:102B4E0023B444AFAF59C3EF94047480948040A370
:102B5E007BFF7A1E796B1204AB1226968F24E52426
:102B6E0060917BFF7A1E797C753700F5381204ABC5
:022B7E00808154
:10363E0021FF000000000000A1FE000000000100BC
:103000009002FFE0655370149002FCE06550700C74
:10301000A3E065517006A3E065526046AF53AE521F
:10302000AD51AC509002FC12138F9002E5E0FEA36C
:10303000E0FBCAEECA655F7003EA655E700EAF53CF
:10304000AE52AD51AC5090030012138FCDEBCDCCEE
:10305000EACC7F01122C118F61EF60031235EDAFC6
:0530600061227F002247
:102E1F00900312E0FCA3E0FDA3E0FEA3E0F5538EC8
:052E2F00528D518C5092
:102E3400900303E065537014900300E06550700C38
:102E4400A3E065517006A3E065526042AF53AE52F1
:102E5400AD51AC5090030012138FAB5FAA5E900289
:102E6400E5E06A7003A3E06B700EAF53AE52AD5150
:102E7400AC509002FC12138FCDEBCDCCEACC7F0189
:102E8400122C118F61EF60031235EDAF61227F00C8
:012E9400221B
:10330100AF53AE52AD51AC509002FC12138F9002EC
:10331100E5E0FEA3E0FBCAEECA655F7003EA655E05
:10332100700EAF53AE52AD51AC5090030012138FDB
:10333100CDEBCDCCEACC7F01122B808F61EF600306
:063341001235EDAF612220
:102F07008F658E648D638C62E54F241AF582E435F4
:102F17004EF583E562F0A3E563F0E54F2414F582EF
:0C2F2700E4354EF583E564F0A3E565F0A9
:102F3300AF53AE52AD51AC5090030012138FAB5F41
:102F4300AA5E9002E5E06A7003A3E06B700EAF53D4
:102F5300AE52AD51AC509002FC12138FCDEBCDCCE1
:102F6300EACC7F01122B808F61EF60031235EDAF46
:022F73006122D9
:100C38009002ECE0FCA3E0FDA3E0FEA3E0F54D8EFE
:070C48004C8D4B8C4AE4FFC8
:100C4F008FD390030BE0FBB4020CAF4DAE4CAD4B0A
:100C5F00AC4A7801800EEBB40317AF4DAE4CAD4BE1
:100C6F00AC4A78021213228F4D8E4C8D4B8C4A80DA
:100C7F002AC200E54D30E002D200AF4DAE4CAD4B75
:100C8F00AC4A780112130FE54D2FF54DE54C3EF5AB
:100C9F004CE54B3DF54BE54A3CF54AE54824FFFF53
:100CAF00EF554CFEE54DFF9002E6E02FF54F900219
:100CBF00E5E03EF54EAE4CAD4BAC4A12358390039A
:100CCF000CE0F8A3E0F9A3E0FAA3E02FF54DEA3E1C
:100CDF00F54CE93DF54BE83CF54A9002FFE0654DD8
:100CEF0070149002FCE0654A700CA3E0654B70062F
:100CFF00A3E0654C601D300D07122C9CEF600122A4
:100D0F00854D53854C52854B51854A50123000EF1B
:100D1F00600122E5D36027E5D3B4040474FF800695
:100D2F00E5D3B4010BE4F54DF54CF54BF54A800CCA
:100D3F0085584A85574B85564C85554DD20DC20E59
:100D4F0090030BE0FB64027041854F82854E83E078
:100D5F00F563A3E0F564856365E4F562F563C3E5C8
:100D6F006594F7E56494FF4002D20EE5D3600F85DA
:100D7F004F82854E83E54AF0A3E54BF0E134300E08
:100D8F0002E134AE64AF65E4E12CEB64037067AF4E
:100D9F004FAE4E12364E8F658E648D638C62E56258
:100DAF0054F0FFE54D540F4FF54D53620FE562D3ED
:100DBF00940F5016E562B40F13E563B4FF0EE564AC
:100DCF00B4FF09E565C394F74002D20EE5D3601373
:100DDF00AF4DAE4CAD4BAC4A854F82854E8312134F
:100DEF008FE134300E02E134856255856356856498
:100DFF0057856558E134854F82854E83E0F565E56B
:100E0F004AC454F0FFE565540F4FF562E54BC454E7
:100E1F00F0FFE54AC4540F4FF563E54824FFFFEF99
:100E2F00FE9002E6E024FFFF9002E5E03EFEEF6554
:100E3F004F7003EE654E6039854F82854E83A3E078
:100E4F00F564E5D37002C1F530000F854F82854EF2
:100E5F0083E562F0A3E563F0C1F5854F82854E838C
:100E6F00E54AF0E54B540FFFE56454F04FA3F080D3
:100E7F0075E5D36011300004AF628002AF4A854F31
:100E8F0082854E83EFF0A20DE43345D36007122C19
:100E9F009CEF6001229002FCE0FCA3E0FDA3E0FECA
:100EAF00A3E02401F553E43EF552E43DF551E43C53
:100EBF00F550123000EF6001229002E5E0FEA3E052
:100ECF00FFF5828E83E0F564E5D3601A300004AD40
:100EDF0063800BE54B540FFDE56454F04DFD8F829D
:100EEF008E83EDF0D20DE4F562F563300014E56406
:100EFF00C4F854F0C868F564E565C4540F48F56547
:100F0F00800353640FC3E56594F7E564940F4002C3
:100F1F00D20EE5D3700F200E0CAE64AF658F588ED6
:080F2F0057F556F5557F00222D
:09220200E4F558F557F556F555C1
:10220B009002E7E0FCA3E0FDA3E0FEA3E0FFAB58E8
:10221B00AA57A956A855D31212FE40037FB122E547
:10222B00582401FFE43557FEE43556FDE43555FCE3
:10223B0090031A12138F8F4D120C47CBEFCB9003D9
:10224B001AE0FCA3E0FDA3E0FEA3E0F5588E578D4A
:10225B00568C55EB600122E565700AE562456345D6
:10226B0064700261E79002E9E0FF90031CE06F707D
:10227B001A9002E7E0FF90031AE06F700E9002E8ED
:10228B00E0FF90031BE06F7002410B90030BE0FF2C
:10229B0064017002410B9002E5E0FCA3E08C4EF56B
:1022AB004FEF6402703CE54875F080A424FFFFE516
:1022BB00F034FFF5628F63F5648F657402254FF57B
:1022CB004FE4354EF54E854F82F583E07004A3E065
:1022DB006075E56315637002156214AE624E70DBB8
:1022EB0061CFE54875F040A424FFFFE5F034FFF51E
:1022FB00628F63F5648F657404254FF54FE4354E9B
:10230B00F54E854F82F583E0600261BFA3E060026A
:10231B0061BF854F82854E83A3A3E0600261BF85B9
:10232B004F82854E83A3A3A3E0540F600261BF8548
:10233B004F82854E83A3A374FFF0854F82854E8316
:10234B00A3A3A3E0440FF0854F82854E8374FFF067
:10235B00A3F0AE64AF65EF4558FFEE4557FEE5566B
:10236B00FDE555FCEEC0E0EFC0E0E56324FFFFE5C3
:10237B006234FFCBEFCBFAD0E0FFD0E0FEC3EF9B94
:10238B00F558EE9AF557ED9400F556EC9400F5558B
:10239B009002E7E0FCA3E0FDA3E0FEA3E0FFAB5857
:1023AB00AA57A956A855D31212FE40037FB122D2C9
:1023BB000D7F0022E56315637002156214AE624E49
:1023CB0060026102AE64AF65E5584FF558E5574EB4
:1023DB00F557E556F556E555F555410B90031AE0C3
:1023EB00FCA3E0FDA3E0FEA3E0F54D8E4C8D4B8CE2
:0723FB004A7F04120C4F227F
:0D365E0012220BEF64B16001221222022241
:10000300E559C394105007120800EF60012212341F
:10001300E3EF600122C20B786BE6FF7002FF22EF71
:10002300645C6003BF2F0575606C8014786CE664B4
:100033003A600201EEEFC39443500201EE75606E25
:1000430090030BE0FBB40310900316E0FCA3E0FD68
:10005300A3E0FEA3E0FF8005E4FFFEFDFC9002ECBD
:1000630012138FA860E6600201F174FFF55DF55C81
:10007300F55BF55AEB6403604C9002EF7402F09069
:100083000319E0F5499002F4E0FCA3E0FDA3E0FED0
:10009300A3E0FFEFC0E0AF49CBEFCBD0E0FFC3EF6E
:1000A3009BFFEE9400FEED9400FDEC9400FC9002A7
:1000B300F412138FAF49E4FCFDFE1235A08F5D8E61
:1000C3005C8D5B8C5A9002ECE0FCA3E0FDA3E0FEA8
:1000D300A3E0F5588E578D568C55E4F569F568F510
:1000E30067F566F5547559127F412275606B90026E
:1000F300ECE0700CA3E07008A3E07004A3E060419F
:100103008549549002ECE0FCA3E0FDA3E0FEA3E0EC
:1001130024FEFFEE34FFFEED34FFFDEC34FFFC90D4
:1001230002EBE0F9F81213229002F4E0F8A3E0F9ED
:10013300A3E0FAA3E02FFFEA3EFEE93DFDE83C80A1
:1001430026900319E0F554AF54CBEFCB9002F4E0C3
:10015300FCA3E0FDA3E0FEA3E0C39BFFEE9400FE3F
:10016300ED9400FDEC9400FC90031212138FE55400
:10017300700261F9122E1FEF600122E49002F2F087
:10018300A3F0E548FE9002F2E0FCA3E0FDC3940077
:10019300EC9E400261D6ED255FF54FEC355EF54EE2
:1001A300854F82F583E0FF70028129EF64E57002D9
:1001B30061C6BF05027FE5A860E6FE6F6007EE64D7
:1001C3002A600261C6EF6E70047F0180027F008F98
:1001D30064AF64EFC3940B5052AE64E5602EF8E64F
:1001E300FEE54F2FF582E4354EF583E0FD6E603674
:1001F300EE6007645C6003BE2F1EED6420702CEF7D
:10020300C39408500FE54F2408F582E4354EF58377
:10021300E0B420177F0B8013BE2E10E564640860E2
:1002230003BD20077F070F056480A8AE64E5602E39
:10023300F8E6F565EFC3940B50026126E54F240BF6
:10024300F582E4354EF583E030E3026126C20EE524
:100253004F241AFFE4354EFE120FF6E4FCFD900224
:10026300EC12138F90030BE0B40314E54F2414FF37
:10027300E4354EFE120FF69002ECEEF0A3EFF0E53C
:10028300656005200E02611D9002ECE0FCA3E0FD19
:10029300A3E0FEA3E0F5588E578D568C55E4F5691F
:1002A300F568F567F566F554E54F240BF582E435FB
:1002B3004EF583E030E41E74FFF55DF55CF55BF508
:1002C3005A7D137F101234E7EF600122300E037F53
:1002D30043227F4122E54F241CFFE4354EFE1236B4
:1002E3004E8F5D8E5C8D5B8C5A9002ECE07017A391
:1002F300E07013A3E0700FA3E0700B7554FFF55D7E
:10030300F55CF55BF55A7D147F101234E7EF60015D
:1003130022300E037F43227F0022E564042560F52B
:100323006001F1E565642A600261C6E54F240BF5BF
:1003330082E4354EF583E030E30261C6E5A16459FA
:1003430060037F1122E55A455B455C455D6022E50C
:100353005A30E7031207FFE55D24FFF55DE55C34E2
:10036300FFF55CE55B34FFF55BE55A34FFF55A8036
:1003730052E4FFF562E54F2FF582E4354EF583E055
:100383006420602FBF080AAE62E5602EF8762E0562
:1003930062E54F2FF582E4354EF583E0FEAD62E56D
:1003A300602DF8EEF6E5627008A860E6B405027603
:1003B300E505620FBF0BBEAF62E5602FF8E4F6D22E
:1003C3000E41529002F3E02420F09002F2E0340058
:1003D300F02185900312E0FCA3E0FDA3E0FEA3E07F
:1003E3002401FFE43EFEE43DFDE43CFC90031212D5
:1003F300138F155421719002ECE0700CA3E0700888
:10040300A3E07004A3E0601E120C38EF6001222009
:100413000E149002ECE562F0A3E563F0A3E564F04B
:10042300A3E565F001F1E4FFCEEFCE0FE5602EF812
:10043300E6FE600F642A600BEE645C6003BE2FE887
:060443007FB3227F42227C
:10326D00E55824FEFFE55734FFFEE55634FFFDE536
:10327D005534FFFC9002EBE0F9F81213229002F4A2
:10328D00E0F8A3E0F9A3E0FAA3E02FFBEA3EFAE9A8
:10329D003DF9E83CF8E4FCFDFEEB2554F553EE3A20
:0B32AD00F552ED39F551EC38F55022D8
:102914009002ECE0700EA3E0700AA3E07006A3E05E
:10292400700221F6786F121335123583EFC0E0AFD1
:1029340054CBEFCBD0E0FFC3EF9BF565EE9400F5ED
:1029440064ED9400F563EC9400F562AF65AE64AD9C
:1029540063AC62786B121341C31212FE4017786B9A
:10296400121335C3EF9565FFEE9564FEED9563FD97
:10297400EC9562805D9002ECE0FCA3E0FDA3E0FE38
:10298400A3E0F5588E578D568C55AF49E4FCFDFEF7
:10299400786B121341C31212FE403F85584D855780
:1029A4004C85564B85554AE4FF120C4FEF600122CB
:1029B400200E3F786B121335EFC0E0AF49CBEFCB5D
:1029C400D0E0FFC3EF9BFFEE9400FEED9400FDEC1E
:1029D4009400FC786B12138380B0786EE6F5541281
:1029E400326DAF53AE52AD51AC50786B1213837F3E
:1029F40000227554FF786B12139BFFFFFFFF7F00CB
:012A040022AF
:0317FD007F132235
:1035ED009003001213B4FFFFFFFF9002FC1213B4FF
:0735FD00FFFFFFFFC20D22DA
:0434E3007D107F10C9
:1034E700AE59EEC39F4005CEEDCE8D59EE6D7002FD
:0F34F700FF22755901123347EF6001227F8322B4
:10350600AB61BB16117559019003051213B4000087
:103516000000CFEBCF22BB1507755902CFEBCF22A8
:033526007F002201
:1007A5007F027E001235D6900311E561F0123347C2
:1007B500EF600122E559C3940450037F83227E36FE
:1007C5007F3E1234C0900310E0900044F0E4FDFF3A
:1007D500FE1224088F61BF16012290030AE0540F10
:1007E500FF123619900309E0540F4480FF123619A1
:0A07F500900311E0FFF561E4F0222B
:10338A00900048EDF0A3E4F0A3F0A3F0ED60047E12
:10339A008080027E0090004CEEF0900304E09000E2
:1033AA004DF0A37406F0A3EFF0A3E4F0A3F0A3F0AA
:0F33BA00A3EDF0A3E4F0A3F0A3F0A3F0A3F0229F
:07155C0012338A7E007F625A
:101563008E2D8F2E9000407455F0A37453F0A37406
:1015730042F0A304F075D71F90030AE0FF90031114
:10158300E0FD7BE87AFD122A058F61BF160122EF89
:1015930060397E007F627C007D407B1B7A00122FC6
:1015A300DF1207A57E007F407C007D627B1B7A00F3
:1015B300122FDF90030AE0FF900311E0FD7BE87A2E
:1015C300FD122A058F61EF6002E1A7900311E06429
:1015D30040F0900048E0FDA3E0FF4D7002E16CEFA6
:1015E300F52BEDF52C90004CE020E702C1B6D201BB
:1015F300E52C452B7002C1AAE52B7007E52CC3949B
:1016030040400C90244CE52DF0A3E52EF0800CC255
:101613000190244C7400F0A37400F0900309E0FFE0
:10162300900311E0FD7BE87AFD122A058F61EF60DC
:101633001E90244C7400F0A37400F0EF642E60013C
:1016430022900309E0540F4480FF1236198058900A
:101653000311E06480F030011FE5D16440704874E9
:10166300C0252CF52C74FF352BF52B7440252EF556
:101673002EE4352DF52DA1F3AFD1AE2CEEC39F5043
:1016830003CFEECFE4FEEE6F601D74002EF582E40F
:101693003400F583E0852E82852D83F0052EE52E1B
:1016A3007002052D0E80DF90244C7400F0A37400AB
:1016B300F0E16CE52C452B7002E162E52B7008AF7D
:1016C3002CEFC39440402690244EE52DF0A3E52E45
:1016D300F074C0252CF52C74FF352BF52B744025A5
:1016E3002EF52EE4352DF52D75D740803790244EF9
:1016F3007400F0A37440F08FD7E4FFE52C6F601FF4
:10170300852E82852D83E0FE74402FF582E434001C
:10171300F583EEF0052EE52E7002052D0F80DCE437
:10172300F52BF52C90030AE0FF900311E0FD7BE815
:101733007AFD122A058F61EF601C90244E7400F02D
:10174300A37440F0EF642E60012290030AE0540F6B
:10175300FF1236198009900311E06440F0C1B6907E
:10176300244E7400F0A37440F0900309E0FF90034B
:1017730011E0FD7BE87AFD122A058F61EF600122FB
:10178300900311E06480F075611FE5D1640D60037F
:10179300AF612290000CE0FE7004F561FF22EEC3FE
:0A17A300940240030207A5AF612283
:103529007F0A7E001235D67D127F0312155C7F0556
:0F3539007E001235D6E5617002FF2212350622A0
:102D2100756A0975620F7D087F2512338A90004EFE
:102D3100740AF0900053E4F012155FAF61EF701F59
:102D4100900068E0FEBE0405756A0A803FBE080572
:102D5100756A0B8037EE64107032756A0C802DEF46
:102D610064166028EF64156023EF6413601E8F639F
:102D7100123529856361E5627E0030E3047F40807E
:102D8100027FC81235D61562E562709AE56A24F8A9
:102D9100FF7401C8EFC8088002C333D8FCF548AFFF
:022DA1006322AB
:101EB200123347EF600122E559C3940450037F8334
:101EC200227559041230658F61EF60012290004E35
:101ED200E06408705FC20CA3E0B40602D20C90006A
:101EE2004BE0900310F0E4F562E562600790005B5E
:101EF200E0FF8005900054E0FF8F63E56260079089
:101F0200005DE0FF8005900056E0FFEF6440702422
:101F1200E56330E70CE563540F4490900309F080C9
:101F22000AE563540F441090030AF00562E562B4B7
:101F320002B7800675611FAF6122900045E0FF1273
:101F420036048F61EF600122E4F5627E367F46122D
:101F520034C0900310E0900044F07D63AF5FAE5E4A
:101F62001224088F61EF7010E563B4011A855F8255
:101F7200855E83E0F562800FE561B42E07E4FF120F
:101F820036198003AF61227F057E001235D61235E5
:101F9200EDE4900311F0900304F07D247F121233DC
:101FA2008AAF5FAE5E121563E5617023E562601869
:101FB200900304E07012855F82855E83E0B40508B9
:101FC2009003047401F080D27D057F040234E7E5BA
:101FD20062600E900304E0C394035005E004F080B5
:0C1FE200B9E4900304F07F011227AC2248
:10312400786B12139B00000000123347EF600122FA
:10313400E559C394055030121EB2EF600E7F407EF5
:10314400001235D6121EB2EF600122122D21EF605B
:1031540003AF6122900062E0FCA3E0FDA3E0FEA3C4
:10316400E0FF786B121383E4FDFF12155CE56170D8
:0E31740002FF22856162123529AF628F61224F
:1027AC00E4FDFCE4F5A10DBD00010CBC01F5BDF48C
:1027BC00F2EFC394024013AE59BE12057559058051
:1027CC0009EED394104003755910AE61EF6014EE0E
:1027DC006416600FEE6415600A123529CEEFCEEE4A
:0E27EC007001227F027E001235D612350622C1
:10080000E559C39405500A121EB2EF600122122D61
:10081000211235ED900305E0FCA3E0FDA3E0FEA36B
:10082000E054F0FFEC7B707A5679347812C31212E0
:10083000FE700A900308E0540FF54F8003E4F54F73
:10084000E4F549F554E4F55DF55CF55BF55AF553CF
:10085000F552F551F550122E34EF600D1207A51226
:100860002D21122E34EF600122E54F700F855F823B
:10087000855E83E054FD64E97002217AE55F24FE21
:10088000F582E55E3401F583E0FEA3E064AA70031F
:10089000EE645560037F912285494EE54E644070B9
:1008A00002216AE55F24BEFFE55E3401FE7C00EFB5
:1008B000254EFFEC3ECF2408CF3400FE12364E8F7B
:1008C000538E528D518C50E55F24BEFFE55E34019E
:1008D000FE7C00EF254EFFEC3EF583EF2404F5820D
:1008E000E43583F583E0F562E56264056005E56261
:1008F000B40F32E553255DF553E552355CF552E50D
:1009000051355BF551E550355AF550E5546002011B
:1009100056E54E2410F55485535D85525C85515B38
:1009200085505A0156E56230E70353623FE5626045
:1009300031E562C3940F502AE54F94015022900391
:1009400000E0FCA3E0FDA3E0FEA3E02553F553EE99
:100950003552F552ED3551F551EC3550F550801AC0
:10096000154F7410254EF54E019BE5546009E5497D
:10097000700585544901457F9222AF53AE52AD5167
:10098000AC5090030512138F122E34EF60012285B4
:100990005F82855E83E054FD64E960037FA122E508
:1009A0005F24FEF582E55E3401F583E0FEA3E0649A
:1009B000AA7003EE645560037FA122E55F240DF564
:1009C00082E4355EF583E0FFF5499002EB7407F0B1
:1009D000EF20E710EF25E0FF9002EBE014F0E0706D
:1009E000EF754901E55F2416FFE4355EFE120FF650
:1009F000E4FCFD9002F812138F9002FAE0FEA3E0EF
:100A00004E7012E55F2424FFE4355EFE12364E90F0
:100A100002F812138FE55F2413FFE4355EFE120F18
:100A2000F6E48F698E68F567F566EF4E7014E55F42
:100A30002420FFE4355EFE12364E8F698E688D6786
:100A40008C66E55F2411FFE4355EFE120FF6E54883
:100A500033333354F8147C002FFFEC3EFEE56A2458
:100A6000FBFDEFC8EDC8088005CEC313CE13D8F93F
:100A7000FFE4FCFD90031612138FE55F240EFFE4E4
:100A8000355EFE120FF6E4FCFD90030C12138F90FE
:100A90000319E0FF7E0090030EE0FCA3E02FFFEEC1
:100AA0003CFEE4FCFD9002F8E0F8A3E0F9A3E0FAD4
:100AB000A3E02FF565EA3EF564ED39F563EC38F512
:100AC00062E55F2410F582E4355EF583E09002F87C
:100AD000B4021FE0FCA3E0FDA3E0FEA3E02565F562
:100AE00065EE3564F564ED3563F563EC3562F5620A
:100AF00080071213B400000000E5532565FFE5529E
:100B00003564FEE5513563FDE5503562FC9002F435
:100B100012138FC3E5699565FFE5689564FEE56787
:100B20009563FDE5669562FC9002EBE0F9F812131F
:100B30000F9002E712138FE47FF57EFFFDFC900219
:100B4000E7E0F8A3E0F9A3E0FAA3E0FBC31212FE8A
:100B50005023E49002F0F0A3F09002E9E0FEA3E05D
:100B6000C394F5EE940F90030B50057401F080319F
:100B70007402F0802CE55F2430FFE4355EFE120F36
:100B8000F69002F0EEF0A3EFF0E55F242CFFE435E1
:100B90005EFE12364E90031612138F90030B7403F1
:100BA000F090030EE0FEA3E04E6057900316E0FCC9
:100BB000A3E0FDA3E0FEA3E0FFEC4D4E4F6043E554
:100BC0005F2410F582E4355EF583E06401601490E3
:100BD00002F8E0FCA3E0FDA3E0FEA3E0FFEC4D4E35
:100BE0004F601FE55F240BF582E4355EF583E0700E
:100BF00011E55F240CF582E4355EF583E0C39402D1
:100C0000500CE54F7005754F0101407FA322900302
:100C10000CE0FCA3E0FDA3E0FEA3E02553FFEE35CE
:100C200052FEED3551FDEC3550FC90030C12138F44
:080C30007D107F051234E7225C
:102C9C009002FCE0FCA3E0FDA3E0FEA3E0F5538E64
:102CAC00528D518C50123301EF6001229002F8E0EA
:102CBC00FCA3E0FDA3E0FEA3E0FFEC4D4E4F605003
:102CCC00EF2553F553EE3552F552ED3551F551ECE8
:102CDC003550F5509002E5E0FCA3E0FD7F01122B8E
:102CEC00808F619002F8E0F8A3E0F9A3E0FAA3E08A
:102CFC00FBC3E5539BF553E5529AF552E55199F513
:102D0C0051E55098F550E56160061235EDAF612242
:052D1C00C20D7F002242
:102F750012220BEF600564B1600122EF6007122297
:102F850002EF600122122C9CEF600122AF58AE5770
:102F9500AD56AC559002EC12138F122E1FEF600147
:102FA500229002F3E0255FF54F9002F2E0355EF5E1
:102FB5004EF583E54F241CF582E43583F583121322
:102FC500B4010000009002ECE0FCA3E0FDA3E0FEEC
:0A2FD500A3E0FF123694122F07222A
:082DA3007FFF7EFF7DFF7CFF36
:102DAB008F658E648D638C629002F0E0FCA3E0FD76
:102DBB004C7002FF22CFEDCFCEECCEE4FCFD9003A6
:102DCB0005E0F8A3E0F9A3E0FAA3E02FF553EA3E00
:102DDB00F552ED39F551EC38F550122E34EF600108
:102DEB0022E55F24E8FFE55E3401FE12364EEF2547
:102DFB0065FFEE3564FEED3563FDEC3562FC123696
:102E0B0094E55F24E8F582E55E3401F58312138FB8
:042E1B00122F33221D
:1017AD00C20BE559C394144044122E1FEF60012261
:1017BD009002F3E0255FF54F9002F2E0355EF54EB5
:1017CD00F583E54F240BF582E43583F583E020E4C2
:1017DD001CAF5DAE5CAD5BAC5A123694E54F241C6C
:1017ED00F582E4354EF58312138F022F337F0022DD
:102E9500AF59EFC3941250037FB422BF124490037D
:102EA5000BE06403603C9002EBE0FF7401C8EFC8DF
:102EB500088002C333D8FCF5499002F4E0F8A3E09A
:102EC500F9A3E0FAA3E0FB900319E0FFE4FCFDFEA3
:102ED500EB2FFFEE3AFEED39FDEC38FC9002F412D3
:102EE500138FAF59EFD394134008BF1407786BE6DF
:102EF5007002C20B300B071217ADEF6001221234BE
:022F0500E322C5
:100F3700E559C394135007120003EF6001221234DE
:100F4700E3EF600122122E1FEF6001229002F2E010
:100F5700FEA3E0255FF582E55E3EF58374E5F012BA
:100F67002F33EF6001229002ECE0F562A3E0F56316
:100F7700A3E0F564A3E0F565E5624563456445656F
:100F8700606A9002ECE0FCA3E0FDA3E0FEA3E0248E
:100F9700FFFFEE34FFFEED34FFFDEC34FFFC900263
:100FA700EC12138FE4F558F557F556F55585624A57
:100FB70085634B85644C85654D7F01120C4FEF604F
:100FC7000122E5582401F558E43557F557E435561D
:100FD700F556E43555F555300ED3122C9CEF6001CC
:0F0FE70022AF58AE57AD56AC55022DAB7F00224E
:101A51001200038F54EF7009120F37EF7002619279
:101A610022E55464426003AF5422E548FEC390026C
:101A7100F3E094009002F2E09E500261929002EC39
:101A8100E0700EA3E0700AA3E07006A3E0700261AB
:101A91003D120C38EF600122200E0261929002EC9F
:101AA100E0FCA3E0FDA3E0FEA3E0F5588E578D56C0
:101AB1008C5512365EEF6001229002ECE0FCA3E04F
:101AC100FDA3E0FEA3E0F54D8E4C8D4B8C4A7F02C9
:101AD100120C4FEF600122122C9CEF600122855FF6
:101AE10082855E83AF48EF600AE4FEE4F0A3DEFB8B
:101AF1001F80F3E4F55412326DE49002F2F0A3F08A
:101B0100AF53AE52AD51AC5090031212138F8549B1
:101B110062E5626020122F33EF600122E553240158
:101B2100F553E43552F552E43551F551E43550F5AC
:101B310050156280DC122DA3EF605622900319E04C
:101B4100F55490031274FF1213508F53122E2EEF7F
:101B5100600122E49002F2F0A3F0E548FE9002F267
:101B6100E0FCA3E0FDC39400EC9E501FE55F2DF562
:101B710082E55E3CF583E064E560169002F3E024C3
:101B810020F09002F2E03400F080CFD554B47FB25F
:101B9100229002ECE0FCA3E0FDA3E0FEA3E0F558F7
:101BA1008E578D568C55E5B154D064C060037F11BA
:101BB1002212365EEF600122122C9CEF600122AFEF
:101BC10058AE57AD56AC559002EC12138F122DA39F
:101BD100EF600122122E1FEF6001229002F3E02537
:101BE1005FF54F9002F2E0355EF54EE4FFEFC394EE
:101BF1000B50047E2080027E00E54F2FF582E435F4
:101C01004EF583EEF00FBF20E4E54F2418F582E492
:101C1100354EF5837421F0A37430F0E54F241CF5A3
:101C210082E4354EF5837401F0E4FFEFC3940B5069
:101C310023A860E6FE601DEEB42E047F080560A8AF
:101C410060E6FEE54F2FF582E4354EF583EEF00FA9
:101C5100056080D79002ECE0FCA3E0FDA3E0FEA3C9
:101C6100E0FF123694122F07EF6001229002ECE0A0
:101C7100FCA3E0FDA3E0FEA3E0F5588E578D568C42
:101C810055E4F55DF55CF55BF55AF569F568F567C1
:0C1C9100F566F5547D147F101234E72234
:10180000D20BE548FE9002EBE0FBE4C8EBC8088091
:1018100005C333CE33CED8F924FFFFEE34FFFEEFFD
:10182000255DFFEE355CFEE4355BFDE4355AFCE5F5
:101830006A2BF9F812130F90032112138FAF69AEC0
:1018400068AD67AC66C8E9C812130F8F4D8E4C8D1A
:101850004B8C4A900321E0F8A3E0F9A3E0FAA3E05F
:10186000FBD31212FE4024900321E0FCA3E0FDA371
:10187000E0FEA3E0954DFFEE954CFEED954BFDECA3
:10188000954AFC90032112138F80159002ECE0FC26
:10189000A3E0FDA3E0FEA3E0F5588E578D568C55CE
:1018A0009002ECE0701FA3E0701BA3E07017A3E0B0
:1018B0007013E55A455B455C455D7002FF22122FAF
:1018C00075EF601522E55A455B455C455D700A90F1
:1018D00003211213B400000001AF58AE57AD56AC4F
:1018E00055786B121383900321E0FCA3E0FDA3E085
:1018F000FEA3E024FFFFEE34FFFEED34FFFDEC34E9
:10190000FFFC90032112138FAF58AE57AD56AC5564
:101910008F4D8E4C8D4B8C4A786F121383E4FF12DF
:101920000C4FEF600122200E0221BA900321E070DB
:101930000CA3E07008A3E07004A3E060067E007FC3
:101940000180047E007F00EF4E7010786B1213351B
:101950008F588E578D568C557F0022900321E0FCC6
:10196000A3E0FDA3E0FEA3E0FF1212F0122DABEF07
:10197000600122AF58AE57AD56AC55786F12138345
:1019800012365EEF600122786F1213358F4D8E4C48
:101990008D4B8C4A7F02120C4FEF60012290032185
:1019A00074FF121350EC4D4E4F70C8786B12133504
:1019B0008F588E578D568C55414D900321E0600213
:1019C00001E6A3E0600201E6A3E0600201E6A3E015
:1019D000600201E6786F1213358F658E648D638C1B
:1019E0006285624A85634B85644C85654D7F011233
:1019F0000C4FEF600122900321E0FCA3E0FDA3E087
:101A0000FEA3E02401FFE43EFEE43DFDE43CFC9047
:101A1000032112138F300EC9900321E0FCA3E0FDD7
:101A2000A3E0FEA3E0FF122DABEF6001229002ECD9
:101A3000E0FCA3E0FDA3E0FEA3E0F5588E578D5631
:101A40008C55E4F569F568F567F566F554122C9C3C
:011A50002273
:10280000E559C3941350037FB422122E1FEF6001C9
:1028100022C2109002F3E0255FF54F9002F2E035FE
:102820005EF54E7873E6FFE54F240BF582E4354EF6
:10283000F583E0F6EFF4600FE54F240BF582E43505
:102840004EF583EFF0D2107971E7F5637872E6F513
:1028500062E54F2416FFE4354EFE120FF67871EE56
:10286000F608EFF6E563F47003E562F46014E54FF3
:102870002416F582E4354EF583E562F0A3E563F0B6
:10288000D210796FE7F5637870E6F562E54F2418AA
:10289000FFE4354EFE120FF6786FEEF608EFF6E520
:1028A00063F47003E562F46014E54F2418F582E4E4
:1028B000354EF583E562F0A3E563F0D210786B1234
:1028C00013358F658E648D638C62E54F241CFFE4A5
:1028D000354EFE12364E786B121383E56255635502
:1028E000645565F46025AF65AE64AD63AC628F5D21
:1028F0008E5C8D5B8C5A123694E54F241CF582E475
:10290000354EF58312138FD210C20B301003022FF5
:04291000337F0022EF
:10362E00E4FF746B2FF876FF0FBF0AF61228002204
:1032B800E559641460037FB4229002ECE0FCA3E0BB
:1032C800FDA3E0FEA3E0F5588E578D568C55E4F526
:1032D80069F568F567F5669002ECE0700CA3E0709C
:1032E80008A3E07004A3E06005E4F5548003755476
:0932F800FF7D157F141234E7225A
:10318200E559641560071232B8EF600122AF69AEEB
:1031920068AD67AC66786F121383786B1213358F44
:1031A200698E688D678C66AB5DAA5CA95BA85AC301
:1031B2001212FE500C855D69855C68855B67855AD5
:1031C20066AF69AE68AD67AC66123583786B121371
:0531D200831229142204
:10200000E559641560071232B8EF600122786BE67B
:10201000FF08E6786FCFF608EFF6E4786BF608F67F
:10202000E554B4FF037F00227870E6184670022161
:10203000FFC3E55D9569F565E55C9568F564E55B6D
:102040009567F563E55A9566F562E5624563456413
:102050004565700221FFE562F4700221FF12326DC6
:10206000E5624563600674FFF564F565D3E5657860
:102070007096E56418964007E6F56408E6F565E5B0
:1020800048FEC3E5659400E5649E50022138E56989
:1020900060022138E54814556860022138E564FF84
:1020A000E56A24F8FEEFC8EEC8088002C313D8FC26
:1020B000FF7564008F65C3E5499554FFAE65EED3A7
:1020C0009F40057564008F65AF65796EE7786C2673
:1020D000FD19E71836FC122C11EF600122AF65EFF5
:1020E0002554F554AF65E56A24F8FEEFC8EEC8083C
:1020F0008002C333D8FC756500F564AE64AF65E457
:10210000FCFDE5692FF569E5683EF568ED3567F595
:1021100067EC3566F566C37870E69565F618E69562
:1021200064F6786CE56526F618E56436F6E554C382
:1021300095495002012821D1E54824FFFFEF556859
:10214000FCE548FEC3E49569FFEE9CFED3E5659F80
:10215000E5649E40048E648F65122E34EF60012288
:10216000E54824FFFFEF5568FEE569255FFFEE3582
:102170005EFE796EE7786C26FD19E71836FCAB65D4
:10218000AA64122FDFAE64AF65E4FCFDE5692FF5AC
:1021900069E5683EF568ED3567F567EC3566F56627
:1021A000C37870E69565F618E69564F6786CE56593
:1021B00026F618E56436F6E56960020128E548145C
:1021C0005568600201280554E554C3954950020141
:1021D0002885584D85574C85564B85554AE4FF1246
:1021E0000C4FEF600122300E117554FF85695D853B
:1021F000685C85675B85665A8005E4F55401287F35
:022200000022BA
:10100000E559641560071232B8EF600122786BE68B
:10101000FE08E6FF786FEEF6FE08EFF64E7006303B
:101020000B030217ADE4786BF608F67870E6184605
:10103000700241E3E554F4600201BF9002ECE070FD
:101040000CA3E07008A3E07004A3E0604DE559B480
:10105000120B90030BE0640360037FB12285586993
:1010600085576885566785556612365EEF600122A2
:1010700085694D85684C85674B85664A7F02120CF1
:101080004FEF6001229002E5E0655E7004A3E06529
:101090005F700E122C9CEF600822122F75EF60011A
:1010A000227FFF7EFF7DFF7CFF122DABEF600122D0
:1010B000855D69855C68855B67855A66E4F55412D1
:1010C000326DE54824FFFFEFAD695568FCC3E54983
:1010D0009554FF7E00E56A24F8FBEFC8EBC8088052
:1010E00005C333CE33CED8F9FEC3E49DF563EE9C41
:1010F000F562D3E563787096E56218964007E6F5E9
:101100006208E6F563E548FEC3E5639400E5629E88
:10111000500221D0E569600221D0E548145568608D
:101120000221D0E562FFE56A24F8FEEFC8EEC808A8
:101130008002C313D8FCFF7562008F63AF63796EC2
:10114000E7786C26FD19E71836FC122B80EF60015A
:1011500022AF63EF2554F554AF63E56A24F8FEEF40
:10116000C8EEC8088002C333D8FC756300F562AED0
:1011700062AF63E4FCFDE5692FF569E5683EF5685B
:10118000ED3567F567EC3566F566C37870E695630F
:10119000F618E69562F6786CE56326F618E5623691
:1011A000F6AF69AE68AD67AC66AB5DAA5CA95BA83B
:1011B0005AC31212FE500E85695D85685C85675BB7
:1011C00085665AD20BE554C395495002012B41C1A3
:1011D000E54824FFFFEF5568FCE548FEC3E4956948
:1011E000FFEE9CFED3E5639FE5629E40048E628F16
:1011F00063E569701DE5481455687016AF69AE68FF
:10120000AD67AC66AB5DAA5CA95BA85AD31212FEAF
:101210004007122E34EF600122796EE7786C26FFCA
:1012200019E71836FEEEC0E0EFC0E0E54824FFFF06
:10123000EF5568FEE569255FFDEE355EFCD0E0FF09
:10124000D0E0FEAB63AA62122FDFAE62AF63E4FCB4
:10125000FDE5692FF569E5683EF568ED3567F567E9
:10126000EC3566F566C37870E69563F618E6956228
:10127000F6786CE56326F618E56236F6122F33EF42
:10128000600122AF69AE68AD67AC66AB5DAA5CA9D0
:101290005BA85AC31212FE500E85695D85685C8595
:1012A000675B85665AD20BE5696002012BE548143D
:1012B00055686002012B0554E554C395495002015D
:1012C0002B85584D85574C85564B85554AE4FF1262
:1012D0000C4FEF600122300E057554FF012BE4F531
:1012E00054012B300D07122C9CEF6001227F00224D
:10364E008F828E83E0FFA3E0FEA3E0FDA3E0FC22C9
:0A0FF6008F828E83E0FFA3E0FE224D
:07369400EFCCFFEECDFE229A
:10358300C3E4CC13CD13CE13FFE56A24F7600DF823
:0D359300C3ED13FDEE13FEEF13FFD8F4227D
:1035A000C3E4CF33CE33CD33FCE56A24F7600DF8A6
:0D35B000C3EE33FEED33FDEC33FCD8F42206
:102FDF0005A28D828C8315A28F828E837F00EA607B
:102FEF0007E0A3A5DFFBDAF9EB6005E0A3A5DBFBA8
:012FFF0022AF
:030000000236774E
:0C367700787FE4F6D8FD75818A022ADE17
:0E12F000C3E49FFFE49EFEE49DFDE49CFC220F
:1012FE00EB9FF5F0EA9E42F0E99D42F0E89C45F046
:01130E0022BC
:10130F00E8600FECC313FCED13FDEE13FEEF13FFBC
:03131F00D8F122E0
:10132200E8600FEFC333FFEE33FEED33FDEC33FC29
:03133200D8F122CD
:0C133500E6FC08E6FD08E6FE08E6FF22E4
:0D134100E6FB08E6F908E6FA08E6CBF8221C
:10134E007401FF3395E0FEFDFCA3A3A3E02FFFF095
:10135E00E582158270021583E03EFEF0E58215826D
:10136E0070021583E03DFDF0E58215827002158353
:05137E00E03CFCF02240
:0C138300ECF608EDF608EEF608EFF62296
:0C138F00ECF0A3EDF0A3EEF0A3EFF022D1
:10139B00D083D082E493F608740193F60874029319
:0913AB00F608740393F674047350
:1013B400A8828583F0D083D0821213CB1213CB1270
:1013C40013CB1213CBE473E493A3C583C5F0C58395
:1013D400C8C582C8F0A3C583C5F0C583C8C582C883
:0113E40022E6
:10044900E5432437F8E60543227834300902783742
:10045900E475F0011215260214CE2002EB7F2ED28C
:10046900028018EF540F2490D43440D4FF30060B87
:10047900EF24BFB41A0050032461FFE5446002155C
:10048900440547E5477002054630090D7834E4759F
:10049900F001121526EF0215140234997403D209DA
:1004A9008003E4C209F5438B348A358936E4F5447F
:1004B900F546F547E54460077F2012048480F57509
:1004C90045FFC203C202C204C205C207C208C20A6A
:1004D900120452FF700D3009057F00120495AF47D1
:1004E900AE4622B4255FC2D5C206120452FF24D0FB
:1004F900B40A00501A75F00A784430D50508B6FFD9
:100509000106C6A426F620D5047002D20580D92496
:10051900CFB41A00EF5004C2E5D206020695D20301
:1005290080C6D20280C0D20480BCD2D580BAD2079C
:1005390080B47F201204842004077401B54400406C
:10054900F1120449FF1204840204BDD20AD20880C0
:1005590095120449FB120449FA120449F94A4B70ED
:100569000679667A077BFF20042EE544602A7E001F
:100579008E827583001214E760060EEE654570F0F1
:10058900C2D5EBC0E0EAC0E0E9C0E0EE1206DCD07B
:10059900E0F9D0E0FAD0E0FB1214CEFF60AAEBC07C
:1005A900E0EAC0E0E9C0E0120484D0E02401F9D017
:1005B900E03400FAD0E0FBE5450460DCD545D9809C
:1005C900877BFF7A0679D8D204809C7910800279DA
:1005D90008C208C20A8008D2D5790A8004790AC2F9
:1005E900D5E545047002F545E4FAFDFEFF1204491C
:1005F900FC7B08200313120449FD7B1030020A1208
:100609000449FE120449FF7B20EC3382D592D55070
:1006190013C3E43002069FFFE49EFEE42003039D1A
:10062900FDE49CFCE4CBF8C203EC700CCFCECDCC3E
:10063900E824F8F870F38017C3EF33FFEE33FEEDCB
:1006490033FDEC33FCEB33FB994002FB0FD8E9EBAC
:10065900300305F8D0E0C448B203C0E00AEC4D4EBF
:100669004F78207B0070C2EAB5450040BCC0E0125B
:1006790006DED0F0D0E0200304C4C0E0C4B203C059
:10068900F012046DD0F0D5F0EB0204BD1215360559
:100699005A5305D458052B4C05274205D84F05E078
:0F06A9004405E04905404305E65505CA4605CA24
:1006B8004505CA47078650052F2D05332E05562BAD
:1006C800053723055420076F2A04EF480000054E1C
:1006D8003F3F3F00790AA2D5200514300709B91019
:1006E800020404B9080104A2D5200802500104201C
:1006F80004689204B544005034C0E07F20300519E6
:100708007F30A20472087207500F120735C204C264
:1007180008C207C20A7F30800F300703E9C0E01221
:100728000484300703D0E0F9D0E0B544CC30071793
:100738007F30B9100C1204847F583006077F788008
:1007480003B908031204843004057F2D0204847F52
:1007580020200AF87F2B2008F322920480CF286EED
:10076800756C6C2900D2031204493003F8C203786F
:100778004430D50108F60204EF2D504349581204BD
:10078800492403B405004001E490078193120475DD
:0D079800743A120475D2057544040205D4AC
:0A3683003098FDAF99C2987E002236
:1013E500E709F60870FA8046E709F20870FA803EC8
:1013F50088828C83E709F0A370FA807EE309F608FA
:1014050070FA8076E309F20870FA806E88828C8320
:10141500E309F0A370FA806289828A83E0A3F60863
:1014250070FA805689828A83E0A3F20870FA804AAE
:1014350080D280FA80C680D4806580F280318010A9
:1014450080A680EA809A80A880DA80E280CA80310E
:1014550089828A83ECFAE493A3C8C582C8CCC58384
:10146500CCF0A3C8C582C8CCC583CC70E9800D89F2
:10147500828A83E493A3F60870F9ECFAA9F0EDFBF0
:101485002289828A83ECFAE0A3C8C582C8CCC583C9
:10149500CCF0A3C8C582C8CCC583CC70EA80DD89F1
:1014A500828A83E493A3F20870F980CE88F0ED2454
:1014B50002B4040050C4F582EB2402B4040050BA0F
:0914C500232345822390143573A2
:1014CE00BB010689828A83E0225002E722BBFE021C
:0914DE00E32289828A83E493224F
:1014E700BB010CE58229F582E5833AF583E02250BA
:1014F70006E92582F8E622BBFE06E92582F8E22204
:0D150700E58229F582E5833AF583E493221D
:10151400BB010689828A83F0225002F722BBFE01B6
:02152400F322B0
:10152600FAE6FB0808E6F925F0F618E6CA3AF622C6
:10153600D083D082F8E4937012740193700DA3A344
:1015460093F8740193F5828883E473740293686058
:06155600EFA3A3A380DF58
:10349900EFB40A07740D1234A4740A309811A8996C
:1034A900B8130CC2983098FDA899C298B811F63093
:0734B90099FDC299F599226B
:00000001FF
