:100A58004C69676874206F6E204E756D204C6F630B
:100A68006B204C4544210A004C69676874206F6606
:100A780066204E756D204C6F636B204C4544210AEF
:100A88000025630A007374617274202E2E2E0A00EA
:100A980012011001000000083D410721000000007C
:100AA800000109023B00020100A032090400000114
:100AB80003010100092111010001223E00070581FF
:100AC8000308000A090401000103010200092110BA
:100AD8000100012234000705820304000A05010908
:100AE80006A101050719E029E715002501750195FB
:100AF800088102950175088101950375010508199A
:100B0800012903910295057501910195067508263D
:100B1800FF000507190029918100C005010902A1FC
:100B2800010901A10005091901290315002501750D
:100B380001950381027505950181010501093009B7
:0F0B48003109381581257F750895038106C0C0D6
:100E27004400810000000048006C00000000000042
:020E37000000B9
:0A00370075A15575A1AA75A1FF225D
:0E0E4B00EF4E600905A1EF1F70F61E80F32226
:100E1000AD07AC06ED4C600E7FE87E03120E4BED85
:070E20001D70F11C80EE22A1
:0D0E590043C60143C40843C50C43CE10221C
:100C1600C29FD29EC29DC2CDC2CC43878090004364
:100C260012098900000082E47B0AFAF9F890004371
:100C3600E0FCA3E0FDA3E0FEA3E0FF1208EB9000BA
:100C460047EBF0900043E0FCA3E0FDA3E0FEA3E049
:100C5600FFE47B0AFAF9F81208EB90004312097DCB
:100C6600900047E0C3940574809480401F90004331
:100C7600E0FCA3E0FDA3E0FEA3E02401FFE43EFECA
:100C8600E43DFDE43CFC90004312097DE589540FE8
:100C96004420F58943C9A0900043A3A3A3E0F4042C
:080CA600F58DD28ED299D29C8B
:010CAE002223
:080E66003098FDC298AF9922FB
:080E6E008F993099FDC2992211
:100DF500E4F5E253E27F43E229F5E353E4BF43E23E
:0B0E05004043E40443E43043E40122D6
:100E3A0043E10443E10243E10143D81FD2EAD2AFBE
:010E4A002285
:100D3B007400FF740A90244ACFF0A3EFF09024467E
:100D4B00E04440F0E0547FF0E054EFF07400FF74A7
:100D5B001490244CCFF0A3EFF0902447E04404F020
:100D6B00E054F7F0E054FEF07400FF7400A3CFF0F2
:0B0D7B00A3EFF0902446E054F3F022B8
:040DAD0090006EF054
:100DB100E5D2540360FA740AF87400FC7401FDFB77
:100DC1007A00796C7E007F0812087375D30853D2BC
:020DD100FC2202
:100DD300E5D4540360FA7414F87400FC7401FDFB49
:100DE3007A0079817E007F0412087375D50453D489
:020DF300FC22E0
:0300430002004672
:0D004600C0E0C0F0C083C082C0D075D008FB
:1000530020D9030203F5E5D9543F70030203C524F5
:10006300E0700302034B14601C24F1602F240E6024
:10007300030203F375D50063D440E5D454FC440272
:10008300F5D40203F375D30063D240E5D254FC44A4
:1000930002F5D29000767401F00203F375DCC09090
:1000A300001AE5D1F0E06408600302031390000630
:1000B300E0900077F0900007E0700D900077E0D3B8
:1000C300947F748094804006900077747FF0900052
:1000D3001AE4F0900000E054606003020319A3E007
:1000E300900078F0B40B0040030203119000F6F87F
:1000F3002828730202F002023D0203110202740275
:100103000311020206020117020311020211020285
:1001130032020319900003E024FE601E24E06030E5
:100123002421706D90008574FFF0A3740AF0A3740A
:1001330098F090001A7412F0805D90008574FFF0BF
:10014300A3740AF0A374AAF090001A743BF08047DA
:10015300900004E0FF7E00701690008574FFF0A30A
:10016300740AF0A374E5F090001A743EF08028EF4F
:1001730064014E701C90008574FFF0A3740BF0A310
:100183007423F090001A7434F09000887401F080A6
:100193000690001A74FFF090001AE0FFF470030257
:1001A3000319900077E0D39F400890001AE0900075
:1001B30077F0900077E0FFC3940874809480400642
:1001C3007E08EEFF800090001AEFF07E007400F8C6
:1001D3007400FC7401FD900085E0FBA3E0FAA3E04A
:1001E300F9120873900077E0FF90001AE0FEC3EF66
:1001F3009E900077F0EEFF900086E48FF01208994E
:10020300020319900002E0900077F00203199000B6
:1002130074E0900000F0900077E0C3940174809440
:1002230080500302031990001A7401F0020319901D
:100233000002E0900074F0020319900000E0541FE4
:100243006402702A900004E014601D2480600E1480
:100253007046E5D454BC4402F5D4020319E5D254E4
:10026300BC4402F5D202031953D2730203190203E9
:1002730013900000E0541FFD7C00701E900003E00B
:10028300FE900002E0FBEB64014E700C900AB19308
:1002930030E50302031980788076ED64024C704BDD
:1002A300900003E0FE900002E0FDED4E703B9000F5
:1002B30005E0FE900004E0FDEDFFEE702AEF24FE62
:1002C30060112481601714701EE5D454BF4403F5F4
:1002D300D48043E5D4547F440CF5D48039E5D2541B
:1002E300BF4403F5D2802F80278025802390000010
:1002F300E4F0A3F0900077E0FFC39402748094804D
:1003030090001A40057402F0800CEFF08008800022
:1003130090001A74FFF090001AE0FF7E00F4700C56
:1003230090007874FFF075DCCF0203F3D3EF9408E9
:10033300EE64809480500890001AE0F5DD80037528
:10034300DD0075DCC00203F3900078E024FB605C01
:10035300147067900077E0FFC39408748094804022
:10036300067E08EEFF800090001AEFF07E00740016
:10037300F87400FC7401FD900085E0FBA3E0FAA390
:10038300E0F9120873900077E0FF90001AE0FEC3D3
:10039300EF9E900077F0EEFF900086E48FF0120856
:1003A3009990001AE0F5DD63DC408044E5E3548076
:1003B300FF900077E04FF5E3800375DD0075DC0205
:1003C300802E90001AE5D1F0900078E06409701D4A
:1003D300900000E060087BFF7A0A7958800C900057
:1003E30000E070097BFF7A0A79701204A963DC804C
:1003F300C2D930D81275DC0275D20275D40275E306
:1004030000C2DAC2D9C2D830DA23C2DAE5DA30E27E
:100413001FE5A220E7FB75A15575A1AA75EB8143E2
:10042300870275A15575A1AA75EB00800375D8FFE6
:0B043300D0D0D082D083D0F0D0E032D7
:100B5700209803020C05C298900043E599F07BFFAB
:100B67007A0A7989E0900047F01204A9900043E0DF
:100B770024BF602624F1604214605F14600B2406D2
:100B8700707C900081740180059000817402F012DE
:100B97000DD3E4900081F0020DD3E4900076F07459
:100BA70004120DADE490006EF0900076E060FA124A
:100BB7000DB1900076E0705680F8E4900076F074FE
:100BC70013120DADE490006EF0900076E060FA121B
:100BD7000DB1900076E0703680F8E4900076F090E2
:100BE700006E7453F0120DB1E490006EF090007631
:100BF700E060FA120DB1900076E0701280F8E5D24D
:0E0C070054FC4402F5D2E5D454FC4402F5D46A
:010C150022BC
:10000300120C167BFF7A0A798D1204A9120DF512D0
:100013000D3B120E3AE4F5D3F5D5900076F090003F
:1000230088F0900088E06003120B577F647E001213
:040033000E1080EE3D
:03000000020CAF40
:0C0CAF00787FE4F6D8FD758122020CF677
:1007A300E709F608DFFA8046E709F208DFFA803E38
:1007B30088828C83E709F0A3DFFA8032E309F60825
:1007C300DFFA8078E309F208DFFA807088828C838D
:1007D300E309F0A3DFFA806489828A83E0A3F60841
:1007E300DFFA805889828A83E0A3F208DFFA804C1B
:1007F30080D280FA80C680D4806980F280338010F2
:1008030080A680EA809A80A880DA80E280CA80335A
:1008130089828A83ECFAE493A3C8C582C8CCC583D2
:10082300CCF0A3C8C582C8CCC583CCDFE9DEE780A2
:100833000D89828A83E493A3F608DFF9ECFAA9F021
:10084300EDFB2289828A83ECFAE0A3C8C582C8CC77
:10085300C583CCF0A3C8C582C8CCC583CCDFEADE90
:10086300E880DB89828A83E493A3F208DFF980CCF2
:1008730088F0EF60010E4E60C388F0ED2402B404EB
:100883000050B9F582EB2402B4040050AF23234592
:0608930082239007F373BD
:10089900C5F0F8A3E028F0C5F0F8E58215827002EA
:0608A9001583E038F02287
:1008AF0075F008758200EF2FFFEE33FECD33CDCC00
:1008BF0033CCC58233C5829BED9AEC99E582984083
:1008CF000CF582EE9BFEED9AFDEC99FC0FD5F0D660
:1008DF00E4CEFBE4CDFAE4CCF9A88222B800C1B98A
:1008EF000059BA002DEC8BF084CFCECDFCE5F0CBC8
:1008FF00F97818EF2FFFEE33FEED33FDEC33FCEB01
:10090F0033FB10D703994004EB99FB0FD8E5E4F9BB
:10091F00FA227818EF2FFFEE33FEED33FDEC33FCA8
:10092F00C933C910D7059BE99A4007EC9BFCE99A9C
:10093F00F90FD8E0E4C9FAE4CCFB2275F010EF2FE1
:10094F00FFEE33FEED33FDCC33CCC833C810D707E1
:10095F009BEC9AE899400AED9BFDEC9AFCE899F81C
:0E096F000FD5F0DAE4CDFBE4CCFAE4C8F922AF
:0C097D00ECF0A3EDF0A3EEF0A3EFF022ED
:10098900A8828583F0D083D0821209A01209A0120F
:1009990009A01209A0E473E493A3C583C5F0C58334
:1009A900C8C582C8F0A3C583C5F0C583C8C582C8B8
:0109B900221B
:10043E00E5152447F582E43400F583E00515229096
:10044E000044301003900047E475F001120A1202C6
:10045E0009BA2009E97F2ED2098018EF540F249093
:10046E00D43440D4FF300D0BEF24BFB41A00500328
:10047E002461FFE516600215160519E519700205CF
:10048E001830100E900044E475F001120A12EF02BB
:10049E000A00020D867403D2108003E4C210F51513
:1004AE00900044120A29E4F516F518F519E51660C0
:1004BE00077F2012048180F57517FFC20AC209C298
:1004CE000BC20CC20EC20FC21112044DFF700D30C2
:1004DE0010057F00120492AF19AE1822B4255FC228
:1004EE00D5C20D12044DFF24D0B40A00501A75F077
:1004FE000A781630D50508B6FF0106C6A426F620E2
:10050E00D5047002D20C80D924CFB41A00EF500457
:10051E00C2E5D20D020693D20A80C6D20980C0D29D
:10052E000B80BCD2D580BAD20E80B47F201204814B
:10053E00200B077401B5160040F112043EFF1204A1
:10054E00810204BBD211D20F809512043EFB12041D
:10055E003EFA12043EF94A4B700679647A077BFF25
:10056E00200B2EE516602A7E008E827583001209FE
:10057E00D360060EEE651770F0C2D5EBC0E0EAC090
:10058E00E0E9C0E0EE1206DAD0E0F9D0E0FAD0E011
:10059E00FB1209BAFF60AAEBC0E0EAC0E0E9C0E0D6
:1005AE00120481D0E02401F9D0E03400FAD0E0FB4F
:1005BE00E5170460DCD517D980877BFF7A0679D6DC
:1005CE00D20B809C791080027908C20FC21180086C
:1005DE00D2D5790A8004790AC2D5E517047002F5DE
:1005EE0017E4FAFDFEFF12043EFC7B08200A1312EC
:1005FE00043EFD7B1030090A12043EFE12043EFF3B
:10060E007B20EC3382D592D55013C3E43009069F7C
:10061E00FFE49EFEE4200A039DFDE49CFCE4CBF87F
:10062E00C20AEC700CCFCECDCCE824F8F870F38073
:10063E0017C3EF33FFEE33FEED33FDEC33FCEB333C
:10064E00FB994002FB0FD8E9EB300A05F8D0E0C465
:10065E0048B20AC0E00AEC4D4E4F78207B0070C2C3
:10066E00EAB5170040BCC0E01206DCD0F0D0E020A6
:10067E000A04C4C0E0C4B20AC0F012046AD0F0D5B5
:10068E00F0EB0204BB120A3205585305D258052965
:10069E004C05254205D64F05DE4405DE49053E4391
:0806AE0005E45505C84605C826
:1006B6004505C847078450052D2D05312E05542BB9
:1006C600053523055220076D2A04ED480000054C28
:1006D6003F3F3F00790AA2D5200C14300E09B9100D
:1006E600020404B9080104A2D5200F025001042017
:1006F6000B68920BB516005034C0E07F20300C1901
:100706007F30A20B720F720E500F120733C20BC24C
:100716000FC20EC2117F30800F300E03E9C0E01207
:100726000481300E03D0E0F9D0E0B516CC300E17B8
:100736007F30B9100C1204817F58300D077F788006
:1007460003B90803120481300B057F2D0204817F53
:10075600202011F87F2B200FF322920B80CF286EDA
:10076600756C6C2900D20A12043E300AF8C20A7867
:100776001630D50108F60204ED2D504349581204EF
:100786003E2403B405004001E490077F93120472EF
:0D079600743A120472D20C7516040205D2DA
:100CBB00020003E493A3F8E493A34003F68001F24C
:100CCB0008DFF48029E493A3F85407240CC8C3333A
:100CDB00C4540F4420C8834004F456800146F6DF09
:100CEB00E4800B0102040810204080900E27E47E64
:100CFB00019360BCA3FF543F30E509541FFEE493FE
:100D0B00A360010ECF54C025E060A840B8E493A3C4
:100D1B00FAE493A3F8E493A3C8C582C8CAC583CAEF
:100D2B00F0A3C8C582C8CAC583CADFE9DEE780BEA7
:010E390000B8
:1009BA00BB010689828A83E0225002E722BBFE023B
:0909CA00E32289828A83E493226E
:1009D300BB010CE58229F582E5833AF583E02250D9
:1009E30006E92582F8E622BBFE06E92582F8E22223
:0D09F300E58229F582E5833AF583E493223D
:100A0000BB010689828A83F0225002F722BBFE01D5
:020A1000F322CF
:100A1200F8E0FBA3A3E0F925F0F0E582158270026D
:070A22001583E0FA38F02211
:090A2900EBF0A3EAF0A3E9F022CE
:100A3200D083D082F8E4937012740193700DA3A353
:100A420093F8740193F5828883E473740293686067
:060A5200EFA3A3A380DF67
:100D8600EFB40A07740D120D91740A309811A899E0
:100D9600B8130CC2983098FDA899C298B811F630CD
:070DA60099FDC299F59922A5
:00000001FF
