:100AF9004E414B20494E542C5072657061726544C9
:100B09006174610A00457272457030526571547999
:100B190070653D253032580A004572724570305271
:100B29006571436F64653D253032580A004572721C
:100B390045703052657153697A650A00457272458C
:100B49006E647020494E540A005A7A7A00556E6BC9
:100B59006E6F776E20494E540A0053746172742087
:100B6900404368697049443D253032580A0025637D
:100B79000012011001FF8055084843375500010153
:100B89000200010902270001010080320904000066
:100B990003FF805500070582024000000705020295
:100BA90040000007058103400000040309040E0307
:100BB9007700630068002E0063006E000C03430099
:080BC900480035003500390039
:040E29004101210062
:0A0E050075A15575A1AA75A1FF2281
:0E0DEA00EF4E600905A1EF1F70F61E80F32288
:10002A00AD07AC06ED4C600E7FE87E03120DEAEDDB
:07003A001D70F11C80EE2295
:0D0DF80043C60143C40843C50C43CE10227E
:100C7800C29FD29EC29DC2CDC2CC4387809000F451
:100C8800120A2A00000082E47B0AFAF9F89000F4BC
:100C9800E0FCA3E0FDA3E0FEA3E0FF12098C9000B6
:100CA800F8EBF09000F4E0FCA3E0FDA3E0FEA3E085
:100CB800FFE47B0AFAF9F812098C9000F4120A1E74
:100CC8009000F8E0C3940574809480401F9000F46D
:100CD800E0FCA3E0FDA3E0FEA3E02401FFE43EFE68
:100CE800E43DFDE43CFC9000F4120A1EE589540F33
:100CF8004420F58943C9A09000F4A3A3A3E0F40419
:080D0800F58DD28ED299D29C28
:010D100022C0
:080E19003098FDC298AF992248
:080E21008F993099FDC299225E
:0300430002004672
:0D004600C0E0C0F0C083C082C0D075D008FB
:10005300C29220D90302047830DF097BFF7A0A7940
:10006300F9020471E5D9543F700302046124E0707E
:10007300030203EA14605B14604A24F26062242ED4
:10008300600302046B20DE0302047463D4809000D7
:10009300CAE5D1F0E4FF9000CAE0FEEFC39E501C16
:1000A300744A2FF582E43400F583E0F4FD748A2F5B
:1000B300F582E43400F583EDF00F80DA8ED553D466
:1000C300FC02047463D440E5D454FC4402F5D40226
:1000D300047463D240E5D254FC4402F5D2020474A2
:1000E30075DCC09000CAE5D1F0E064086003020348
:1000F300AA900006E090011DF0900007E0700D90BB
:10010300011DE0D3947F74809480400690011D7498
:100113007FF09000CAE4F0900000E0FF5460600EAE
:100123009000CA74FFF0FB7A0B790E0203A09000D3
:1001330001E090011CF0B40B004003020390900116
:1001430048F828287302036F020293020390020205
:10015300D20203900202590201690203900202646F
:1001630002027F020355900003E024FE601D146029
:10017300302402707B90011E74FFF0A3740BF0A374
:10018300747AF09000CA7412F0806B90011E74FFB1
:10019300F0A3740BF0A3748CF09000CA7427F08062
:1001A30055900002E0603324FE6019047042900110
:1001B3001E74FFF0A3740BF0A374B7F09000CA741D
:1001C3000EF0803290011E74FFF0A3740BF0A37441
:1001D300C5F09000CA740CF0801C90011E74FFF0EF
:1001E300A3740BF0A374B3F09000CA7404F08006F8
:1001F3009000CA74FFF09000CAE0FF90011DE0D3A5
:100203009F4002EFF090011DE0FFC39408748094B7
:100213008040067E08EEFF80009000CAEFF07E006B
:100223007400F87400FC7401FD90011EE0FBA3E070
:10023300FAA3E0F912091490011DE0FF9000CAE04F
:10024300FEC3EF9E90011DF0EEFF90011FE48FF0BF
:1002530012093A0203B8900002E090011DF0020374
:10026300B8900121E0900000F090011DE0C39401DB
:100273007480948050030203B8020367900002E085
:10028300900121F06005C2910203B8D2910203B834
:10029300900000E0541F64027033900004E0146087
:1002A300261460122481601414704BE5D454BC44AA
:1002B30002F5D40203B853D4730203B8E5D254BC95
:1002C3004402F5D20203B853D2730203B8807B9081
:1002D3000000E0541FFD7C00701E900003E0FE90C0
:1002E3000002E0FBEB64014E700C900B939330E53E
:1002F300030203B880548052ED64024C704C9000AA
:1003030003E0FE900002E0FDED4E703C900005E03E
:10031300FE900004E0FDEDFFEE702BEF24FE601273
:100323002481601814701FE5D454BF4403F5D4022C
:1003330003B8E5D4547F440CF5D48079E5D254BF97
:100343004403F5D2806F800280009000CA74FFF0EE
:100353008063900000E4F090011DE0C39401748079
:10036300948040519000CA7401F08049900000E4E9
:10037300F0A3F090011DE0FFC39402748094809079
:1003830000CA40057402F0802CEFF080289000CA68
:1003930074FFF0FB7A0B792290011CE0FF9000F7C9
:1003A300E4F0A3EFF0800B9000CA74FFF0FB7A0B2C
:1003B300793612054A9000CAE0FF7E00F4700C9073
:1003C300011C74FFF075DCCF020474D3EF9408EEC4
:1003D3006480948050089000CAE0F5DD800375DDE9
:1003E3000075DCC002047490011CE024FB605C1403
:1003F300706790011DE0FFC39408748094804006E9
:100403007E08EEFF80009000CAEFF07E007400F8D3
:100413007400FC7401FD90011EE0FBA3E0FAA3E06D
:10042300F912091490011DE0FF9000CAE0FEC3EF2A
:100433009E90011DF0EEFF90011FE48FF012093A28
:100443009000CAE0F5DD63DC408026E5E35480FFDD
:1004530090011DE04FF5E3800A75DD0080059001F2
:100463001CE0FF75DC0280097BFF7A0B79451205DE
:100473004AC2D9805A30D81675DC0275D20275D4B7
:100483000275E300D291C2DAC2D9C2D8804130DA10
:1004930032C2DAE5DA30E2277BFF7A0B79521205B2
:1004A3004AD290E5A220E7FB75A15575A1AA75EB89
:1004B3008143870275A15575A1AA75EB008010C20F
:1004C30090800C7BFF7A0B795612054A75D8FFD2C0
:0104D3009296
:0B04D400D0D0D082D083D0F0D0E03236
:100D9D00C2EAD291C290E4F5E29024467440F0A3E9
:100DAD00740CF07400FF7400A3CFF0A3EFF0740087
:100DBD00FF740A90244ACFF0A3EFF07400FF744A39
:100DCD0090244CCFF0A3EFF0E4F5E375E43075E239
:0D0DDD002943E40175D8FF75E107D2EA2231
:100BD1007F1E7E0012002A120C787BFF7A0B79634C
:100BE100AFA19000F7E4F0A3EFF012054A120D9DBA
:100BF100D2AF120E0F9000F3EFF07BFF7A0B7977F3
:100C01009000F7F012054A9000F3E0FFC3943040E2
:100C1100E1EFD3947A50DBE5D2540360FA9000F30C
:100C2100E024D0FFE434FFFAEFF97BFFEBC0E0EA08
:100C3100C0E0E9C0E0740AF87400FC7401FDD0E082
:100C4100F9D0E0FAD0E0FB7E007F40120914900059
:100C5100F3E0FF24D0FDE434FFFCD3ED9408EC6411
:100C610080948040067E08EEFF8004EF24D0FF8F41
:070C7100D353D2FC020BF388
:03000000020D11DD
:0C0D1100787FE4F6D8FD758122020D58B1
:10084400E709F608DFFA8046E709F208DFFA803E96
:1008540088828C83E709F0A3DFFA8032E309F60883
:10086400DFFA8078E309F208DFFA807088828C83EB
:10087400E309F0A3DFFA806489828A83E0A3F6089F
:10088400DFFA805889828A83E0A3F208DFFA804C79
:1008940080D280FA80C680D4806980F28033801050
:1008A40080A680EA809A80A880DA80E280CA8033B9
:1008B40089828A83ECFAE493A3C8C582C8CCC58331
:1008C400CCF0A3C8C582C8CCC583CCDFE9DEE78001
:1008D4000D89828A83E493A3F608DFF9ECFAA9F080
:1008E400EDFB2289828A83ECFAE0A3C8C582C8CCD6
:1008F400C583CCF0A3C8C582C8CCC583CCDFEADEEF
:10090400E880DB89828A83E493A3F208DFF980CC50
:1009140088F0EF60010E4E60C388F0ED2402B40449
:100924000050B9F582EB2402B4040050AF232345F0
:0609340082239008947379
:10093A00C5F0F8A3E028F0C5F0F8E5821582700248
:06094A001583E038F022E5
:1009500075F008758200EF2FFFEE33FECD33CDCC5E
:1009600033CCC58233C5829BED9AEC99E5829840E1
:100970000CF582EE9BFEED9AFDEC99FC0FD5F0D6BE
:10098000E4CEFBE4CDFAE4CCF9A88222B800C1B9E8
:100990000059BA002DEC8BF084CFCECDFCE5F0CB26
:1009A000F97818EF2FFFEE33FEED33FDEC33FCEB5F
:1009B00033FB10D703994004EB99FB0FD8E5E4F91A
:1009C000FA227818EF2FFFEE33FEED33FDEC33FC07
:1009D000C933C910D7059BE99A4007EC9BFCE99AFB
:1009E000F90FD8E0E4C9FAE4CCFB2275F010EF2F40
:1009F000FFEE33FEED33FDCC33CCC833C810D70740
:100A00009BEC9AE899400AED9BFDEC9AFCE899F87A
:0E0A10000FD5F0DAE4CDFBE4CCFAE4C8F9220D
:0C0A1E00ECF0A3EDF0A3EEF0A3EFF0224B
:100A2A00A8828583F0D083D082120A41120A411229
:100A3A000A41120A41E473E493A3C583C5F0C5834E
:100A4A00C8C582C8F0A3C583C5F0C583C8C582C816
:010A5A002279
:1004DF00E51524F7F582E43400F583E00515229045
:1004EF0000F43010039000F7E475F001120AB30224
:1004FF000A5B2009E97F2ED2098018EF540F249050
:10050F00D43440D4FF300D0BEF24BFB41A00500386
:10051F002461FFE516600215160519E5197002052D
:10052F001830100E9000F4E475F001120AB3EF02C8
:10053F000AA10200037403D2108003E4C210F51560
:10054F009000F4120ACAE4F516F518F519E51660CD
:10055F00077F2012052280F57517FFC20AC209C254
:10056F000BC20CC20EC20FC2111204EEFF700D307F
:10057F0010057F00120533AF19AE1822B4255FC2E4
:10058F00D5C20D1204EEFF24D0B40A00501A75F034
:10059F000A781630D50508B6FF0106C6A426F62040
:1005AF00D5047002D20C80D924CFB41A00EF5004B6
:1005BF00C2E5D20D020734D20A80C6D20980C0D25A
:1005CF000B80BCD2D580BAD20E80B47F2012052208
:1005DF00200B077401B5160040F11204DFFF12055E
:1005EF002202055CD211D20F80951204DFFB120498
:1005FF00DFFA1204DFF94A4B700679057A087BFFA0
:10060F00200B2EE516602A7E008E82758300120A5B
:10061F007460060EEE651770F0C2D5EBC0E0EAC04D
:10062F00E0E9C0E0EE12077BD0E0F9D0E0FAD0E0CD
:10063F00FB120A5BFF60AAEBC0E0EAC0E0E9C0E092
:10064F00120522D0E02401F9D0E03400FAD0E0FB0B
:10065F00E5170460DCD517D980877BFF7A07797798
:10066F00D20B809C791080027908C20FC2118008CA
:10067F00D2D5790A8004790AC2D5E517047002F53C
:10068F0017E4FAFDFEFF1204DFFC7B08200A1312A9
:10069F0004DFFD7B1030090A1204DFFE1204DFFFB6
:1006AF007B20EC3382D592D55013C3E43009069FDB
:1006BF00FFE49EFEE4200A039DFDE49CFCE4CBF8DE
:1006CF00C20AEC700CCFCECDCCE824F8F870F380D2
:1006DF0017C3EF33FFEE33FEED33FDEC33FCEB339B
:1006EF00FB994002FB0FD8E9EB300A05F8D0E0C4C4
:1006FF0048B20AC0E00AEC4D4E4F78207B0070C222
:10070F00EAB5170040BCC0E012077DD0F0D0E02062
:10071F000A04C4C0E0C4B20AC0F012050BD0F0D571
:10072F00F0EB02055C120AD305F95306735805CA9C
:10073F004C05C64206774F067F44067F4905DF43C7
:08074F0006855506694606699E
:100757004506694708255005CE2D05D22E05F52BF0
:1007670005D62305F320080E2A058E48000005ED5F
:100777003F3F3F00790AA2D5200C14300E09B9106B
:10078700020404B9080104A2D5200F025001042075
:100797000B68920BB516005034C0E07F20300C195F
:1007A7007F30A20B720F720E500F1207D4C20BC20A
:1007B7000FC20EC2117F30800F300E03E9C0E01266
:1007C7000522300E03D0E0F9D0E0B516CC300E1775
:1007D7007F30B9100C1205227F58300D077F7880C3
:1007E70003B90803120522300B057F2D0205227F6E
:1007F700202011F87F2B200FF322920B80CF286E39
:10080700756C6C2900D20A1204DF300AF8C20A7824
:100817001630D50108F602058E2D504349581204AB
:10082700DF2403B405004001E49008209312051368
:0D083700743A120513D20C751604020673F4
:0A0E0F003098FDAF99C2987E0022D2
:100D1D00020BD1E493A3F8E493A34003F68001F210
:100D2D0008DFF48029E493A3F85407240CC8C333D7
:100D3D00C4540F4420C8834004F456800146F6DFA6
:100D4D00E4800B0102040810204080900E29E47EFF
:100D5D00019360BCA3FF543F30E509541FFEE4939B
:100D6D00A360010ECF54C025E060A840B8E493A362
:100D7D00FAE493A3F8E493A3C8C582C8CAC583CA8D
:100D8D00F0A3C8C582C8CAC583CADFE9DEE780BE45
:010E2D0000C4
:100A5B00BB010689828A83E0225002E722BBFE0299
:090A6B00E32289828A83E49322CC
:100A7400BB010CE58229F582E5833AF583E0225037
:100A840006E92582F8E622BBFE06E92582F8E22281
:0D0A9400E58229F582E5833AF583E493229B
:100AA100BB010689828A83F0225002F722BBFE0134
:020AB100F3222E
:100AB300F8E0FBA3A3E0F925F0F0E58215827002CC
:070AC3001583E0FA38F02270
:090ACA00EBF0A3EAF0A3E9F0222D
:100AD300D083D082F8E4937012740193700DA3A3B2
:100AE30093F8740193F5828883E4737402936860C6
:060AF300EFA3A3A380DFC6
:10000300EFB40A07740D12000E740A309811A89900
:10001300B8130CC2983098FDA899C298B811F6305D
:0700230099FDC299F5992235
:00000001FF
